:100000000C9437040C94F73C0C94F83C0C94640466
:100010000C9464040C9464040C9464040C946404C0
:100020000C9464040C9464040C9464040C946404B0
:100030000C9464040C9464100C9464040C94640494
:100040000C9464040C9464040C9464040C94640490
:100050000C9464040C9464040C9464040C94640480
:100060000C9464040C94C3160C94F7160C9464045A
:100070000C9464040C9450130C9464040C94640465
:100080000C9464040C9464040C9464040C94640450
:100090000C9464040C9464040C9464040C94640440
:1000A0000C9464040C9464040C9493410C946404C4
:1000B0000C9464040C9464040C9464040C94640420
:1000C0000C9464040C9464040C9464040C94093B34
:1000D0000C940E0A0C94520E0C94470B0C94FF09CE
:1000E0000C94A50C0C94B20B0C947C0D0C945B0B33
:1000F0000C94763B0C94130A0C946E0C0C94830AAB
:100100000C94C40E0C94180A0C94A60D0C94DF0DDC
:100110000C944C0B0C94850A0C94DD040C9453063F
:100120000C94DC0C0C94840D0C94B6420C94770A5D
:100130000C94220A0C946D0A0C9432080C94EC3A3C
:100140000C941D0A0C940A070C94420B0C94DE3A92
:100150000C9460120C94190D0C94A90B0C948E0D38
:100160000C9478080C94560B0C94D8480C94173BBC
:100170000C94BB120C94A00E0C94BF0B0C94790A37
:100180000C94C90A0C946A060C948D0A0C94C30B47
:100190000C9410080C948D070C94370C0C94EF07FA
:1001A0000C9482060C94FD0D0C9455080C940D0AC9
:1001B0000C94060B0C941E0D0C94B4060C948B0A34
:1001C0000C94510B0C9429070C94C10D0C94D00D78
:1001D0000C9449070C94CF070C94000C0C94A00BC2
:1001E0000C94B2420C94540E0C94F8110C94924559
:1001F0000C949B060C94D33B0C946A070C94C50892
:100200000C94B20D0C94240D0C94F13A0C94FF0D47
:100210000C9498080C94630B0C94AF070C94BB0BD4
:100220006364696E6F70737578585B000201434CAC
:10023000534500000000000000840D7C0DA00E005E
:100240000000000055745345000000000000001E2F
:100250000DBF0B240D0000000000456E534500004B
:1002600000000000000000000000000000BA0309C8
:10027000434F747200000000000000190D000000E0
:1002800000000000000048497472000000000000F7
:1002900000BB0BBF0BFF090000000000642D252EE2
:1002A00032690000000002B20BBF0BDC0C8D0700AE
:1002B000000064752D2569000000000001520E0049
:1002C00000540EAF0700000055502D2569000000B6
:1002D000000001FD0D0000FF0DCF07000000414CA4
:1002E0002D2569000000000001420B0000DF0DB465
:1002F0000600000046722D2569000000000001473D
:100300000B0000A50CEF070000004F642D256900CD
:1003100000000000014C0B00006E0C1008000000F3
:1003200062722D2569000000000001510B000037AA
:100330000C32080000004C452D256900000000002B
:1003400001560B0000000C5508000000462D252E1C
:1003500032690000000002A90BBF0BC30B78080034
:100360000000532D252E32690000000002A00BBFB3
:100370000B630B9808000000434855500000000034
:10038000000000000000000D0A00000000004348CB
:1003900064740000000000000000000000C40E00B3
:1003A0000000000053456474000000000000008B52
:1003B0000A00005B0B000000000062452D2569006B
:1003C00000000000011D0A0000D00D5306000000CF
:1003D00041462D2569000000000001180A0000C1F7
:1003E0000D6A0600000053632D256900000000001F
:1003F00001830A0000060B0A0700000072642D2525
:1004000069000000000001130A0000B20D8206001E
:1004100000004C452D2569000000000001790A000C
:1004200000C90A6A0700000074752D2569000000E4
:10043000000001770A00008D0A29070000006445CA
:100440004C7200000000000000850A0000A60D00AC
:1004500000000000464C2D25690000000000016DE1
:100460000A0000220A490700000053502D256900A8
:1004700000000000010E0A00008E0D9B0600000027
:10048000102040800000000000000000000000007C
:10049000000000000000000000000000000000005C
:1004A000000000000000000000000000000000004C
:1004B000004080003F065B4F666D7D077F6F000048
:1004C00000000000007700390079713D76060E00CB
:1004D0003800003F7300006D003E00000000000087
:1004E0000000000800007C585E00006F74000000EF
:1004F0000000545C73675000781C0000006E003FE1
:10050000065B4F666D7D077F6F777C395E7971641E
:100510003D31362C6F3D342C623D39303A65352CF7
:100520006423352C65352C6423352C65352C622CE1
:1005300064352C63352C38612C702C632C652C6150
:100540002C38622C702C652C47232C422C386335B8
:100550002C702C652C652C6423352C65352C64237C
:10056000352C65352C622C64352C63352C38612C88
:10057000702C632C652C612C38622C702C652C63DC
:10058000352C622C38612C387000643D342C6F3D62
:10059000352C623D37303A386723342C3863232CAE
:1005A00038652C386723342C3863232C38652C3875
:1005B0006723342C3863232C38652C386723342C7C
:1005C0003863232C38652C3861342C3863232C385D
:1005D000652C3861342C3863232C38652C38613411
:1005E0002C38642C3866232C3861342C38642C3831
:1005F00066232C386723342C38632C3866232C3838
:100600006723342C3863232C38652C386723342C2B
:100610003863232C3864232C386623342C38632C1D
:100620003864232C632300643D31362C6F3D362C17
:10063000623D39303A3332642C333264232C333206
:10064000642C333264232C3332642C333264232CF5
:100650003332642C333264232C3332642C333264CF
:100660002C333264232C3332652C3332662C3332F4
:1006700066232C3332672C672C38702C672C38702B
:100680002C61232C702C63372C702C672C38702C29
:10069000672C38702C662C702C66232C702C672CE1
:1006A00038702C672C38702C61232C702C63372CFD
:1006B000702C672C38702C672C38702C662C702CA2
:1006C00066232C702C61232C672C32642C333270FF
:1006D0002C61232C672C3263232C3332702C612342
:1006E0002C672C32632C6123352C38632C32702C10
:1006F0003332702C6123352C67352C3266232C3332
:1007000032702C6123352C67352C32662C333270D5
:100710002C6123352C67352C32652C64232C3864EE
:1007200000643D342C6F3D352C623D3235303A4506
:100730002C38702C38462C38472C38702C314336E6
:100740002C38702E2C442C38702C38452C31462CEB
:10075000702E2C472C38702C38412C38422C387095
:100760002C3146362C702C412C38702C38422C32CF
:1007700043362C3244362C3245362C452C38702CDE
:1007800038462C38472C38702C3143362C702C448A
:10079000362C38702C3845362C31462E362C472CCA
:1007A00038702C38472C452E362C38702C44362C7B
:1007B00038702C38472C452E362C38702C44362C6B
:1007C00038702C38472C462E362C38702C45362C59
:1007D00038702C3844362C324336000000E1EE7875
:1007E000E1D1D4E3C89ABDF6B2EBA8709F7D960C18
:1007F0008E13868D7E7377BE706A6A7264CE5E7C5D
:10080000597654B84F3F4B06470A43463FB93B5FC2
:100810003835353832672FBE2C3B2ADC27A025839C
:10082000238521A31FDD1D2F1C9B1A1C19B3175FE5
:10083000161E15EE13D012C211C210D20FEE0E18F2
:100840000E4D0D8E0CDA0B300B8F0AF7096809E19B
:10085000086108E90777070C07A7064706ED059822
:10086000054705FC04B40470043104F403001124AA
:100870001FBECFEFD1E2DEBFCDBF00E00CBF14BE84
:100880000FB6F894A895809160008861809360000D
:10089000109260000FBE13E0A0E0B2E0E0EDF4EAD9
:1008A00000E00BBF02C007900D92A437B107D9F743
:1008B0002EE0A4E7B3E001C01D92A934B207E1F72E
:1008C0000E9457470C945F520C9400000000FECF2A
:1008D0008F929F92AF92BF92CF92DF92EF92FF9250
:1008E0000F931F93CF93DF9300D000D000D00F92CF
:1008F000CDB7DEB79C018B014A011A821982FE0135
:10090000339688E0DF011D928A95E9F7CE010196C2
:100910005C01FC01D12CC12C12161306B4F1740138
:10092000EC18FD08A7018C149D0414F440E050E07D
:1009300060E370E0C8010E94E24BC5018C0D9D1D73
:100940008C149D0414F4F12CE12CF801EE0DFF1D24
:100950008A159B0569F50C0D1D1DF801EE0DFF1D97
:10096000108281E02A960FB6F894DEBF0FBECDBF8D
:10097000DF91CF911F910F91FF90EF90DF90CF907B
:10098000BF90AF909F908F900895C9018F70992765
:10099000AFEFCA1ADA0A8A30910544F4805D819378
:1009A00084E0359527958A95E1F7B6CF895CF7CF36
:1009B000DC012E91CD012193CBCF9C01809174035A
:1009C00090917503892B29F4309375032093740358
:1009D00008954091740350917503C901B0E0A0E0FF
:1009E000840F951FA11DB11DB695A7959795879565
:1009F000909375038093740308959898A09A61E08A
:100A000070E082E00E94ED13109277030895E4E70E
:100A1000F3E011821082128281E0838308951092A4
:100A2000770308959091770381E0911101C080E0F0
:100A30000895AF92BF92CF92DF92EF92FF920F9301
:100A40001F93CF93DF9300D00F92CDB7DEB7809185
:100A50007403909175039C0150E040E029833A8330
:100A60004B835C83CA01B90124E630E040E050E0EA
:100A70000E949F48ECECAE2EBB24B394C12CD12C29
:100A8000E12CF12C00E010E00E94FD48822F0F9035
:100A90000F900F900F90DF91CF911F910F91FF90CA
:100AA000EF90DF90CF90BF90AF900895CF9380915B
:100AB0007703882349F18091760390E00196817055
:100AC0009927809376038091760381111DC08091D0
:100AD000740390917503892B61F410927503109241
:100AE00074034DED54E060E270E082E0CF910C942D
:100AF0001A140E941905C82F8B3478F78CEA92E0FB
:100B00000E944B18C23348F7CF910895823049F0C4
:100B100043E032E0833039F449E03AE022E09AE001
:100B200004C046E036E023E090E0809381034093E8
:100B3000850330938703209386039093880384E092
:100B40008093840382E08093830380918A038F6380
:100B500080938A03089588E198E00FB6F894A895E9
:100B6000809360000FBE90936000FFCF81EB92E016
:100B70000E9482310E94AB05E89A0E949A1168ECAB
:100B800070E088EB92E00E94BB180E9444180E941B
:100B900039180E940F050E94A41483B7817F8460D6
:100BA00083BF83B7816083BF83B7816083BF88952C
:100BB00083B78E7F83BF83B78E7F83BFE8980E9401
:100BC00050140E9407050E94281868EC70E08DEB15
:100BD00092E00E94BB180E94AB05ECE2F2E0859126
:100BE000949108959FEF980F933010F480938003B1
:100BF00008951092800308951092800308959FEF46
:100C0000980F933010F40C948605089582E00C94AC
:100C10008605CF93DF9341E061EB72E086ED95E0CE
:100C20000E943427892B41F180917903807E88606E
:100C30008093790310927C0310927D03C3E0C093EC
:100C40007E03D4E0D0937F03109280030E940606B7
:100C500085E08093820382E080938303D0938403B2
:100C6000C0938503C093860387E0809387038093B6
:100C70008803DF91CF91089524ED35E042E150E003
:100C800069E773E086ED95E00E94ED2886ED95E03A
:100C9000DF91CF910C94E42CE9E7F3E01086818991
:100CA000807C818B08958091790381700895E9E7B4
:100CB000F3E0908180FB90F990830895809179030F
:100CC000809581700C945706E9E7F3E080818E7F70
:100CD0008083089580917903869581700895E9E76E
:100CE000F3E0908180FB91F9908308950E946A0659
:100CF00091E089270C946F06E9E7F3E080818D7F0E
:100D0000808308958091790382FB882780F9089574
:100D1000E9E7F3E0908180FB92F9908308950E94C7
:100D2000820691E089270C948806E9E7F3E0808148
:100D30008B7F808308958091790383FB882780F9D6
:100D40000895E9E7F3E0908180FB93F9908308959B
:100D50000E949B0691E089270C94A106E9E7F3E045
:100D60008081886080830895809179038295817065
:100D70000895E9E7F3E0908180FB94F9908308956A
:100D80000E94B40691E089270C94B906E9E7F3E0E4
:100D900080818F7E8083089580917A0390917B0378
:100DA000089583E090E0089580EF90E0089581E059
:100DB00090E0089582ED90E008958091890381701C
:100DC0000895E9E8F3E0908180FB90F9908308951D
:100DD0009C0103978E3E910520F430937B03209372
:100DE0007A03089582ED90E090937B0380937A03D9
:100DF000089510927B0310927A03089590E080E0AA
:100E0000089581E020917A0330917B03232B09F030
:100E100080E0089580917C03089580E0089589E042
:100E2000089581E0089580E0089580918903869572
:100E300081700895E9E8F3E0908180FB91F9908357
:100E400008958A3010F480937C03089510927C03F7
:100E5000089580917D03089580E0089589E00895C4
:100E600081E0089580E008958091890382FB8827BE
:100E700080F90895E9E8F3E0908180FB92F990838E
:100E800008958A3010F480937D03089510927D03B5
:100E9000089580918203089580E0089589E008957F
:100EA00081E0089585E0089580918903881F88274F
:100EB000881F0895E9E8F3E0908180FB97F990831B
:100EC00008958A3010F480938203089585E080931A
:100ED0008203089580917E03089581E0089589E05A
:100EE000089581E0089583E008958091890383FB4C
:100EF000882780F90895E9E8F3E0908180FB93F971
:100F0000908308959FEF980F993010F480937E039B
:100F1000089583E080937E03089580917F03089570
:100F200082E0089587E0089581E0089584E00895BF
:100F300080918903829581700895E9E8F3E09081BA
:100F400080FB94F9908308959EEF980F963010F4EB
:100F500080937F03089584E080937F0308958091B8
:100F60008003089581E0089583E0089581E0089565
:100F700080E008958091890385FB882780F9089592
:100F8000E9E8F3E0908180FB95F99083089580E093
:100F9000089581E090918003911180E008958091FF
:100FA0008103089581E0089583E0089581E0089524
:100FB00082E008958091890386FB882780F908954F
:100FC000E9E8F3E0908180FB96F99083089580E052
:100FD000089581E090918103911180E008958091BE
:100FE0008303089581E0089589E0089581E00895DC
:100FF00082E0089580918A0381700895E9E8F3E022
:10100000918180FB90F9918308959FEF980F99301B
:1010100010F480938303089582E0809383030895FE
:1010200080918403089581E0089589E0089581E026
:10103000089584E0089580918A03869581700895CB
:10104000E9E8F3E0918180FB91F9918308959FEFA6
:10105000980F993010F480938403089584E080936E
:101060008403089580918503089581E0089589E0BF
:10107000089581E0089583E0089580918A0382FBBA
:10108000882780F90895E9E8F3E0918180FB92F9DF
:10109000918308959FEF980F993010F48093850302
:1010A000089583E0809385030895809186030895D1
:1010B00081E0089589E0089581E0089583E008952E
:1010C00080918A0383FB882780F90895E9E8F3E09B
:1010D000918180FB93F9918308959FEF980F993048
:1010E00010F480938603089583E080938603089527
:1010F00080918703089580E0089583E6089581E054
:10110000089587E0089580918A03829581700895FB
:10111000E9E8F3E0918180FB94F9918308958436A6
:1011200010F480938703089587E0809387030895E0
:1011300080918803089580E0089583E6089581E012
:10114000089587E0089580918A0385FB882780F9B8
:101150000895E9E8F3E0918180FB95F99183089582
:10116000843610F480938803089587E08093880381
:101170000895809178030895809178038F5F80931C
:1011800078030895109278030895AC01CB014115BE
:10119000510581F04130510509F420E1813091057C
:1011A00059F08230910569F0892B19F48DB1822BA9
:1011B0008DB9089528E0F2CF8DB1209528232DB95F
:1011C00008958DB18227F4CFCF92DF92EF92FF92F4
:1011D0000F931F93CF93DF9300D00F920F92CDB751
:1011E000DEB77C016983142F5D83690182E0E81614
:1011F000F10408F092C0C7010E94821681118DC0CF
:10120000202F023608F497C021E6A601612F7D81C8
:10121000C7010E949C1680919100887F8093910065
:101220009981953608F48CC0A4E6A9839981892F09
:1012300090E0B0E0A0E089839A83AB83BC83BC01DB
:10124000CD010E94B84A9B01AC0169837A838B83EC
:101250009C8369817A818B819C810E94464B20E02E
:1012600030E048EC52E469837A838B839C83698104
:101270007A818B819C810E94174A9B01AC0160E0BE
:1012800070E088EC92E40E94AA4920E030E84FEF39
:1012900053E469837A838B839C8369817A818B8110
:1012A0009C810E94464B20E030E048EC52E4698388
:1012B0007A838B839C8369817A818B819C810E9454
:1012C000174A20E030E84FEF53E469837A838B8339
:1012D0009C8369817A818B819C810E94AB4969835F
:1012E0007A838B839C8369817A818B819C810E9424
:1012F000894A462F572FA1E0EA16F10439F150939D
:1013000099004093980070E060E0C7010E94C50812
:1013100080919100887F809391000F900F900F90A3
:101320000F900F90DF91CF911F910F91FF90EF9051
:10133000DF90CF900895033008F067CF23E065CFAA
:10134000B981B11173CF81E0898370CF50939B0035
:1013500040939A00D8CF0F9300E030E020E00E9445
:10136000E4080F9108958DB1877E8DB98EB1877E87
:101370008EB9E1E7F0E08081887D808383EA809305
:10138000900088E0809391008FEF93E09093990014
:101390008093980090939B0080939A0065EC78E08E
:1013A00090E080E00E94B71665EC78E081E090E084
:1013B0000C94B71620919103022E000C330B40E0E1
:1013C0008EE292E056E1642F042E000C770BE42F9E
:1013D000EE0FFF0BE60FF71FE557FC4FE081E59F8F
:1013E000800D911D11246217730724F44396FC01AC
:1013F000859194914F5F621773072CF3089580399C
:1014000041F028F4803129F0803219F00895803AB3
:1014100019F481E080939203089508950E949B0639
:1014200090E00C9444190E94820690E00C944419B8
:101430000E946A0690E00C9444190E94530690E0C2
:101440000C944419CF93803259F030F48830A9F0CD
:10145000803191F1CF910895803971F1803AD1F7BF
:101460000E945407811122C00E944907C82F811190
:1014700013C00E944E07C82F16C00E944907882338
:1014800039F00E944907682F80ED97E00E94CE1244
:1014900081E080939203DECF0E945007C81B0E9418
:1014A0004C07C81730F38C2F0E9461070E94490730
:1014B00090E00E940C19ECCF0E9454078111F6CFE6
:1014C0000E944907C82F0E945007C80F0E944E076C
:1014D0008C1748F70E944C07CECF0E94490790E036
:1014E0000C940C190E94290790E00C940C190C9490
:1014F000720A0E946A0790E00C940C190E940A0775
:1015000090E00C940C190C947E0A61E070E082EC7F
:1015100092E00C94BB180C94850ACF93803259F05A
:1015200030F4883009F1803119F1CF910895803974
:10153000F9F0803AD1F70E943407811113C00E945C
:101540002907C82F811104C00E942E07C82F07C089
:101550000E943007C81B0E942C07C817A8F38C2FC5
:101560000E9441070E94720A81E080939203DDCFBE
:101570000E9434078111F6CF0E942907C82F0E94CC
:101580003007C80F0E942E078C1748F70E942C07BF
:10159000DDCFCF93803949F130F4803131F18032A1
:1015A00021F0CF910895803AE1F70E9475078111EB
:1015B00013C00E946A07C82F811104C00E946F07E0
:1015C000C82F07C00E947107C81B0E946D07C8176B
:1015D000A8F38C2F0E9482070E946A0790E00E9465
:1015E0000C1981E080939203DCCF0E947507811172
:1015F000F3CF0E946A07C82F0E947107C80F0E948C
:101600006F078C1730F70E946D07DACFCF938032C7
:1016100059F030F4883009F1803119F1CF910895F3
:101620008039F9F0803AD1F70E941507811113C073
:101630000E940A07C82F811104C00E940F07C82FFB
:1016400007C00E941107C81B0E940D07C817A8F306
:101650008C2F0E9421070E947E0A81E080939203D2
:10166000DDCF0E9415078111F6CF0E940A07C82F0F
:101670000E941107C80F0E940F078C1748F70E949D
:101680000D07DDCF0E94B40690E00C9444190E942F
:10169000EF0790E00C940C190E94100890E00C9455
:1016A0000C190E94320890E00C940C190E94550805
:1016B00090E00C940C19883029F40E94B60581E062
:1016C000809392030895CF93803949F130F48031AB
:1016D00031F1803221F0CF910895803AE1F70E94F4
:1016E000A308811113C00E949808C82F811104C05B
:1016F0000E949D08C82F07C00E949F08C81B0E9417
:101700009B08C817A8F38C2F0E94B0080E94980865
:1017100090E00E940C1981E080939203DCCF0E943C
:10172000A3088111F3CF0E949808C82F0E949F0838
:10173000C80F0E949D088C1730F70E949B08DACFD3
:101740000E94980890E00E940C1984E190E00C94AB
:101750004F3C0E94780890E00E940C1984E190E0D0
:101760000C944F3C0E948D0790E00E940C1984E17C
:1017700090E00C944F3C84E190E00C944F3C90E05E
:1017800080E00C944F3CCF93803949F130F48031A4
:1017900031F1803221F0CF910895803AE1F70E9433
:1017A0008308811113C00E947808C82F811104C0DA
:1017B0000E947D08C82F07C00E947F08C81B0E9496
:1017C0007B08C817A8F38C2F0E948F080E94780806
:1017D00090E00E940C1981E080939203DCCF0E947C
:1017E00083088111F3CF0E947808C82F0E947F08D8
:1017F000C80F0E947D088C1730F70E947B08DACF53
:10180000CF93803119F18032F9F40E946008811180
:1018100013C00E945508C82F811104C00E945A08A5
:10182000C82F07C00E945C08C81B0E945808C81730
:10183000A8F38C2F0E946D080E94550890E00E942A
:101840000C1981E080939203CF9108950E94600863
:101850008111F2CF0E945508C82F0E945C08C80F62
:101860000E945A088C1728F70E945808D9CFCF93A6
:10187000803119F18032F9F40E943D08811113C0C2
:101880000E943208C82F811104C00E943708C82F57
:1018900007C00E943908C81B0E943508C817A8F362
:1018A0008C2F0E944A080E94320890E00E940C1976
:1018B00081E080939203CF9108950E943D088111A9
:1018C000F2CF0E943208C82F0E943908C80F0E9428
:1018D00037088C1728F70E943508D9CFCF9380316D
:1018E00019F18032F9F40E941B08811113C00E9483
:1018F0001008C82F811104C00E941508C82F07C006
:101900000E941708C81B0E941308C817A8F38C2F41
:101910000E9427080E94100890E00E940C1981E0A4
:1019200080939203CF9108950E941B088111F2CFFA
:101930000E941008C82F0E941708C80F0E9415089F
:101940008C1728F70E941308D9CFCF93803119F153
:101950008032F9F40E94FA07811113C00E94EF0748
:10196000C82F811104C00E94F407C82F07C00E942D
:10197000F607C81B0E94F207C817A8F38C2F0E9415
:1019800005080E94EF0790E00E940C1981E0809307
:101990009203CF9108950E94FA078111F2CF0E941D
:1019A000EF07C82F0E94F607C80F0E94F4078C1794
:1019B00028F70E94F207D9CFCF93803949F130F44C
:1019C000803131F1803221F0CF910895803AE1F7F2
:1019D0000E949807811113C00E948D07C82F8111A2
:1019E00004C00E949207C82F07C00E949407C81B1A
:1019F0000E949007C817A8F38C2F0E94A4070E948A
:101A00008D0790E00E940C1981E080939203DCCF57
:101A10000E9498078111F3CF0E948D07C82F0E9462
:101A20009407C80F0E9492078C1730F70E94900706
:101A3000DACF0E94B90890E00C940C190E944F195B
:101A400084E190E00C944F3CCF93DF93803261F0BF
:101A500038F48830D1F08031C1F1DF91CF91089511
:101A6000803999F1803AC9F70E940107811117C0A6
:101A70000E94DD06811113C00E94CC06EC01892B67
:101A8000B9F40E94D406EC011CC00E94DD0681114D
:101A900006C00E940107882341F00E94F2060E94BE
:101AA0004F1981E080939203D8CF0E94F906F7CFB7
:101AB0000E94D706C81BD90B0E94D106C817D907A8
:101AC00000F3CE010E94E806EACF0E9401078111CF
:101AD000E6CF0E94DD068111E2CF0E94CC06EC0128
:101AE0000E94D706C80FD91F0E94D4068C179D07E5
:101AF00040F70E94D106C7CF90E080E00E94AE116F
:101B00000E949A110C94BF0B81E090E00E94AE11EC
:101B10000E94941182E390E00C944F3C803111F0CC
:101B2000803281F40E94A8060E949B0690E00E94E9
:101B300044190E949B06882331F00E942F4081E0C7
:101B40008093920308950E943740F9CF883049F47A
:101B500061E070E087EC92E00E94BB1883E0809324
:101B600092030895803111F0803251F40E948F0663
:101B70000E94820690E00E94441981E080939203C3
:101B80000895803111F0803251F40E9476060E944F
:101B90006A0690E00E94441981E0809392030895C0
:101BA000803111F0803251F40E945E060E9453068B
:101BB00090E00E94441981E080939203089580315F
:101BC00011F0803251F40E94C0060E94B40690E0E9
:101BD0000E94441981E08093920308950E94E907CE
:101BE000882331F061E070E088EB92E00C94BB1840
:101BF0000E94CF0790E00C940C190C94EE0DCF933B
:101C0000803181F18032B1F0883079F40E94DA07B6
:101C1000811106C00E94E907882349F00E94060648
:101C20000E94EE0D81E080939203CF9108950E946F
:101C30004C06F6CF0E94DA078111F2CF0E94CF073F
:101C4000C82F811104C00E94D407C82F07C00E946A
:101C5000D607C81B0E94D207C817A8F38C2F0E9472
:101C6000FF05DECF0E94DA078111DACF0E94CF078D
:101C7000C82F0E94D607C80F0E94D4078C1770F790
:101C80000E94D207E2CF0E94C907882331F061E0A9
:101C900070E088EB92E00C94BB180E94AF0790E0D4
:101CA0000C940C190C94430ECF938031A1F1803227
:101CB000B1F0883079F40E94BA07811106C00E9401
:101CC000C907882349F00E94F9050E94430E81E06C
:101CD00080939203CF9108950E94FC05F6CF0E9455
:101CE000C9078111F2CF0E94BA078111EECF0E947D
:101CF000AF07C82F811104C00E94B407C82F07C0C6
:101D00000E94B607C81B0E94B207C817A8F38C2F01
:101D10000E94F205DACF0E94C9078111D6CF0E9436
:101D2000BA078111D2CF0E94AF07C82F0E94B60711
:101D3000C80F0E94B4078C1750F70E94B207DECF7D
:101D40008032D1F028F4883041F08031D1F008950C
:101D50008039B9F0803A81F008950E94B11101975D
:101D600041F482E090E00E94AE1181E08093920302
:101D7000089581E090E0F7CF8FEF9FEF0E94C211AE
:101D8000F4CF81E090E0FACF0895EF92FF920F93A5
:101D90001F93CF93DF93CDB7DEB72F970FB6F8948D
:101DA000DEBF0FBECDBF0E94DA09FC013A96E49176
:101DB0008E010F5F1F4FEE23C9F10E94DA09FC016B
:101DC000719685919491F12CE12C009721F0FC0102
:101DD0001995E82EF12C0E94DA09BC01C8010E9475
:101DE000B34BFF92EF921F930F931F9285E08F9357
:101DF0008E01055F1F4F1F930F930E94064C0FB675
:101E0000F894DEBF0FBECDBFC80161E070E00E9454
:101E1000BB182F960FB6F894DEBF0FBECDBFDF9173
:101E2000CF911F910F91FF90EF9008950E94DA09D2
:101E3000BC01C8010E94B34BE7CFEBE8F3E088E0B8
:101E4000DF011D928A95E9F78FEF868382E1818316
:101E50000895EBE8F3E0168210820C94C50E809191
:101E60009103082E000C990B80959095892F881F5F
:101E70008827881F90E00895CF93DF93D82FC091D3
:101E8000910390E080E0C7FD28C0109292038C2F50
:101E90000C2E000C990BEC2FEE0FFF0BE80FF91F27
:101EA000E557FC4F8281D43841F5882351F00E94D8
:101EB000DA09FC013D9685919491009711F0FC019F
:101EC00019958091910381110BC08FEF809391033D
:101ED00085E08093920385E090E0DF91CF910895B3
:101EE00081508093910387FDF0CF0E94C50E81E061
:101EF0008093920381E090E0F0CF81114AC0D4300A
:101F000031F0D83079F08091920390E0E6CF808173
:101F100090E00196618170E00E94474880830E94B2
:101F2000C50E33C00E94DA09FC017596E491EE23D8
:101F3000A9F00E94DA09FC017596E491CF5FC09385
:101F40009103AC2FAA0FBB0BAC0FB11DC7FDBA9507
:101F5000A557BC4F1C921196EC93E1CF0E94DA0971
:101F6000FC013B9685919491009711F0FC01199525
:101F700080919103E82FEE0FFF0BE80FF11D87FD15
:101F8000FA95E557FC4F81E0828381E080939203CC
:101F9000BACFD430B9F40E94DA09FC013D9685919C
:101FA0009491009711F0FC01199580919103E82F0D
:101FB000EE0FFF0BE80FF11D87FDFA95E557FC4F7B
:101FC0001282ADCF0E94DA09FC013F96259134912F
:101FD0002115310509F497CF8D2FF90119958091BD
:101FE000920381FF90CF80919103E82FEE0FFF0BBA
:101FF000E80FF11D87FDFA95E557FC4F12820E940C
:10200000C50E81CFFF920F931F93CF93DF93D62FEF
:10201000F72EC42F40FF4BC09F938F938BEF92E01E
:102020009F938F931F9283E08F9383E993E09F9315
:102030008F930E94064C8DB79EB708960FB6F89402
:102040009EBF0FBE8DBF05E913E0C2FF08C069EE59
:1020500072E085E993E00E94E94B06E913E0C1FFD5
:102060002DC0FF92DF938BEF92E09F938F931F928F
:1020700083E08F931F930F930E94064C8DB79EB7FA
:1020800008960FB6F8949EBF0FBE8DBFC6FF06C060
:1020900069EE72E0C80102960E94E94B83E993E081
:1020A000DF91CF911F910F91FF900C944B186CE131
:1020B00073E083E993E00E94FF4BC5CF6CE173E0CE
:1020C000C8010E94E94BE2CF1F920F920FB60F9208
:1020D00011240BB60F922F933F934F935F936F93FF
:1020E0007F938F939F93AF93BF93CF93EF93FF9380
:1020F0000E94043DC82F0E94853CC1111092A2038A
:102100000E94F6140E9409180E94E5150E949A1276
:1021100080919D0390919E03019668EE73E00E946A
:10212000334890939E0380939D0380919D039091EB
:102130009E03892B09F072C08091A2038E3198F41E
:102140008091A2038F5F8093A2038091A2038E31BE
:1021500050F08091A00387FF06C08091A1038111F8
:1021600002C00E94441880919C0390E001962CE3E9
:1021700030E0B9010E94474880939C0380919C0302
:10218000811122C04FB7F89480919B03082E000C58
:10219000990B0196B9010E94474880939B03809157
:1021A0009B0381110CC080919A03082E000C990B9F
:1021B000019668E170E00E94474880939A034FBF00
:1021C0008091A0030E9456058091A00394E0892786
:1021D0008093A0038091A103811120C08091A0036E
:1021E00081608093A0038091A00382608093A0030C
:1021F0008091A00387FF12C08091A2038E3170F4FA
:102200004091A00360919B0380919A03062E000CDD
:10221000770B082E000C990B0E94021080919F03EF
:1022200090E0019668EC70E00E94474880939F031D
:102230008091A103882339F180919F03811123C0EC
:102240008091A103813099F1823051F49091A003E3
:1022500091609093A0039091A00389278093A0039D
:102260008091A00387FF0FC04091A00360919B0362
:1022700080919A034F7B062E000C770B082E000CE2
:10228000990B0E940210FF91EF91CF91BF91AF91F6
:102290009F918F917F916F915F914F913F912F917E
:1022A0000F900BBE0F900FBE0F901F90189590913E
:1022B000A0039260CECF8CE080939A0310929B0390
:1022C00010929C0310929E0310929D0310929F0304
:1022D00083E08093A0031092A1031092A2032FEF3A
:1022E00082E597E0215080409040E1F700C0000077
:1022F00080917000887F8093700080E28093B600A8
:1023000082E08093B00081E08093B1001092B2002F
:1023100081E28093B3008091B6008A71E1F717BA29
:1023200082E0809370000895EAE9F3E08681806896
:1023300086830895EAE9F3E086818F7786830C949B
:1023400044188091A003881F8827881F08959091C2
:10235000A10381E0911101C080E008958093A10361
:1023600008958091A10390E00895EAE9F3E0968151
:10237000982B96830895EAE9F3E096818095892366
:10238000868308959C018091A1038130D1F0823031
:1023900079F49FB7F89480919B0337FF0AC081506E
:1023A00080939B0387FF03C08BE380939B039FBFB6
:1023B00008958F5F80939B038C33CCF310929B0323
:1023C000F6CF9FB7F89480919A0337FF09C08150E8
:1023D00080939A0387FFEBCF87E180939A03E7CF3F
:1023E0008F5F80939A03883114F310929A03DFCFA2
:1023F000FC0182819381A481B58181309105A10581
:10240000B10541F40E94F9060E949A118CEC92E009
:102410000C944B18843F21E09207A105B10511F4FB
:102420000C944F19883E9340A105B10529F4CF01C2
:102430000E94F2140C94941108959091C00095FF9D
:10244000FCCF8093C6000895CF93C82F82958F70DC
:10245000C03A08F0895D805D0E941D128C2F8F703C
:102460008A3008F0895D805DCF910C941D12FF9237
:102470000F931F93CF93DF93062FD72FC42F0E9464
:1024800024128AE30E941D12102FFD2E0C2F010F23
:1024900001130BC08DE00E941D128AE0DF91CF91E5
:1024A0001F910F91FF900C941D1280E20E941D124B
:1024B000C12FDF2D89910E9424121C2FFD2EE8CF01
:1024C000CF93DF930F920F92CDB7DEB79A838983B4
:1024D00062E0CE0101960E94B0170F900F90DF913D
:1024E000CF910895389A409A81E00895389888B13C
:1024F000817088B908958091A30381110CC040E6D2
:1025000052E170E060E00E941A14882321F04098A4
:1025100091E09093A30308958091A303882331F061
:10252000409A80E00E9491141092A3030895809134
:10253000A30308958091A4038F5F8093A4038A303E
:1025400021F41092A4030C94CE19089541E0482779
:1025500060EF72E085EA93E00E94F2269C0181E040
:10256000232B09F080E0089540E060EF72E090E0F6
:1025700080E00C94F226029781F46130710539F005
:102580006230710531F0672B41F4419A089541980A
:10259000089588B192E0892788B908951F93CF9351
:1025A000DF93182FD92FC62F82E090E00E94821669
:1025B000811117C0CC23A9F0CA30B8F424E1C1308E
:1025C00039F0C93091F02C2F220F220F220F245FF7
:1025D0004AE050E0612F7D2F82E090E00E949C163F
:1025E000419ADF91CF911F9108952AE5F1CF089587
:1025F000399A41986BEB72E182E090E00C94B71647
:102600002091F8053091F9052F71821751F0209132
:10261000FE053091FF052F71821731F08FEF9FEF8C
:10262000089590E080E0089581E090E008959C0195
:1026300086E0829FF001839FF00D1124E850FA4F4D
:102640008081918190FF2AC080EC80937C0086E09D
:10265000829FF001839FF00D1124E850FA4F808192
:10266000918187FF05C080917C00806280937C000F
:1026700086E0829FF001839FF00D1124E850FA4F0D
:102680008081918190917C008F71892B80937C0057
:1026900080917A00806480937A00089580E4D5CF99
:1026A0001F920F920FB60F9211240BB60F922F9319
:1026B0003F934F935F936F937F938F939F93AF93CA
:1026C000BF93CF93DF93EF93FF9380917C008F7143
:1026D0000E940013EC0186E08C9FF0018D9FF00DAD
:1026E0001124E850FA4F8081918187FF67C0809163
:1026F00078009091790026E0969587952A95E1F7E4
:1027000026E02C9FF0012D9FF00D1124E850FA4F88
:102710002081318126FF22C022813381232B29F0A1
:102720000280F381E02D9370199586E08C9FF00173
:102730008D9FF00D1124E850FA4F84819581181671
:10274000190664F484819581019795838483892B8C
:1027500029F4808191818F7B91838083C230D10560
:1027600010F0D0E0C0E0CE0126E001968230910565
:1027700011F490E080E0289FF001299FF00D1124D2
:10278000E850FA4F4081518146FD1DC08C179D07CE
:1027900061F7FF91EF91DF91CF91BF91AF919F9141
:1027A0008F917F916F915F914F913F912F910F90FA
:1027B0000BBE0F900FBE0F901F9018958091780060
:1027C000909179009DCF97FDE4CF0E941713E1CF40
:1027D00064E274EF80E090E00895CF93C62F0E94EA
:1027E00000139C0180E037FD1FC086E0829FF0014E
:1027F000839FF00D1124E850FA4F80819181C1FF31
:1028000015C0806846E0429FF001439FF00D1124FF
:10281000E850FA4F9183808380819181C0FF08C086
:1028200091609183808381E0CF9108958F77EACF83
:102830009E7FF7CF0F931F93CF93DF938B01EA0116
:102840000E94001397FD2AC026E0289FF001299FCF
:10285000F00D1124E850FA4F2081318125FF1EC070
:1028600026FD1CC01016110614F00FEF1FEF46E0F6
:10287000489FF001499FF00D1124E850FA4F15834D
:102880000483D383C2832064318320830E9417137F
:1028900081E0DF91CF911F910F91089580E0F9CFF2
:1028A000EAE7F0E080E88083808187608083A8EF9A
:1028B000B5E080E290E011969C938E9382E290E0E6
:1028C00017969C938E93169780B38A7F80BB8081E6
:1028D0008860808350E040E061E070E082E00E9428
:1028E0001A148FEC97E00197F1F700C0000081E027
:1028F00008950E9400139C0197FD11C086E0829FFD
:10290000F001839FF00D1124E850FA4F80819181EE
:1029100026E0969587952A95E1F78170089580E0E5
:1029200008950E9400139C0197FD0DC086E0829FD0
:10293000F001839FF00D1124E850FA4F80819181BE
:102940008F7B91838083089580E00E94911482E0C0
:102950000E949114E8EFF5E0808191818F7D918351
:102960008083868197818F7D97838683EAE7F0E075
:102970008081877F808380818F7780830895E4E0E2
:10298000F6E08EE0DF011D928A95E9F7089547E0B1
:10299000489FF001499FF00D1124EC5FF94F8081B1
:1029A0009181892B51F47183608312821382148286
:1029B0001582168281E090E0089590E080E008950D
:1029C00047E0489F9001499F300D11242C5F394FFB
:1029D000F9012081318181E090E0232B11F490E016
:1029E00080E00895FC011182108208958091040610
:1029F00090910506892BD1F08091060690910706EB
:102A0000A0910806B09109060196A11DB11D809301
:102A1000060690930706A0930806B0930906E09176
:102A20000406F091050684E096E0199580910B0666
:102A300090910C06892BD1F080910D0690910E0695
:102A4000A0910F06B09110060196A11DB11D8093B3
:102A50000D0690930E06A0930F06B0931006E0911A
:102A60000B06F0910C068BE096E0199408950CB4D7
:102A700006FC08C084B1876084B923982B9A289AF1
:102A800080E58CBD81E090E008951CBC84B1887F16
:102A900084B985B1807F85B908959C018CB5837018
:102AA0009DB5492F417050E08230D1F08330D9F08C
:102AB000813099F082E090E0841B950B273031053E
:102AC00020F52530310568F52330310578F42115DE
:102AD000310521F58FEF9FEF089584E090E0ECCF72
:102AE00086E090E0E9CF87E090E0E6CF4CB54C7F00
:102AF00041604CBD34ED01C036952A95EAF730FDB2
:102B00000AC02DB521602DBD08952730310511F77C
:102B10002CB523602CBD2DB52E7FF5CF4CB54C7F49
:102B2000E8CF4CB54C7F4260E4CF8EBD0DB407FEBC
:102B3000FDCF8EB508950F931F938A019B01FC0171
:102B40008FEF8EBD0DB407FEFDCF9EB590838EBD79
:102B50000DB407FEFDCF9EB59183025011092109E6
:102B600031093296011511052105310551F71F91E3
:102B70000F9108950F931F93FC018A019B0101158A
:102B8000110521053105F1F0808101301105210584
:102B9000310521F41F910F910C94951580818EBD04
:102BA0000DB407FEFDCF81818EBD0DB407FEFDCFB4
:102BB000025011092109310932960115110521052B
:102BC000310561F71F910F910895AF92BF92DF9287
:102BD000EF92FF920F931F93CF93DF9302E116E0E2
:102BE000D0E0C0E08BE0D82E94E6E92EF12CDC9EFC
:102BF000F001DD9EF00D1124EE5EF94F8081918190
:102C0000A281B381892B8A2B8B2B19F18081918131
:102C1000A281B3810197A109B10980839183A28325
:102C2000B383892B8A2B8B2BA1F410821182128201
:102C3000138215821482D80117961C921E92169741
:102C40001996ED91FC91309721F061E070E0CE0192
:102C50001995F801668177816115710559F18085B3
:102C6000869F9001879F300D1124DC9EF001DD9E30
:102C7000F00D1124EE5EF94F8481958101960E943A
:102C8000334895838483A480B580C901B7010E942D
:102C90004748A616B70621F084819581892B51F407
:102CA000D8011996ED91FC91309721F062E070E027
:102CB000CE0119952196055F1F4FC330D10509F04C
:102CC00096CFDF91CF911F910F91FF90EF90DF9002
:102CD000BF90AF900895E2E1F6E081E2DF011D923E
:102CE0008A95E9F7089568EE73E080E090E0089532
:102CF0004BE0489F9001499F300D1124C9018E5E21
:102D0000994F08952BE0289FF001299FF00D112481
:102D1000EE5EF94F80819181A281B381892B8A2B4C
:102D20008B2B41F481E026813781232B09F480E04D
:102D30008170089581E0FCCF0F931F93DC01922FE7
:102D40008B0130E020E08BE08A9FF0018B9FF00D3B
:102D50001124EE5EF94F008311832283338357835E
:102D600046839087158214821F910F9108954BE03E
:102D7000489F9001499F300D11242E5E394FF90173
:102D80007287618708951F921FB61F9211242F9397
:102D90002BB72F933F934F938F939F93EF93FF9373
:102DA0002091C0003091C60080913B0690E00196D2
:102DB0008770992740913C0648171906B1F0287191
:102DC00080933B068D5C994FFC01308320933D0638
:102DD000FF91EF919F918F914F913F912F912BBF39
:102DE0002F911F901FBE1F90189522E0EFCF8F9359
:102DF0008FB78F938BB78F939F93EF93FF939091A0
:102E00004606809147069817B9F08091470690E0F2
:102E1000019687709927809347068D5C994FFC0136
:102E200083858093C600FF91EF919F918F918BBF17
:102E30008F918FBF8F9118958091C1008F7D809366
:102E4000C100F1CF0F931F938B019C011092C00022
:102E50001092C10040FF05C08091C1008061809345
:102E6000C10041FF05C08091C10088608093C1000E
:102E7000011584E8180783E02807310509F44EC0DE
:102E800020F5011586E918072105310509F44CC024
:102E9000011582EC180781E02807310509F442C0CA
:102EA000003815422105310509F440C086E08093C1
:102EB000C20010923B0610923C06109246061092F9
:102EC000470681E01F910F910895003281EA1807AB
:102ED00087E028073105D1F0003482E418078FE03D
:102EE0002807310549F00039104D23403105F1F62E
:102EF00081E08093C4000CC01092C4001092C50001
:102F00008091C00082608093C000D0CF1092C40036
:102F10001092C5008091C0008D7FF5CF83E0809333
:102F2000C400ECCF88E0FBCF8CE0E3CF83E3E1CFBC
:102F30002091460630E02F5F3F4F27703327909156
:102F4000470692171306D9F3F901ED5CF94F838711
:102F5000209346068091C10080628093C10008954D
:102F60000F931F93CF93DF93EC018C01060F111D7C
:102F7000C017D10729F4DF91CF911F910F910895C8
:102F800089910E949817F4CF8FB7F89420913B064F
:102F900090913C068FBF291303C080E091E0089513
:102FA00080913C0690E001968770992780933C06BB
:102FB0008D5C994FFC01808190913D0608959FB7EB
:102FC000F894E3E3F6E0808521859FBF90E00896C2
:102FD000821B910968E070E00E94474808958FB70E
:102FE000F894E3E3F6E0918590878FBF0895809190
:102FF000C100877E8093C1008091C00087FF089543
:103000008091C600F9CF88B1806F88B98FEF82B9FF
:1030100008950E940318E0914C06F0E0E058FB4F41
:10302000E49188B1E095E823E8B9E0914C06F0E03E
:10303000E85BF94F808192B18095892382B98091B4
:103040004C0690E001968370992780934C06089572
:103050000E9403188FEC97E00197F1F700C0000081
:10306000089581B18FEF81B987B1806F87B90C94D2
:1030700028188FEC97E00197F1F700C000000C943E
:10308000031881E090E00895E8E4F6E010821182F0
:10309000128213820895CF93DF93DC010D900020FC
:1030A000E9F711974A2F481BA817E9F01092480634
:1030B0001092490610924A0610924B06582FDC01D6
:1030C00080E09D918823A1F09E3281F4282F215029
:1030D000330BF901E85BF94F9081906890839A2F48
:1030E000951B941770F3DF91CF9108958430D8F732
:1030F000282F30E0FD013197E081F0E0EC57FB4FE5
:10310000E491285B394FE901E8838F5FE8CF9C01A8
:10311000FC01EF70FF27E150FB4FE491A8E4B6E01B
:103120001396EC931397FC0184E0F695E7958A9546
:10313000E1F7EF70FF27E150FB4FE4911296EC931B
:103140001297E32FFF27EF70FF27E150FB4FE49129
:103150001196EC931197F901EF2FFF27E295EF708D
:10316000E150FB4FE491EC938FEC97E00197F1F77E
:1031700000C000000895CF93DF93D62FC72F0E9481
:103180004B188D2F9C2F1816190614F081E090E033
:10319000019718F4DF91CF910895EFECF7E03197A4
:1031A000F1F700C00000F4CFEF92FF920F931F934E
:1031B000CF93DF9300D000D0CDB7DEB79B018A015B
:1031C000AB0155275F934F931F923F931F928F93AD
:1031D00084EF92E09F938F931F9286E08F93CE01AE
:1031E00001967C019F938F930E94064CB801C70102
:1031F0000E94BB180FB6F894DEBF0FBECDBF269657
:103200000FB6F894DEBF0FBECDBFDF91CF911F91F7
:103210000F91FF90EF9008950F931F93CF93DF933B
:1032200000D00F920F92CDB7DEB79C018E010F5FD9
:103230001F4F203187E23807A0F060E073E0C8013B
:103240000E94FF4B61E070E0C8010E94BB180F9024
:103250000F900F900F900F90DF91CF911F910F91D2
:1032600008953F932F9385E093E09F938F931F9250
:1032700085E08F931F930F930E94064C0FB6F8942E
:10328000DEBF0FBECDBFDECF61E070E0892B21F045
:103290008DEB92E00C94BB1888EB92E0FBCF0F9380
:1032A0001F93CF93DF9300D000D0CDB7DEB70E943D
:1032B00001078E010F5F1F4F8823A9F068EB72E0B2
:1032C000C8010E94FF4B61E070E0C8010E94BB187A
:1032D00026960FB6F894DEBF0FBECDBFDF91CF911B
:1032E0001F910F9108950E94CC06282F6CE370E087
:1032F0000E9433488CE3689F201911241F922F935A
:1033000077277F936F9389E093E09F938F931F922A
:1033100086E08F931F930F930E94064C0FB6F8948C
:10332000DEBF0FBECDBFCFCF811102C00C94D3380A
:1033300081E00895811102C00C940E3881E0089557
:103340000F931F93E82FCB01BA01A9019801E11156
:1033500004C01F910F910C94D63884E090E01F9127
:103360000F9108950F931F93E82FCB01BA01A90184
:103370009801E11104C01F910F910C942D3984E044
:1033800090E01F910F910895982F862FBA01911107
:1033900002C00C949B3984E090E008950C94153C95
:1033A000CF93DF9300D00F92CDB7DEB7FC01208121
:1033B000318142815381CA01B9010F900F900F9062
:1033C0000F90DF91CF910895CF93DF9300D00F92AC
:1033D000CDB7DEB7FC019A01AB012250310941099A
:1033E000510983899489A589B6890297A109B109F0
:1033F000281739074A075B0718F5A185B2850E948F
:10340000944869837A838B839C8387A190A5A1A527
:10341000B2A529813A814B815C81280F391F4A1F4F
:103420005B1F29833A834B835C8369817A818B811B
:103430009C810F900F900F900F90DF91CF91089586
:1034400019821A821B821C82F0CF0F931F93FB01FB
:10345000022F132F9A01138F028FDC018C9183307E
:1034600029F4890122273327048B158B1F910F9193
:103470000895CF93DF93DC01ED91FC911197309784
:1034800061F1CF01EC0128810196213270F12A33DC
:10349000C9F7208130ED320F3A30B8F043E153E004
:1034A000EA0128814F5F5F4F308131966FE9620FEB
:1034B0006A3108F420526FE9630F6A3108F4305220
:1034C000222371F0321761F308C0AF014E5F5F4FE6
:1034D0008417950719F7203331F08FEF9FEF07C05E
:1034E0008E179F07D1F78D939C9390E080E0DF913A
:1034F000CF9108950F931F93CF93DF93EC018B012E
:10350000892B61F489E090E030E020E0F80131831C
:103510002083DF91CF911F910F910895E881F98168
:10352000309781F38081882369F32A813B818581EB
:1035300096812817390731F781810E94941980FDFF
:10354000E1CF2881398190E080E0E0CF8F929F9297
:10355000AF92BF92CF92DF92EF92FF920F931F93A1
:10356000CF93DF93EC018B81811110C0F12CE12C02
:10357000C701DF91CF911F910F91FF90EF90DF90E6
:10358000CF90BF90AF909F908F9008956E014FE2C3
:10359000C40ED11C2BA53CA54DA55EA501E010E0F5
:1035A000B60189810E94B2197C01892B51F51B82D9
:1035B0000BA51CA52DA53EA58F89988DA98DBA8D2B
:1035C0008F8C98A0A9A0BAA0B901A80148195909DF
:1035D0006A097B094A015B0188169906AA06BB069F
:1035E00028F66A81623011F6A9019801280F391F67
:1035F0004A1F5B1F01E010E0B60189810E94B219E9
:10360000B7CFEE24E394F12CB3CFCF92DF92EF92B9
:10361000FF920F931F93CF93DF93EC016A017B011D
:103620008BA59CA5ADA5BEA530E020E08C159D0521
:10363000AE05BF05E9F0CE010E94A61A9C01892BB8
:10364000B9F401E010E0A7019601BE01615D7F4F72
:1036500089810E94A0199C01892B31F021E030E082
:10366000CC24CA94DC2C7601CBA6DCA6EDA6FEA663
:10367000C901DF91CF911F910F91FF90EF90DF90E3
:10368000CF900895EF92FF920F931F93CF93DF9304
:1036900000D000D0CDB7DEB78D839E83AD81BE81D3
:1036A00013961C928FEF9FEFDC01ED81FE8183A7C3
:1036B00094A7A5A7B6A7CF010E94051B8C01892B53
:1036C00009F073C0ED81FE81E35DFD4FE080F18084
:1036D000AD81BE819F968C918B3E21F0885E8230B9
:1036E00008F059C0B5E5EB16BAEAFB0669F448E004
:1036F00050E066E173E08D819E818F579F4F0E945D
:10370000BA4B892B09F453C0ED81FE8182AD93AD94
:103710008115924009F03FC0AD81BE81DC968C914D
:10372000DC978823C1F190E09C012150310982236C
:103730009323892B81F5DD968D919C91DE97892BC2
:1037400051F1DF968C91DF978150990B029718F514
:10375000FD01E05CFF4F80819181892BE1F0329681
:10376000808191818038910570F4CD01815B9F4FFC
:103770000E94D01969837A838B839C8361157105BC
:103780008140910540F0ED81FE81EB5BFF4F808130
:103790009181892B61F403E010E0F5E5EF16FAEA78
:1037A000FF0629F402E010E002C004E010E0C801C6
:1037B00026960FB6F894DEBF0FBECDBFDF91CF9136
:1037C0001F910F91FF90EF9008952F923F924F928B
:1037D0005F926F927F928F929F92AF92BF92CF92A1
:1037E000DF92EF92FF920F931F93CF93DF9300D05E
:1037F00000D0CDB7DEB75C016A017B012801390139
:1038000022E0C216D104E104F10408F403C1FC0172
:1038100083899489A589B689C816D906EA06FB0664
:1038200008F0FDC08081823009F49AC0833009F429
:10383000B6C0813009F0F8C08A0116950795040FCB
:10384000151FC801892F99278695478D50A161A121
:1038500072A1480F591F611D711DC5010E94051BF2
:103860008D839E832D813E81232B09F058C0150145
:103870003FE2230E311C48014FEF841A940A117065
:10388000F101E00FF11F842DA7019601217033276C
:103890004427552729833A834B835C83C0FE07C0A6
:1038A00080818F7040E1449E90011124822B80839F
:1038B00081E0D50113968C9313975F964D915D919E
:1038C0006D917C919297C401892F99278695480F15
:1038D000591F611D711DC5010E94051B8D839E83AB
:1038E000ED81FE81EF2BD9F4F1E09F22F101E80D8B
:1038F000F91D29813A814B815C81232B242B252BB7
:1039000049F1D301C20154E0B695A79597958795E3
:103910005A95D1F7808381E0D50113968C938D81E0
:103920009E8126960FB6F894DEBF0FBECDBFDF9105
:10393000CF911F910F91FF90EF90DF90CF90BF90AC
:10394000AF909F908F907F906F905F904F903F903F
:103950002F9008958081807F952D9F70892BDACFDD
:1039600077276F2D5E2D4D2D878D90A1A1A1B2A13E
:10397000480F591F6A1F7B1FC5010E94051B8D83BD
:103980009E832D813E81232B51F6F601EE0FFF1F02
:10399000EE7FF170EA0DFB1D10AB07A7BCCF878D42
:1039A00090A1A1A1B2A127E076956795579547957B
:1039B0002A95D1F7480F591F6A1F7B1FC5010E9426
:1039C000051B8D839E832D813E81232B09F0A7CF7C
:1039D0008501015D1F4FCC0CDD1CCC0CDD1C3CEFC8
:1039E000C32231E0D3220C0D1D1DC8010E94D01945
:1039F0004FE07422DC01CB0188279927AA27B07FEA
:103A000084299529A629B729F80180839183A28367
:103A1000B38381CFE2E0F0E0FE83ED8380CF22E04C
:103A200030E03E832D837BCF42E050E05E834D83C8
:103A300076CF8F929F92AF92BF92CF92DF92EF920A
:103A4000FF920F931F93CF93DF93EC015A016B0109
:103A50000E94A61A7C0181E0E114F10419F5A50188
:103A6000B601CE010E94E4194B015C018BA69CA615
:103A7000ADA6BEA66E012FE2C20ED11C80E092E080
:103A8000F6019C01119221503040E1F789859A8519
:103A9000E816F906A8F081E029853A852E153F053C
:103AA00009F480E090E0DF91CF911F910F91FF909A
:103AB000EF90DF90CF90BF90AF909F908F90089540
:103AC00001E010E0A50194012E0D3F1D411D511D87
:103AD000B60189810E94B219892BE9F63FEFE31AFA
:103AE000F30AD4CF2F923F924F925F926F927F92C0
:103AF0008F929F92AF92BF92CF92DF92EF92FF92FE
:103B00000F931F93CF93DF93CDB7DEB7A8970FB670
:103B1000F894DEBF0FBECDBF5B01F42EDB011D921A
:103B20001C920E94391A6C0197FD86C2FC01EE0FAF
:103B3000FF1FE15BF94F008111810115110509F4A7
:103B40007FC2F50111830083E894F0F8D8018C91CD
:103B5000882341F111968C910E94941980FD22C016
:103B6000FF2009F471C282FF6FC20AE0A02EB12CBF
:103B7000C501A8960FB6F894DEBF0FBECDBFDF918A
:103B8000CF911F910F91FF90EF90DF90CF90BF905A
:103B9000AF909F908F907F906F905F904F903F90ED
:103BA0002F900895F8011082C1828C2D0E949A19DD
:103BB00023E0A22EB12C80FDDBCFFF2011F082FD8F
:103BC000D4CF40E050E0BA01C8010E94421B8230CD
:103BD000910509F0F8C16801FBE0CF1AFEEFDF0A9A
:103BE0009E012F5F3F4F790148013BEC831A3DEF67
:103BF000930A5701C6010E94D019698B7A8B8B8B6F
:103C00009C8BD5016D937D938D939D935D01B0E168
:103C1000CB0ED11CC814D90469F76701E0E1CE0EC0
:103C2000D11CD7014D915D916D917D917D0123E076
:103C300030E0411551056105710509F4B9C1C801AC
:103C40000E94421B9C01029708F0B2C1D8019B96CA
:103C50002D913D914D915C919E97298F3A8F4B8F7D
:103C60005C8FDA968D919C918115924009F0B1C1DB
:103C7000F801EB5BFF4F808191819C0150E040E0B7
:103C8000298B3A8B4B8B5C8B892B49F4C8018D5A5D
:103C90009F4F0E94D019698B7A8B8B8B9C8B898963
:103CA0009A89AB89BC89F801878B908FA18FB28FDD
:103CB00087AC82828FEF880D823008F08AC144ACD5
:103CC000842D90E092878187009709F482C19C013E
:103CD0002150310982239323892B09F07AC1E05CBA
:103CE000FF4F20803180D80118963C922E92179772
:103CF0005101BFE0AB22BB24A114B10409F069C19A
:103D00003296808191816C01F12CE12C892B39F460
:103D1000C801815B9F4F0E94D0196B017C01D801C3
:103D2000DD96ED91FC91309709F453C1A82DB0E0D8
:103D300029893A894B895C890E9494486DA37EA3A6
:103D40008FA398A79F0150E040E02D8F3E8F4F8FAB
:103D500058A3C101B4E096958795BA95E1F7280F6D
:103D6000391F411D511DDA01C9012DA13EA14FA1ED
:103D700058A5280F391F4A1F5B1F2D8B3E8B4F8B79
:103D8000588FC216D306E406F50608F422C1D701FF
:103D9000C601821B930BA40BB50B89A39AA3ABA3FB
:103DA000BCA3512C712C612CBC01CD01A30192014B
:103DB0000E945B4889A19AA1ABA1BCA1841595057D
:103DC000A605B70508F405C1263F9FEF3907490747
:103DD0009FE0590708F0FDC0A3E08A2E912C263FF2
:103DE000AFEF3A074105510560F488248394912C84
:103DF000263FBFE03B074105510518F0F2E08F2E4A
:103E0000912C69017A01B2E0CB0ED11CE11CF11CAE
:103E1000F801C38AD48AE58AF68A298D3A8D4B8DBA
:103E20005C8D238F348F458F568F4D8C5E8C6F8CBD
:103E300078A0420E531E641E751E478E50A261A2CA
:103E400072A2DA01C9012D893E894F89588D820FEE
:103E5000931FA41FB51F87A390A7A1A7B2A7F3E044
:103E60008F16910409F0B9C0F801E75AFF4F80811D
:103E7000918182299329892B09F0ABC0C801855A09
:103E80009F4F0E94D0192B013C01D701C601E2E0EF
:103E9000880F991FAA1FBB1FEA95D1F7F80143A20B
:103EA00054A265A276A26C017D01FFEFCF0EF1E076
:103EB000DF1EE11CF11C59E0F694E794D794C794F7
:103EC0005A95D1F729893A894B895C892C153D058A
:103ED0004E055F0508F47DC08FEF9FEFDC01F80110
:103EE0008787908BA18BB28B83879487A587B687B2
:103EF00080E88483F3E08F16910409F049C0F8014B
:103F0000E15AFF4F80819181019709F041C0498DAD
:103F10005A8D6B8D7C8D4F5F5F4F6F4F7F4FC80108
:103F20000E94051B892BA1F5D80114961C92F8015B
:103F3000E35DFD4F8081918185359A4A49F5C8013D
:103F40008F960E94D019623572458146914401F5E1
:103F5000C8018D5E9D4F0E94D0196237724781441F
:103F60009146B1F4C801895E9D4F0E94D019D801D5
:103F70001F966D937D938D939C935297C801855E98
:103F80009D4F0E94D019F8016387748785879687B3
:103F9000D8018C9280914D0690914E060196909397
:103FA0004E0680934D0616969C938E931597E0CD02
:103FB000CE14DF0409F035CE2430310551F4AA24A3
:103FC000A394B12CD5CD84309105C9F3029708F4A0
:103FD0003DCE1DE0A12EB12CCBCD2328D1F32DA1B8
:103FE0003EA14FA158A5420E531E641E751E32E01D
:103FF0008316910439F4D701C601880F991FAA1FAF
:10400000BB1F4CCFA3E0B0E0A70196010E949448EB
:104010006D8B7E8B8F8B988FDC01CB01B695A7952E
:104020009795879541E0C422DD24EE24FF248C0D72
:104030009D1DAE1DBF1D32CF4BE0A42EB12C98CDDF
:104040003CE0A32EB12C94CDB12CA12C91CD0F939B
:104050001F93CF93DF938C01EB01FC0190E080E094
:1040600030E020E05EE22F5F3F4F4191403291F01F
:10407000453009F445EE2930310531F4DE01A80F51
:10408000B91F19965C930196DE01A80FB91F199606
:104090004C9301962B30310531F78C0F9D1FDC01BD
:1040A00019961C92F80183858F738887C8014C96F6
:1040B0000E94D019688379838A839B83D80156969E
:1040C0008D919C9157979F838E8358968D919C914B
:1040D0009D838C83DF91CF911F910F9108950F9352
:1040E0001F93282FFB01628D738D90E080E02330B9
:1040F00059F40489158930E020E098011127002740
:10410000602B712B822B932B1F910F910895AF92EF
:10411000BF92CF92DF92EF92FF920F931F93CF93B4
:10412000DF9300D00F92CDB7DEB78C016A017B011F
:1041300082E0C816D104E104F10408F4B1C0F8012A
:1041400083899489A589B689C816D906EA06FB062B
:1041500008F0A6C08081823009F462C0833009F47F
:104160007BC0813009F09CC0CA0196958795840F69
:10417000951F9A838983892F99278695478D50A10A
:1041800061A172A1480F591F611D711DC8010E94D4
:10419000051B892B91F06FEF7FEFCB010F900F90F4
:1041A0000F900F90DF91CF911F910F91FF90EF90A3
:1041B000DF90CF90BF90AF900895A980BA809FEF15
:1041C000A91AB90AE981FA81F170E00FF11FF7A588
:1041D000F983C501892F99278695F801478D50A14C
:1041E00061A172A1480F591F611D711DC8010E9474
:1041F000051B892B81F6F1E0BF22F801EA0DFB1DBA
:1042000087A59981782F692FC0FE08C0E4E07695D4
:104210006795EA95E1F790E080E0C0CF7F70FBCF33
:1042200077276F2D5E2D4D2D878D90A1A1A1B2A175
:10423000480F591F6A1F7B1FC8010E94051B892B4D
:1042400009F0A9CFF601EE0FFF1FEE7FF170E00F2E
:10425000F11F67A570A9DFCF878D90A1A1A1B2A1A1
:1042600037E076956795579547953A95D1F7480F7A
:10427000591F6A1F7B1FC8010E94051B892B09F06B
:104280008ACF015D1F4FC601880F991F880F991FA4
:104290008C7F9170800F911F0E94D0199F707ECFEC
:1042A00061E070E080E090E079CF8F929F92AF92D2
:1042B000BF92CF92DF92EF92FF920F931F93CF9313
:1042C000DF93EC016A017B01A801B90182E0C81605
:1042D000D104E104F10408F471C08B899C89AD8993
:1042E000BE89C816D906EA06FB0608F067C0411564
:1042F00051056105710549F00FEF1FEF9801CE01DF
:104300000E94E51B9C01892B81F446015701B701EE
:10431000A601CE010E9487206B017C01C114D1044B
:10432000E104F10481F430E020E0C901DF91CF9194
:104330001F910F91FF90EF90DF90CF90BF90AF90C3
:104340009F908F90089581E0C816D104E104F10494
:10435000A9F18FEFC816D806E806F80691F100E03B
:1043600010E09801A401B501CE010E94E51B9C015B
:10437000892BD9F68F859889A989BA894B895C8957
:104380006D897E898A019B01025011092109310939
:1043900080179107A207B30750F40196A11DB11D24
:1043A0008F87988BA98BBA8B8C8181608C83C41684
:1043B000D506E606F70608F4A8CFB5CF22E030E030
:1043C000B4CF21E030E0B1CF4F925F926F927F92F5
:1043D0008F929F92AF92BF92CF92DF92EF92FF9215
:1043E0000F931F93CF93DF93EC014A015B0181147C
:1043F0009104A104B104B9F44B845C846D847E847F
:10440000411451046104710449F08B899C89AD8980
:10441000BE89481659066A067B06C0F1412C512C0C
:104420003201439433C00E9487206B017C0122E05B
:10443000C216D104E104F104B8F4C12CD12C7601E8
:10444000C394C701B601DF91CF911F910F91FF90E7
:10445000EF90DF90CF90BF90AF909F908F907F9024
:104460006F905F904F9008958FEFC816D806E806BA
:10447000F80609F4D8C08B899C89AD89BE892401CE
:104480003501C816D906EA06FB06D8F28F85988949
:10449000A989BA89892B8A2B8B2B21F4C12CD12C89
:1044A0007601CFCF8B899C89AD89BE898414950410
:1044B000A604B70409F03FC0750164012FEFC21ACA
:1044C000D20AE20AF20AC816D906EA06FB0628F062
:1044D00022E0C22ED12CE12CF12CB701A601CE0195
:1044E0000E948720462F572FBC014130510561059E
:1044F000710509F4A2CF4F3F8FEF5807680778077F
:1045000009F491C0452B462B472B09F44FC08B85EE
:104510009C85AD85BE8582309105A105B10558F019
:104520004B895C896D897E8984179507A607B70733
:1045300010F42C013D01730162012FEFC21AD20A5F
:10454000E20AF20A8B899C89AD89BE89C816D90610
:10455000EA06FB0660F081E048165104610471042C
:1045600009F49CCF92E0C92ED12CE12CF12CB7019B
:10457000A601CE010E948720462F572FBC0141156E
:10458000510561057105C1F04130510561057105A5
:1045900009F453CF4F3F5F4F6F4F7F4F09F443C034
:1045A0004C145D046E047F0441F678CFC114D1042D
:1045B000E104F10409F4BFCF0FEF1FEF9801B70139
:1045C000A601CE010E94E51B9C01892B41F58114B7
:1045D0009104A104B104C9F4CB86DC86ED86FE8685
:1045E0008F859889A989BA894B895C896D897E896B
:1045F0004250510961097109481759076A077B0739
:10460000B8F48C8181608C831CCF97018601B50141
:10461000A401CE010E94E51B9C01892BE9F2213007
:10462000310509F00ACFCC24CA94DC2C760109CFDD
:104630000197A109B1098F87988BA98BBA8BE1CF1C
:104640008F929F92AF92BF92CF92DF92EF92FF92A2
:104650000F931F93CF93DF938C01FC01C081D18115
:1046600016861786108A118AC680D780E084F18466
:10467000C114D104E104F104A9F58881833040F02C
:104680008BA19CA1ADA1BEA10097A105B10561F5CB
:104690008F819885892B79F482E090E0DF91CF912A
:1046A0001F910F91FF90EF90DF90CF90BF90AF9050
:1046B0009F908F9008954BA15CA16DA17EA1F80100
:1046C000468B578B608F718FC28AD38AE48AF58AB2
:1046D000452B462B472B01F3AF96D38FC28F90E02B
:1046E00080E0DCCFD701C60189849A84B12CA12C4B
:1046F00029E0880C991CAA1CBB1C2A95D1F76C01D7
:104700007D01B701A60181149104A104B10439F01F
:10471000CE010E94E419462F572FBC01D0CFF801DB
:10472000808191810E9487206B017C01FFEFCF1671
:10473000DF06EF06FF0689F082E0C816D104E10427
:10474000F10408F4A9CF8B899C89AD89BE89C8166C
:10475000D906EA06FB06A8F29FCF81E090E09ECF43
:104760004F925F926F927F92AF92BF92CF92DF9201
:10477000EF92FF920F931F93CF93DF93EC015B01B6
:10478000088119814E845F846888798880E2480EA8
:10479000511C611C711C4114510490E269067104A2
:1047A00020F01E8A1F8A188E198E8E899F89A88DE7
:1047B000B98D0097A105B10599F1B301A20151701E
:1047C00066277727452B462B472B09F0A7C0019674
:1047D000A11DB11D8E8B9F8BA88FB98F4A895B89D4
:1047E0006C897D894115510561057105E1F4D80198
:1047F00017968D919C91B0E0A0E0B301A20135E045
:1048000076956795579547953A95D1F74817590783
:104810006A077B0708F482C01E8A1F8A188E198EC9
:1048200084E090E025C0F801818592850197B0E091
:10483000A0E07301620129E0F694E794D794C7944D
:104840002A95D1F78C219D21AE21BF21892B8A2B5E
:104850008B2B09F063C0C8010E9487206B017C018B
:10486000F2E0CF16D104E104F10488F482E090E094
:10487000DF91CF911F910F91FF90EF90DF90CF903C
:10488000BF90AF907F906F905F904F9008958FEFA3
:10489000C816D806E806F80619F481E090E0E8CFDB
:1048A000F80183899489A589B689C816D906EA06CC
:1048B000FB0638F1AB2809F4AFCF4A895B896C89D4
:1048C0007D89888199810E94E4216B017C0187E0C8
:1048D00090E0C114D104E104F10451F2F1E0CF16EB
:1048E000D104E104F10411F28FEFC816D806E806EE
:1048F000F80699F2B701A601C8010E94191D892B7B
:1049000061F6CA8ADB8AEC8AFD8AB701A601C80172
:104910000E94E4196E8B7F8B888F998F4E865F86FD
:10492000688A798A015D1F4F91E05922040D151D97
:104930001B8F0A8F90E080E09BCF2F923F924F9287
:104940005F926F927F928F929F92AF92BF92CF921F
:10495000DF92EF92FF920F931F93CF93DF9300D0DC
:1049600000D00F920F92CDB7DEB78B839C83AB81C3
:10497000BC814D905C90FB016F0181918F32E1F31E
:104980008C35D1F3EB81FC8116821782108611865B
:10499000D6018C91803208F489C05F01BCE1AB0E76
:1049A000B11C25E0222EF201BF96FA83E9834BE089
:1049B00050E060E270E0C5010E94E24B360100E089
:1049C00010E0912C812C98E0E92EF12CBFEF8B1A8E
:1049D0009B0AF30131903F01F0E2F31580F48FE27E
:1049E000381619F09CE5391286C0F601E80DF91D5C
:1049F00080818F3209F47BC08C3509F478C0C80CF3
:104A0000D91C012B09F4E7C0AB81BC815C968C9169
:104A10005C97853E11F45C962C92B0E284E0B3156D
:104A200040F481E0F6019081913208F080E0880F37
:104A3000880FAB81BC8197968C939797ED90FC90F3
:104A40001197CD010E9420238C01892B09F07BC096
:104A5000EB81FC8146895789608D718DC7010E9469
:104A6000051B8C01892B09F06EC0AB81BC815A9665
:104A7000ED91FC915B978081882309F462C0838566
:104A80008F7314968C93838583FD09C04BE050E0AF
:104A9000B501CF010E94BA4B892B09F454C060E0E4
:104AA00070E08B819C810E94B023CECF80E8AB81E7
:104AB000BC8197968C939797CD0128960FB6F89462
:104AC000DEBF0FBECDBFDF91CF911F910F91FF9041
:104AD000EF90DF90CF90BF90AF909F908F907F909E
:104AE0006F905F904F903F902F900C942023AFEFEA
:104AF0008A1A9A0A7ACFBEE23B1609F46FC00E15E5
:104B00001F0508F068C037FE06C0E32DEF77F0E020
:104B1000EB5FFD4F3080632D70E08FE193E00E94EA
:104B2000F44B892B09F057C08FE9830D8A3110F4BB
:104B3000E0EE3E0EF501E00FF11F30820F5F1F4FD8
:104B400045CF04E010E0EB81FC8187A10115110540
:104B5000F9F00430110511F482FF3AC0C80128961B
:104B60000FB6F894DEBF0FBECDBFDF91CF911F917E
:104B70000F91FF90EF90DF90CF90BF90AF909F90FC
:104B80008F907F906F905F904F903F902F900895FF
:104B900082FDE4CFAB81BC8114968C91149784FF85
:104BA00017C01E966D917C917170E981FA816E0F2C
:104BB0007F1FD2018C910E946F206D837E838F8333
:104BC0009887EB81FC816683778380879187EFCE1E
:104BD00005E010E0C3CF06E010E0C0CFFBE0EF1629
:104BE000F104C9F308E010E08BE0E82EEECE0F935D
:104BF0001F93CF93DF93EC010881198124E030E00B
:104C00004E895F89688D798D411551056105710562
:104C100021F421153105C1F027C0C8010E94051BF0
:104C20009C01892B09F5EA8DFB8D9081992309F16F
:104C300083858F738C83953E79F09E3269F08F3037
:104C400059F08F71883041F030E020E0C901DF91E8
:104C5000CF911F910F91089570E060E0CE010E9406
:104C6000B0239C01892B61F21E8A1F8A188E198E2F
:104C7000EDCF24E030E0F8CF0F931F93CF93DF9375
:104C8000EC01088119810E9420239C01892BD1F518
:104C90004E895F89688D798DC8010E94051B9C0132
:104CA000892B81F5EA8DFB8D8081853E19F54E8932
:104CB0005F89688D798DC8010E94051B9C01892B35
:104CC00099F4EA8DFB8D80E2DF011D928A95E9F768
:104CD000AA8DBB8DFE017C968BE001900D928A958A
:104CE000E1F781E0F8018383C901DF91CF911F9142
:104CF0000F9108958823D9F261E070E0CE010E94FF
:104D0000B023C3CF2430310579F727E030E0ECCF72
:104D10000F931F93CF93DF93EC010E94A61A009785
:104D200009F05BC08881833009F04BC08C818130F1
:104D300009F047C080E092E0BE01615D7F4FFB015A
:104D40009C01119221503040E1F785E5FE01E35DC1
:104D5000FD4F80838AEA3196808382E58FA788ABF6
:104D600081E689AB91E49AAB22E77B972083319669
:104D7000208331969083319680838F859889A98985
:104D8000BA89319680839183A283B3838B859C8576
:104D9000AD85BE85349680839183A283B3832B8DAA
:104DA0003C8D4D8D5E8D2F5F3F4F4F4F5F4F2BA73B
:104DB0003CA74DA75EA701E010E089810E94B219CF
:104DC0001C8250E040E060E089810E94C41921E02B
:104DD000892B09F420E0822F90E0DF91CF911F9181
:104DE0000F9108951F93CF93DF9300D000D0CDB7DC
:104DF000DEB79C838B837E836D83142F7A836983D4
:104E0000CE0101960E94391A9C0197FD2AC0220FFB
:104E1000331FF901E15BF94F0190F081E02D3097EC
:104E200009F01082EB81FC81309709F01082215B40
:104E3000394FD901ED93FC9380E0112399F040E0C4
:104E4000BE016D5F7F4FCE0105960E94721D2696B2
:104E50000FB6F894DEBF0FBECDBFDF91CF911F918B
:104E600008958BE090E0F3CF2F923F924F925F92A4
:104E70006F927F928F929F92AF92BF92CF92DF926A
:104E8000EF92FF920F931F93CF93DF93CDB7DEB7CF
:104E9000E0970FB6F894DEBF0FBECDBF7C017CA7B4
:104EA0006BA7B42E09E010E0892B09F4E4C0242F8D
:104EB0002F73322E422FBE01675D7F4FCE018B963E
:104EC0000E94721D8C01892B41F5C9A4DAA4DA82F3
:104ED000C9826BA57CA5AE014F5F5F4F4A01CA0135
:104EE0000E949D248C01C4010115110529F428A5F7
:104EF00027FF02C006E010E02B2D2C7109F4D5C06D
:104F00000115110571F00430110539F40E943C2699
:104F10008C01689433F8892B61F0D7011D921C92A3
:104F2000AAC08D81817109F0CBC0B2FC4DC1B3FE26
:104F300058C0EB8DFC8D1686178691E2908B84E528
:104F4000818BEB8DFC8D168A178A908F818F0B8D4C
:104F50001C8DB801D6018C910E946F204B015C0121
:104F600080E2F8018387EB8DFC8D128E138ED601C3
:104F70008C91833011F4148A158AEB8DFC8D148E7C
:104F8000158E168E178E81E0F601838381149104AD
:104F9000A104B10431F143A454A465A476A400E0B3
:104FA00010E09801B501A40189819A810E945521E0
:104FB0008C01892B09F0B1CFB301A201C6010E9477
:104FC000051B8C01F1E08F1A9108A108B108D601E8
:104FD0001B968D929D92AD92BC921E97892B09F0E3
:104FE0009CCF33FE02C0689436F8F60183A594A5E1
:104FF000A5A5B6A5F701848F958FA68FB78F0B8DCA
:105000001C8D11A300A3B801D6018C910E946F20C2
:105010004B015C01F70186829782A086B186C801A8
:105020004C960E94D0192B013C01D7011A964D9243
:105030005D926D927C921D971196DC92CE92F60154
:105040008581968113969C938E9312971E963C921F
:105050001E971F961C921F9758961D921D921D9287
:105060001C925B97F701108A118A128A138A35FC09
:105070002AC010E000E0C801E0960FB6F894DEBF49
:105080000FBECDBFDF91CF911F910F91FF90EF9099
:10509000DF90CF90BF90AF909F908F907F906F9058
:1050A0005F904F903F902F9008950115110509F0E2
:1050B00034CF8D8184FD8BC0B1FE93CF80FF91CF23
:1050C00007E010E02ACF411451046104710489F211
:1050D00050964D925D926D927C925397F601818528
:1050E0009285B0E0A0E09C01AD0199E0220F331F52
:1050F000441F551F9A95D1F72DA73EA74FA758AB30
:105100008DA59EA5AFA5B8A984159505A605B705DB
:10511000B8F110E000E0D70154968D929D92AD92C7
:10512000BC9257970115110509F0F7CED301C201C2
:105130009170AA27BB27892B8A2B8B2B09F499CF37
:10514000B501A401C6010E94E419462F572FBC01E6
:105150004115510561057105E9F11201230189E04D
:1051600056944794379427948A95D1F7420D531D4E
:10517000641D751DF701408F518F628F738F7BCF38
:10518000B501A401D7018D919C910E9487204B010C
:105190005C012DA53EA54FA558A9421A530A640AE1
:1051A000750A32E083169104A104B10450F04FEF68
:1051B00084169406A406B40609F0A2CF01E010E01C
:1051C000AACF02E010E0A7CF08E010E0A6CE04E0EE
:1051D00010E0A3CE02E010E0A0CE2F923F924F92BB
:1051E0005F926F927F928F929F92AF92BF92CF9277
:1051F000DF92EF92FF920F931F93CF93DF9300D034
:105200000F92CDB7DEB77C013B018A012B833C8333
:10521000EB81FC8111821082BE016F5F7F4F0E9483
:105220007A1A6C01892B09F05CC0F7018785C82EBA
:10523000D12C811156C0868580FF27C18285938538
:10524000A485B5854089518962897389841B950B32
:10525000A60BB70BA80170E060E084179507A607BE
:10526000B70708F48C016801C114D104D1F1F7012A
:1052700080899189A289B389AC01BD0151706627EB
:105280007727452B462B472B09F0D7C089809A807A
:10529000F4012185328521503109AC01BD01E9E0DD
:1052A0007695679557954795EA95D1F78901042337
:1052B00015230115110509F04AC0F701892B8A2B26
:1052C0008B2B39F5468157816085718542305105B8
:1052D0006105710550F582E0F701878772E0C72EFE
:1052E000D12CC6010F900F900F900F90DF91CF91AE
:1052F0001F910F91FF90EF90DF90CF90BF90AF90F4
:105300009F908F907F906F905F904F903F902F90E5
:1053100008954489558966897789808191810E94A1
:105320008720462F572FBC01D1CF4F3FFFEF5F079C
:105330006F077F0739F481E0F7018787CC24C39496
:10534000D12CCFCFF701448B558B668B778BF70130
:105350004489558966897789C4010E94E4191B0133
:105360002C01211431044104510409F4B4CF200E5E
:10537000311E411C511CC114F2E0DF0608F458C074
:105380005601AB2CBB24A694F4018185928598012B
:105390002A0D3B1D8217930718F45C01A01AB10A6D
:1053A0008501A2019101B301F40181810E94A0193C
:1053B000892B09F6F40183818823E9F083A594A55C
:1053C000A5A5B6A582199309A409B509A50170E0A0
:1053D00060E084179507A607B70768F4DC01BA2FC9
:1053E000AA27BB0FA60DB71DBF9680E092E00190E3
:1053F0000D920197E1F7BA2CAA24BB0CCA18DB085E
:10540000EB81FC81808191818A0D9B1D918380833A
:105410006A0C7B1CF70180899189A289B3898A0D66
:105420009B1DA11DB11D808B918BA28BB38B1CCFBB
:10543000F701208E318E428E538EF701808991893B
:105440009170A12C22E0B22EA81AB90ACA14DB046A
:1054500008F4560109811A81F701408D518D628D42
:10546000738DC8010E94051B892B09F064CFB80118
:10547000615D7F4FF701808991899170680F791F75
:10548000A501C3010E94C74BB9CF87E0C82ED12C1C
:1054900028CF2F923F924F925F926F927F928F927E
:1054A0009F92AF92BF92CF92DF92EF92FF920F93B3
:1054B0001F93CF93DF9300D000D0CDB7DEB77C0130
:1054C0003B016A012D833E83ED81FE8111821082B2
:1054D000BE016F5F7F4F0E947A1A8B839C832B8162
:1054E0003C81232B09F068C0F7018785282F30E025
:1054F0003C832B83811160C0868581FF88C18089B0
:105500009189A289B389AC01BD014C0D5D1D611D5E
:10551000711D481759076A077B0718F46C01C0947E
:10552000D094C114D10409F443C0F7018089918952
:10553000A289B389AC01BD01517066277727452B3D
:10554000462B472B09F039C1A980BA80F501218586
:10555000328521503109AC01BD01E9E076956795AE
:1055600057954795EA95D1F789010423152301152D
:10557000110509F06BC0F701892B8A2B8B2BB9F52C
:105580004681578160857185411551056105710519
:1055900099F540E050E0BA01808191810E94E421B8
:1055A000462F572FBC01411551056105710521F5A5
:1055B000F7018685806486878B819C8126960FB64D
:1055C000F894DEBF0FBECDBFDF91CF911F910F9139
:1055D000FF90EF90DF90CF90BF90AF909F908F9013
:1055E0007F906F905F904F903F902F9008954489E7
:1055F000558966897789D0CF41305105610571059C
:1056000041F482E0F701878722E030E03C832B837E
:10561000D3CF4F3F3FEF53076307730731F481E068
:10562000F701878721E030E0F1CFF701448B558BFC
:10563000668B778B86819781A085B185892B8A2B94
:105640008B2B21F44683578360877187F50143A52F
:1056500054A565A576A5F701808D918DA28DB38D9A
:10566000481759076A077B0729F4C5010E94A61A43
:10567000892BA9F6F7014489558966897789C5017F
:105680000E94E4191B012C0121143104410451042E
:1056900009F4B7CF200E311E411C511CC114F2E099
:1056A000DF0608F46CC04601892C99248694F50124
:1056B000818592859801280D391D8217930718F46A
:1056C0004C01801A910A8401A2019101B301F501F4
:1056D00081810E94B219892B09F0A1CFF50183A520
:1056E00094A5A5A5B6A582199309A409B509A40195
:1056F00070E060E084179507A607B70790F495015E
:10570000215D3F4FFC01FE2FEE27FF0FE60DF71D39
:1057100080E092E0D90101900D920197E1F7F50147
:1057200013828401102F0027110FC01AD10AED81B6
:10573000FE8180819181800F911F91838083600E13
:10574000711EF70180899189A289B389800F911F09
:10575000A11DB11D808B918BA28BB38B428553858C
:1057600064857585481759076A077B0710F4AC01F3
:10577000BD01F7014287538764877587D2CEF70151
:10578000408951896289738982859385A485B5850D
:10579000481759076A077B0758F0C5010E94A61AE7
:1057A000892B09F03CCFF50123A634A645A656A6C1
:1057B000F701208E318E428E538EF70180899189B8
:1057C000917000E012E0081B190BC016D10608F416
:1057D0008601A980BA80F701408D518D628D738D4D
:1057E000C5010E94051B892B09F019CF9501215D88
:1057F0003F4FF701808991899170A801B301820F11
:10580000931F0E94C74B21E0F50123838ECF27E031
:1058100030E0FCCECF92DF92EF92FF920F931F9376
:10582000CF93DF930F920F92CDB7DEB78C01FC01BF
:105830008281938197FD30C0C480D5807C01FFEFC9
:10584000EF1AFF0A800F911FFC016683FCE3EF163D
:10585000F104CCF09E012F5F3F4FA701B8016A5FB2
:105860007F4FF801808191810E94492A81E090E078
:1058700029813A812E153F0511F490E080E0EE2455
:10588000FF24E81AF90AF801F382E282FFEFCF1A47
:10589000DF0AF801D582C4820F900F90DF91CF917B
:1058A0001F910F91FF90EF90DF90CF9008950F938D
:1058B0001F93CF93DF930F920F92CDB7DEB78C017A
:1058C000FC014281538157FF09C08FEF9FEF0F907A
:1058D0000F90DF91CF911F910F9108959E012F5F3F
:1058E0003F4FBC016A5F7F4F808191810E94492AAE
:1058F000892B59F7F8012281338189819A812817F0
:10590000390719F784819581E2CFCF92DF92EF9228
:10591000FF920F931F93CF93DF930F920F92CDB708
:10592000DEB78C01BE016F5F7F4F0E947A1A9C0127
:10593000892BF1F5F801868586FF3AC0C980DA80A7
:10594000448D558D668D778DC6010E94051B9C0187
:10595000892B71F5F801E0A0F1A0F7018385806241
:105960008387F8012681378140855185B701808181
:1059700091810E94251AF80182859385A485B585B9
:10598000F701848F958FA68FB78F168A178A81E2C9
:10599000808F84E5818F128A138A81E0F6018383E8
:1059A000C6010E9488269C01F80186858F7B868728
:1059B000C9010F900F90DF91CF911F910F91FF9030
:1059C000EF90DF90CF9008950F931F93CF93DF93C5
:1059D0000F920F92CDB7DEB78C010E94852C9C01EF
:1059E000892B61F4BE016F5F7F4FC8010E947A1A54
:1059F0009C01892B19F4F80111821082C9010F90C2
:105A00000F90DF91CF911F910F9108954F925F9268
:105A10006F927F928F929F92AF92BF92CF92DF92BE
:105A2000EF92FF920F931F93CF93DF9300D000D09C
:105A300000D00F92CDB7DEB78C016A017B01BE01A9
:105A40006F5F7F4F0E947A1A5C01892B09F018C1A1
:105A5000D8011F968C911F97A82EB12C811110C1CF
:105A60001A968D919D910D90BC91A02D8C159D0540
:105A7000AE05BF0530F4F801268521FD02C06C019A
:105A80007D01F80180899189A289B389108A118AE0
:105A9000128A138AC114D104E104F10481F5C12CE6
:105AA000D12C7601F80180899189A289B389428538
:105AB000538564857585481759076A077B0738F44D
:105AC00082879387A487B58726852064268791706F
:105AD000AA27BB27892B8A2B8B2B09F4D1C0F8016D
