:100000000C94EC0B0C9400490C940C490C94170CB8
:100010000C94170C0C94170C0C94170C0C94170CD4
:100020000C94170C0C94170C0C94170C0C94170CC4
:100030000C94170C0C94631A0C94170C0C94170C5A
:100040000C94170C0C94170C0C94170C0C94170CA4
:100050000C94170C0C94170C0C94170C0C94170C94
:100060000C94170C0C94B3220C94E7220C94170CEC
:100070000C94170C0C948B200C94170C0C94170CEC
:100080000C94170C0C94170C0C94170C0C94170C64
:100090000C94170C0C94170C0C94170C0C94170C54
:1000A0000C94170C0C94170C0C94E04D0C94170C3A
:1000B0000C94170C0C94170C0C94170C0C94170C34
:1000C0000C94170C0C94170C0C94170C6364696E49
:1000D0006F70737578585B000201434C5345000004
:1000E000000000000000A4169C16AC1700000000E1
:1000F000005574534500000000000000003E169AB1
:100100001642160000000000456E53450000000036
:100110000000000000000000000000008F020A4301
:100120004F7472000000000000000039160000004B
:100130000000000000004849747200000000000048
:100140000000E3149A16AC120000000000642D2594
:100150002E3269000000000002DC149A16FD150D15
:100160001000000064752D256900000000000001EA
:100170005D1700005F17301000000055502D2569F5
:1001800000000000000001081700000A17501000CE
:100190000000414C2D25690000000000000175148D
:1001A0000000EC16170F00000046722D25690000B4
:1001B000000000000179140000C615701000000056
:1001C0004F642D2569000000000000017E1400002E
:1001D0008F15921000000062722D2569000000004A
:1001E000000001831400005815B5100000004C45B4
:1001F0002D25690000000000000188140000211571
:10020000D810000000462D252E32690000000000A5
:1002100002D5149A16E514FA10000000532D252E6D
:100220003269000000000002CE149A1692141B11CD
:10023000000000434855500000000000000000008E
:10024000000000CF17000000000043486474000065
:1002500000000000000000000000CE1700000000B9
:10026000005345647400000000000000002A1300E1
:10027000008D1400000000005341554500000000AF
:10028000000000002C130000D017000000000062E6
:10029000452D256900000000000001B9120000DFB3
:1002A00016B60E00000041462D2569000000000032
:1002B0000001B5120000D216CD0E00000053632DD0
:1002C000256900000000000001221300003A146DAF
:1002D0000F00000072642D2569000000000000017D
:1002E000B1120000E113E50E00000072472D2569F0
:1002F0000000000000000118130000A513EE0F001D
:1003000000004C452D25690000000000000113137A
:1003100000006913CB0F00000074752D25690000E3
:100320000000000001111300002E138C0F000000CC
:1003300064454C720000000000000000241300001F
:10034000C2160000000000464C2D25690000000088
:1003500000000107130000BD12AC0F000000535055
:100360002D256900000000000001AD120000AC1650
:10037000FE0E000000102040800000000000000081
:10038000000000000000000000000000000000006D
:10039000000000000000000000000000000000005D
:1003A0000000000000004080003F065B4F666D7D4E
:1003B000077F6F00000000000000770039007971AE
:1003C0003D76060E003800003F7300006D003E00D1
:1003D00000000000000000000800007C585E0000E3
:1003E0006F740000000000545C73675000781C00BC
:1003F00000006E00FEB4825A3C24140A0400643DDE
:1004000031362C6F3D342C623D39303A65352C64E1
:1004100023352C65352C6423352C65352C622C64F2
:10042000352C63352C38612C702C632C652C612C99
:1004300038622C702C652C47232C422C3863352CC9
:10044000702C652C652C6423352C65352C64233584
:100450002C65352C622C64352C63352C38612C705E
:100460002C632C652C612C38622C702C652C633528
:100470002C622C38612C387000643D342C6F3D3573
:100480002C623D37303A386723342C3863232C38BC
:10049000652C386723342C3863232C38652C386757
:1004A00023342C3863232C38652C386723342C38BC
:1004B00063232C38652C3861342C3863232C386541
:1004C0002C3861342C3863232C38652C3861342C5B
:1004D00038642C3866232C3861342C38642C386608
:1004E000232C386723342C38632C3866232C386748
:1004F00023342C3863232C38652C386723342C386C
:1005000063232C3864232C386623342C38632C382E
:1005100064232C632300643D31362C6F3D362C62FE
:100520003D39303A3332642C333264232C33326415
:100530002C333264232C3332642C333264232C3337
:1005400032642C333264232C3332642C3332642CE7
:10055000333264232C3332652C3332662C333266CB
:10056000232C3332672C672C38702C672C38702C76
:1005700061232C702C63372C702C672C38702C67FF
:100580002C38702C662C702C66232C702C672C3821
:10059000702C672C38702C61232C702C63372C70D6
:1005A0002C672C38702C672C38702C662C702C66BD
:1005B000232C702C61232C672C32642C3332702C4A
:1005C00061232C672C3263232C3332702C61232C53
:1005D000672C32632C6123352C38632C32702C331A
:1005E00032702C6123352C67352C3266232C333244
:1005F000702C6123352C67352C32662C3332702CED
:100600006123352C67352C32652C64232C3864002B
:10061000643D342C6F3D352C623D3235303A452CEB
:1006200038702C38462C38472C38702C3143362CF7
:1006300038702E2C442C38702C38452C31462C70B8
:100640002E2C472C38702C38412C38422C38702CEA
:100650003146362C702C412C38702C38422C3243C9
:10066000362C3244362C3245362C452C38702C38FA
:10067000462C38472C38702C3143362C702C44369D
:100680002C38702C3845362C31462E362C472C38D9
:10069000702C38472C452E362C38702C44362C388C
:1006A000702C38472C452E362C38702C44362C387C
:1006B000702C38472C462E362C38702C45362C386A
:1006C000702C3844362C324336000000E1EE78E1DD
:1006D000D1D4E3C89ABDF6B2EBA8709F7D960C8E7C
:1006E00013868D7E7377BE706A6A7264CE5E7C59A3
:1006F0007654B84F3F4B06470A43463FB93B5F38F5
:1007000035353832672FBE2C3B2ADC27A0258323C2
:100710008521A31FDD1D2F1C9B1A1C19B3175F1603
:100720001E15EE13D012C211C210D20FEE0E180E0B
:100730004D0D8E0CDA0B300B8F0AF7096809E108B2
:100740006108E90777070C07A7064706ED05980536
:100750004705FC04B40470043104F40381880100EB
:100760003505073080063F00068FFF06000006D7DC
:100770003B0600F406C05506000006D7080600F444
:1007800006C05706000006240006002806C07306AF
:10079000000006560007388006123E0601B8060023
:1007A00000060A800692680602380602FE0643B872
:1007B00006BB4806E5E40622FE064C1806FA720659
:1007C0004E3806E6F006474106B248060F380600E6
:1007D0000006C4030646AD060DB806000006CE04AA
:1007E00006002406CE12068ABE06240006CA6E063D
:1007F000C34006000006240006002806C11206D6E3
:100800008D06240006CA4E068A4206EA8E06240099
:1008100006000006010206166206804006F3360650
:100820000DD8060028068814068E4706CE1B060043
:100830000006C00106F136060518060028069815C0
:1008400006F0360603980610C006240006002006AF
:10085000000006F23606019807588006123E06137D
:10086000B806123E06153806053E0614B8062536AB
:10087000062400060000060A8006103E0603B8069D
:100880001030060CD3060034062400060663064228
:10089000100636F10624000600000601020610A02C
:1008A0000604380636FE0645B806BF4806E7E606E3
:1008B000000006034006A6FF06240006B6480624EC
:1008C000000634C00600080610A00642A4069A6876
:1008D0000600A4060028064022069A6506001106B6
:1008E0000032064C980622410647380600F40655A9
:1008F0004006003506240006003C06240006B134FC
:100900000624C006503406248006002906000E0680
:1009100000300624000649B506C0670600000680C0
:1009200000060064069344060930060010060028FD
:1009300006D51F0648440624000682B1064C8406EC
:1009400009300601240642440604900610A0060160
:10095000840600C106C2120600290680250600345E
:10096000060024069A65064100060261064030062C
:1009700012F10624000612FE06240006BE4F0600F1
:1009800011060265062400061700064142060028EB
:1009900006891B06000006C40006824F06CC93069B
:1009A000F13606079806F13606051806F0360603F6
:1009B0009806053406149006F33606240006F2362F
:1009C00006151806002006000006F23606139807E2
:1009D000968006123E0603B8060000060A8006004E
:1009E0000006C3010636B40605B806000006C500B9
:1009F0000652630601380600330624400600280626
:100A00005929065A6306240006924106240006006E
:100A10000006050106002806582B0682B106012CA7
:100A200006002806402B06003B062440065A4506D1
:100A30002400061245062400060000060516065A84
:100A40006106012C06000006011606002806492B47
:100A500006000006050106003B0624400652B406C7
:100A6000059806000006810006002806852C0686EB
:100A7000B80624000626430624000612B406240005
:100A800006000006410006002806C52D0624F106D2
:100A900024000626430624000612B406240006009D
:100AA0000006010206002806052F0624F106240090
:100AB0000626430624000624F106240006264306E3
:100AC00024000612B406240006F036062440060070
:100AD00028060531060100060A8006002806403176
:100AE000063060062400063040062400060020067A
:100AF000000006F23606039807C78006113E060777
:100B0000B806143E06113806143E0613B806133E06
:100B1000060EF806133E060A78060100060A0006CD
:100B2000080006D31F0604000617B506043706069C
:100B30008006813A0624800601000695C806043F17
:100B4000060694068C460617440600000651000669
:100B50000028069536068CB8060138069C6806C142
:100B60001B06002806403A0680B00606B406300090
:100B700006100006003006063406080006060006C9
:100B800060B00624000611000610EB06002806855A
:100B900038060000068E0F0611000610FB068FBFF8
:100BA000060928060024064E390611FE0609280605
:100BB0001F5006092806BE4F06240006FEF706C190
:100BC0001B0690680607BC06F336060A5806F3367D
:100BD000060ED806F43606139806F43606111806E3
:100BE000002006000006F13606079806002A060EC9
:100BF0003C06093006573806143E0612F806113E28
:100C00000611B806023E062480060100060A000608
:100C1000000006172606200006D2FF06300006D187
:100C20000706013106139C06813B06248006093025
:100C300006133C06F23606248006F13606119806A5
:100C4000F4360612D8063000061707060021060003
:100C50000006053F06D7DB07018106133606240090
:100C600006123E0617B806123E06153806053E0661
:100C700014B8063536062400060000060A80061061
:100C80003E06013806000006014006103E0604B884
:100C900006000006020206113E06077806043E061C
:100CA00013B80613340600000682FF06240006B2BD
:100CB000480624000680410641800622A106240041
:100CC0000610400624000600000601400609300612
:100CD00040300609300640000682FF06240006B2B6
:100CE0004806240006804106C133060000060116AE
:100CF0000612600600930600F40612450600280658
:100D0000C94806000006240006000006000006533D
:100D10003406240006F03C062400060930060013C1
:100D20000600F40612450610390624000630340683
:100D3000240006904006240006002806C0500680C5
:100D4000B806002906133406050006003406240000
:100D50000690600624000690600624000610B00687
:100D60002400060040062400060040062400060079
:100D700068062400060AA50640100610B0062400E6
:100D800006146006011006000006C00306002806CF
:100D9000D54D060000062400060034064C40060A25
:100DA000B5064C980617000640420610400613454B
:100DB00006884506154006013506CCD306002906EF
:100DC000802506844706C0930613340624000600D7
:100DD000F406124506103906003006F034062400E9
:100DE00006906006240006003A064C1006C0340641
:100DF0002400063034062440061460062400060051
:100E00000006C10006002806084A06000006240065
:100E100006F43606139806F13606075806F036062D
:100E2000049806F03606011806053406149006F3F9
:100E30003606240006F236061518060020060000C5
:100E400006F236061798075381061C0006000006B6
:100E5000223E0615B806053E0614B80615360624C9
:100E600000060000060A8006103E06027806003ED4
:100E7000060CD30682B80642100630340624C0069B
:100E8000C26D06240006240006000006002806891C
:100E90005806924806240006002806C059061C0081
:100EA00006000006C26D06240006000006240006A7
:100EB000002806D85906824D0624000624000600A4
:100EC0000006F0360624C006F03606025806053441
:100ED00006149006E33606240006002006000006ED
:100EE000F236061598076D8106123E0617B80612EF
:100EF0003E06153806053E0614B8062536062400BB
:100F0000060000060A8006103E06013806103E065E
:100F100003B806113E06053806143E0611380630A1
:100F20000006500306133E060EF806033E064C501C
:100F30000600300624000680400600330600000646
:100F400004000600280605600600000624000601CD
:100F5000000611E00688B80600A406303406240016
:100F60000602640624000600000624000600280687
:100F7000186B0600000624000690400624000600B8
:100F80002406C06A060000062400063F000681FD14
:100F90000601000610E00600320602C006A6FE06A4
:100FA0004C1806B6480624000616AD0624000610A6
:100FB0003E06248006002906C05406103E0624C0C2
:100FC000068A40064C9006103A068C1B06F0340642
:100FD00024000680400624000609000600C406001E
:100FE0002806D56A060000062400060065062400CF
:100FF000063F0006C1FF06002806D868060930062D
:1010000000000612600600800600000624000600AC
:101010002806C16806000006240006906006240029
:1010200006002806C06A06093006002006130006DE
:101030000088065260062400063D00060086060071
:101040002806C16A0609300601000682FF06240050
:1010500006B24806240006093006012006986406F8
:10106000240006F33606244006F336060ED806F4AE
:101070003606111806F13606051806F036060398EE
:1010800006F03606011806053406149006F33606F7
:10109000240006F23606151806002006000006F2A7
:1010A0003606179807B78106223E0615B806053E94
:1010B0000614B8061536062400060000060A800647
:1010C000103E06043806143E06113806010006518B
:1010D000C80601000610C806043E06048006093052
:1010E0000600040608640624000688440624000658
:1010F000300006520206002806D8710601000600DC
:101100000006084406240006013A06240006F436C8
:1011100006248006F43606111806F0360604180672
:10112000053406149006E336062400060020060067
:101130000006F23606159807CF8106040006010066
:1011400006300006920206010006914606300006AF
:10115000100306300006130706053E0614B80645C0
:1011600036062400060000060A80060030064C10F1
:101170000604000610B50690680600300680B80622
:1011800000B00600390624000601000651C806001A
:101190003A0624000630000612000600320624003B
:1011A0000612C0062400069068060128069068060C
:1011B000002C06003B062400060100060000060481
:1011C000000613C00604380624C00601000610E01D
:1011D0000680B80600A00601000690C80609300681
:1011E000002006000006502A0609300610240601D9
:1011F000000611C806002906C06D06093006102435
:1012000006F034062400068040062400062E000660
:1012100004E006002806157E060000069028060059
:101220000006000306133406240006F03C062400E2
:10123000068AB8064C1806003E0600780606000628
:10124000000006093006020006D4FF06854006B6F7
:101250004806240006CAFF06240006B642062400FB
:101260000600290640AC0682B806240006864C0615
:10127000C09B0600290640AC0682B1062400060485
:10128000000610E0063000069107060038064C18EC
:101290000692680640380610290640F006103E0601
:1012A000244006F336064C1006F03406240006C02F
:1012B0003906240006000006400806300006D20762
:1012C0000618290640C90600390624000601000652
:1012D00051E00618290640C9061336062400060008
:1012E0000006CEF90682BC06240006300006D303B1
:1012F00006003206402406003B06C12706300006E1
:10130000930606000006C00E060024068E8906001D
:101310003B0624000680B8068C100600F406104533
:1013200006002906C031061336068033069068068B
:101330008C100600F406104506132906803806E3D3
:1013400034064C180600000624000600000611367C
:101350000601000650E006000006410006233406A0
:1013600024000609300600100602FE06240006B21C
:10137000480624000600F4060140060000060000AE
:1013800006E03C06402006003906C1230688B80660
:101390002400060000060101061929068004061330
:1013A000360624000612600624000601000652E0FC
:1013B00006002806C88C0600000624000690680671
:1013C0008C100600F406104506132906803806E343
:1013D00034064C180601000690E006233406C103CB
:1013E0000680410611450613360681130600610684
:1013F00050440600000641000602FE0600A406094D
:101400003006460806093006C70B06B24F06240010
:1014100006093006402806002906C03106093006B4
:10142000C12B06804006240006010006C1460600C6
:10143000280645A106000006240006000006103616
:1014400006424106008406926806554006003D06A5
:101450004C1806010006C046064040064138060109
:101460000006C14606002906405B0600F40612404D
:101470000642410602000694620655400600000638
:1014800001260698640600140694420602200622ED
:101490004106CC9B0600F4065540060000060108F4
:1014A00006003D06240006003006240006126006F1
:1014B00024000600000601F80600280648A10600E0
:1014C0000006240006192906C0010613360624006A
:1014D0000612600624000604000612E00600280634
:1014E000C99C0600000601E8060032064C1806906A
:1014F0006006240006926806403806103E06244026
:101500000610290640F00600000648A00600000666
:1015100001E806192906C001061336062400061242
:1015200060064C980604000612E006002806989F04
:1015300006926806000806904006240006103E0643
:10154000240006103E0624400610290640F006003E
:10155000000648A006103E0624000610290640F0AA
:1015600006103E06244006132906006506F33606DB
:1015700024000600000600000600380624000600CD
:101580000006407E060064062400060000062400D3
:1015900006002806C88C0600000624000601000686
:1015A000D04606000006437E06010006D34606002C
:1015B00033064C980601000613C806103E06118C2F
:1015C00006103E068CD00600F406124506002906D9
:1015D000001606E33406240006000006CE1F0600AF
:1015E00024064EA906E3360624000601000651C86B
:1015F0000601000610C8060930060000060930067C
:1016000001040614600624000600000624000600FB
:101610002806D5A80600000624000630000613029E
:1016200006093006120006093006000806003B06CF
:101630002400060930060000069060062400060912
:101640003006002006010006412A0601000610C8E7
:101650000613360600000614600624000600000685
:10166000240006002806D1AB060000062400060070
:101670000006512A06093006112006002906C06D11
:1016800006000006888C07B1820613360624000681
:10169000000006200006013E06447806033E064D83
:1016A000F8068ABE06C34006D64D060E3806000070
:1016B00006CE0706002406CEAF06EA8E06240006F4
:1016C000CA6E06C34006000006240006002806C1B4
:1016D000AF06D68D06240006CA4E068A4206EA8E5A
:1016E00006240006F33606248006824D060F1806EF
:1016F000E6F206CD9B06002006000006F136060441
:10170000588188000081880100440007508006004D
:10171000000690170600F406005406000006100AA2
:101720000600F40600560680B006240006070006F0
:10173000579206003F062400063000069702060076
:101740003F062400060000064D00061400068F9593
:10175000060000064E1B060F280600E106060006DE
:10176000162006002A06CE1706123E0617B80614E3
:101770003E0612F806013E0611B806070006179746
:1017800006200006D2FF06300006D11106113106F0
:1017900024800604370624C006813B062480060107
:1017A0003106248006813B06248006043F0624C0BF
:1017B00006082806004806F1360611980614280681
:1017C000919C060000064D00061428064099063F2D
:1017D000000613000A50000011241FBECFEFD1E213
:1017E000DEBFCDBF14BE0FB6F894A89580916000FF
:1017F000886180936000109260000FBE13E0A0E04B
:10180000B2E0E0EDF0EC00E00BBF02C007900D92FB
:10181000A638B107D9F727E0A6E8B3E001C01D92CA
:10182000A53BB207E1F70E94BA540C945F600C9498
:1018300000000000FECF88E198E00FB6F894A8956C
:10184000809360000FBE90936000FFCF4F925F9235
:101850006F927F92AF92BF92CF92DF92EF92FF9200
:101860000F931F93CF93DF93CDB7DEB72A970FB6B1
:10187000F894DEBF0FBECDBF2B013C018A01690188
:101880001A821982FE01339688E0DF011D928A9543
:10189000E9F7CE0101965C01FC01F12CE12C411429
:1018A000510461047104C1F536016E187F08A3016B
:1018B000CE14DF0414F440E050E060E370E0C801AF
:1018C0000E949359C5018E0D9F1DCE14DF0414F4A0
:1018D000712C612CF801E60DF71D8A159B0589F521
:1018E0000E0D1F1DF801E60DF71D108281E02A96EE
:1018F0000FB6F894DEBF0FBECDBFDF91CF911F9121
:101900000F91FF90EF90DF90CF90BF90AF907F90BE
:101910006F905F904F900895C2018F709927AFEF3D
:10192000EA1AFA0A8A30910554F4805D819384E0C2
:1019300076946794579447948A95D1F7B0CF895C91
:10194000F5CFDC012E91CD012193C7CF9C0181E021
:1019500090E0662351F06150AC01429FC001439F6B
:10196000900D529F900D1124F4CF08955F926F92C5
:101970007F928F929F92AF92BF92CF92DF92EF921F
:10198000FF920F931F93CF93DF93CDB7DEB7C7546A
:10199000D1090FB6F894DEBF0FBECDBFC82EB92E49
:1019A000A62E772EE42ED52EB901602E512E4E0193
:1019B0008FE3880E911C46E050E0C4010E94B759A5
:1019C00026961FAE26976E2D7D2D8E010F5F1F4F21
:1019D000C8010E94D53AF12C892B01F5BE01675D43
:1019E0007F4FC8010E94523B892BA9F48AA9882302
:1019F00091F06EE270E0CE01C2960E94A5594AE0D5
:101A000050E0BE016A5B7F4F02970E940258F616B3
:101A100028F7F62EE3CFC8010E94393B5F926F9200
:101A2000F3941F92FF929F928F92DF92EF928CEA33
:101A300092E09F938F937F92AF92BF92CF920E943A
:101A4000C6590FB6F894DEBF0FBECDBFC95BDF4FDE
:101A50000FB6F894DEBF0FBECDBFDF91CF911F91BF
:101A60000F91FF90EF90DF90CF90BF90AF909F903D
:101A70008F907F906F905F9008959C018091860376
:101A800090918703892B29F4309387032093860351
:101A900008954091860350918703C901B0E0A0E00A
:101AA000840F951FA11DB11DB695A7959795879594
:101AB000909387038093860308959898A09A61E095
:101AC00070E082E00E944421109289030895E6E8C4
:101AD000F3E011821082128281E0838308951092D4
:101AE00089030895809189030895CF93DF9300D0EF
:101AF00000D0CDB7DEB72091860330918703A4E6EE
:101B0000B0E00E94DF552CEC31E040E050E00E9454
:101B1000B455822F0F900F900F900F90DF91CF91BF
:101B20000895CF9380918903882359F18091880388
:101B300090E0019663E070E00E94A05580938803D6
:101B40008091880381111DC0809186039091870345
:101B5000892B61F410928703109286034DE35DE0B8
:101B600060E270E082E0CF910C9471210E94750DCB
:101B7000C82F853578F789EB92E00E94B624C634E9
:101B800048F7CF910895823049F043E032E0833046
:101B900039F449E03AE022E09AE004C046E036E059
:101BA00023E090E08093960340939A0330939C0344
:101BB00020939B0390939D0384E08093990382E09C
:101BC0008093980380919F038E6780939F0308956D
:101BD00070E060E080E090E00E9449600C941B0C93
:101BE00082E090E890938C0380938B0345E150E072
:101BF00060E070E08BE893E00C9427600E94491A43
:101C000064EF71E08EEB92E00E94BE240E94564B7E
:101C10000E9464240E946F0D0E94E42181E090E004
:101C20000E94B31983B7817F866083BF81E00E94E1
:101C3000354983B7816083BF889583B78E7F83BF23
:101C400081E00E943C490E943249813079F70E942C
:101C50004D1A90E080E00E94B3190E9442240E9435
:101C600023210E94670D0E943E1A0C94484988ED7A
:101C700090E0092E000CAA0BBB0BABBFFC018791B7
:101C8000969108959FEF980F933010F480939503E9
:101C900008951092950308951092950308959FEF6B
:101CA000980F933010F40C94C30D089582E00C94B7
:101CB000C30DCF93DF9345E150E060E070E08BE827
:101CC00093E00E94176080918B0390918C03823087
:101CD000904809F441C080918D03807E8860809394
:101CE0008D031092900310929103D5E0D09392034C
:101CF00010929303C4E0C0939403109295030E9442
:101D0000560ED093970382E080939803C093990373
:101D100083E080939A0380939B0387E080939C03E6
:101D200080939D0380919E03877E80939E03809184
:101D30009F038E7F80939F0382E090E890938C03B3
:101D400080938B0345E150E060E070E08BE893E026
:101D5000DF91CF910C942760DF91CF910895EBE84C
:101D6000F3E0138684898178848B089580918D03B4
:101D700081700895EDE8F3E0908180FB90F9908305
:101D8000089580918D03809581700C94BA0EEDE8D2
:101D9000F3E080818E7F8083089580918D03869506
:101DA00081700895EDE8F3E0908180FB91F99083D4
:101DB00008950E94CD0E91E089270C94D20EEDE893
:101DC000F3E080818D7F8083089580918D0382FB75
:101DD000882780F90895EDE8F3E0908180FB92F97F
:101DE000908308950E94E50E91E089270C94EB0EF4
:101DF000EDE8F3E080818B7F8083089580918D03EF
:101E000083FB882780F90895EDE8F3E0908180FB5B
:101E100093F9908308950E94FE0E91E089270C9417
:101E2000040FEDE8F3E0808188608083089580915D
:101E30008D03829581700895EDE8F3E0908180FB39
:101E400094F9908308950E94170F91E089270C94CC
:101E50001C0FEDE8F3E080818F7E808308958091F0
:101E60008E0390918F03089583E090E0089580EFB2
:101E700090E0089581E090E0089582ED90E008956B
:101E800080919E0381700895EEE9F3E0908180FBDC
:101E900090F9908308959C0103978E3E910520F45C
:101EA00030938F0320938E03089582ED90E09093FA
:101EB0008F0380938E03089510928F0310928E03E8
:101EC000089590E080E0089581E020918E033091A4
:101ED0008F03232B09F080E00895809190030895EB
:101EE00080E0089589E0089581E0089580E00895F4
:101EF00080919E03869581700895EEE9F3E09081CC
:101F000080FB91F9908308958A3010F480939003B8
:101F1000089510929003089580919103089580E0B0
:101F2000089589E0089581E0089580E00895809102
:101F30009E0382FB882780F90895EEE9F3E0908103
:101F400080FB92F9908308958A3010F48093910376
:101F5000089510929103089580919703089580E069
:101F6000089589E0089581E0089585E008958091BD
:101F70009F0381700895EEE9F3E0918180FB90F971
:101F8000918308958A3010F480939703089585E033
:101F900080939703089580919203089581E00895B6
:101FA00089E0089581E0089585E0089580919E0379
:101FB00083FB882780F90895EEE9F3E0908180FBA8
:101FC00093F9908308959FEF980F993010F48093C0
:101FD0009203089585E0809392030895809193037E
:101FE000089580E0089580E4089581E0089580E0F8
:101FF000089580919E03829581700895EEE9F3E043
:10200000908180FB94F990830895813410F480933B
:102010009303089510929303089580919403089573
:1020200082E0089587E0089581E0089584E00895AE
:1020300080919E0385FB882780F90895EEE9F3E0FF
:10204000908180FB95F9908308959EEF980F9630CC
:1020500010F480939403089584E08093940308958A
:1020600080919503089581E0089583E0089581E0CB
:10207000089580E0089580919E0386FB882780F96B
:102080000895EEE9F3E0908180FB96F9908308953E
:1020900080E0089581E090919503911180E008958A
:1020A00080919603089581E0089583E0089581E08A
:1020B000089582E0089580919E03881F8827881FD5
:1020C0000895EEE9F3E0908180FB97F990830895FD
:1020D00080E0089581E090919603911180E0089549
:1020E00080919803089581E0089589E0089581E042
:1020F000089582E0089580919F03869581700895E8
:10210000EEE9F3E0918180FB91F9918308959FEFCF
:10211000980F993010F480939803089582E080938B
:102120009803089580919903089581E0089589E0C6
:10213000089581E0089584E0089580919F0382FBD3
:10214000882780F90895EEE9F3E0918180FB92F908
:10215000918308959FEF980F993010F4809399031D
:10216000089584E080939903089580919A030895D7
:1021700081E0089589E0089581E0089583E008955D
:1021800080919F0383FB882780F90895EEE9F3E0AF
:10219000918180FB93F9918308959FEF980F993077
:1021A00010F480939A03089583E080939A0308952E
:1021B00080919B03089581E0089589E0089581E06E
:1021C000089583E0089580919F038295817008951A
:1021D000EEE9F3E0918180FB94F9918308959FEFFC
:1021E000980F993010F480939B03089583E08093B7
:1021F0009B03089580919C03089580E0089583E6F1
:10220000089581E0089587E0089580919F0385FBFC
:10221000882780F90895EEE9F3E0918180FB95F934
:1022200091830895843610F480939C03089587E089
:1022300080939C03089580919D03089580E0089504
:1022400083E6089581E0089587E0089580919F03D3
:1022500086FB882780F90895EEE9F3E0918180FB01
:1022600096F991830895843610F480939D03089520
:1022700087E080939D03089580918A03089580915B
:102280008A038F5F80938A03089510928A030895CA
:10229000AC01CB014115510581F04130510509F4E4
:1022A00020E18130910559F08230910569F0892B48
:1022B00019F48DB1822B8DB9089528E0F2CF8DB13C
:1022C000209528232DB908958DB18227F4CF8F92C0
:1022D0009F92AF92BF92CF92DF92EF92FF920F93B5
:1022E0001F93CF93DF9300D000D00F92CDB7DEB70E
:1022F0007C016983142F5D83690182E0E816F10493
:1023000008F0ACC0C7010E94061E8111A7C00036AC
:1023100008F494C00FE580919100887F809391002C
:102320009981953608F48FC0A4E6A9839981892FF5
:1023300090E0B0E0A0E089839A83AB83BC83BC01CA
:10234000CD010E9407579B01AC0169837A838B837F
:102350009C8369817A818B819C810E94955720E0C2
:1023600030E048EC52E469837A838B839C836981F3
:102370007A818B819C810E9466569B01AC0160E052
:1023800070E088EC92E40E94F95520E030E84FEFCD
:1023900053E469837A838B839C8369817A818B81FF
:1023A0009C810E94955720E030E048EC52E469831C
:1023B0007A838B839C8369817A818B819C810E9443
:1023C000665620E030E84FEF53E469837A838B83CD
:1023D0009C8369817A818B819C810E94FA556983F3
:1023E0007A838B839C8369817A818B819C810E9413
:1023F000D856A1E0EA16F10461F170939900609358
:10240000980080919100887F80939100202FA601F1
:10241000612F7D81C7010F900F900F900F900F904B
:10242000DF91CF911F910F91FF90EF90DF90CF90B0
:10243000BF90AF909F908F900C94251E053008F0B0
:102440006ACF05E068CFB981B11170CF81E089838F
:102450006DCF70939B0060939A00D3CF0F900F9035
:102460000F900F900F90DF91CF911F910F91FF90E0
:10247000EF90DF90CF90BF90AF909F908F90089596
:102480000F9300E030E020E00E9467110F91089563
:102490008DB1877E8DB98EB1877E8EB9E1E7F0E090
:1024A0008081887D808383EA8093900088E0809398
:1024B00091008FEF93E09093990080939800909310
:1024C0009B0080939A0068E471E190E080E00E94B4
:1024D000BF1E68E471E181E090E00C94BF1EE5EA64
:1024E000F3E08081816080830895CF932091A403DD
:1024F000022E000C330B40E08AED90E0C7E1642F20
:10250000042E000C770BE42FEE0FFF0BE056FC4F70
:1025100050815F715C9F800D911D112462177307BC
:102520004CF44496092E000CAA0BBB0BABBFFC016C
:10253000879196914F5F621773070CF3CF910895BF
:102540000E9475120E96092E000CAA0BBB0BABBF96
:10255000FC0187919691089508950E94FE0E0C94B7
:1025600046250E94E50E0C9446250E94CD0E0C9443
:1025700046250E94B60E0C944625CF93803259F022
:1025800030F48830A9F0803189F1CF9108958039F5
:1025900069F1803AD1F70E94B70F811121C00E94E2
:1025A000AC0FC82F811112C00E94B10FC82F15C0E7
:1025B0000E94AC0F882339F00E94AC0F682F80ED89
:1025C00097E00E940720CF910C946F120E94B30FE6
:1025D000C81B0E94AF0FC81738F38C2F0E94C20F80
:1025E0000E94AC0F90E00E940E25EDCF0E94B70F25
:1025F0008111F6CF0E94AC0FC82F0E94B30FC80FF5
:102600000E94B10F8C1748F70E94AF0FCFCF0E94E6
:10261000AC0F90E00C940E250E948C0F90E00C946F
:102620000E250C940C130E94CB0F90E00C940E25F9
:102630000E94EE0F90E00C940E250E946D0F90E02A
:102640000C940E250C941D1361E070E083EC92E075
:102650000C94BE240C9424130C942413CF93803236
:1026600059F030F4883009F1803111F1CF9108959B
:102670008039F1F0803AD1F70E94970F811113C091
:102680000E948C0FC82F811104C00E94910FC82F87
:1026900007C00E94930FC81B0E948F0FC817A8F392
:1026A0008C2F0E94A40F0E940C13CF910C946F12D8
:1026B0000E94970F8111F7CF0E948C0FC82F0E94A4
:1026C000930FC80F0E94910F8C1750F70E948F0F25
:1026D000DECFCF93803941F130F4803129F180325F
:1026E00021F0CF910895803AE1F70E94D60F811131
:1026F00013C00E94CB0FC82F811104C00E94D00FBD
:10270000C82F07C00E94D20FC81B0E94CE0FC81747
:10271000A8F38C2F0E94E30F0E94CB0F90E00E9441
:102720000E25CF910C946F120E94D60F8111F4CF19
:102730000E94CB0FC82F0E94D20FC80F0E94D00F4B
:102740008C1738F70E94CE0FDBCFCF93803941F141
:1027500030F4803129F1803221F0CF910895803A10
:10276000E1F70E94F90F811113C00E94EE0FC82FEC
:10277000811104C00E94F30FC82F07C00E94F50FFB
:10278000C81B0E94F10FC817A8F38C2F0E940510D8
:102790000E94EE0F90E00E940E25CF910C946F12D4
:1027A0000E94F90F8111F4CF0E94EE0FC82F0E94F2
:1027B000F50FC80F0E94F30F8C1738F70E94F10F26
:1027C000DBCF0F931F93CF93DF93CDB7DEB7E297A5
:1027D0000FB6F894DEBF0FBECDBF8830C9F068F4E5
:1027E000823051F1E2960FB6F894DEBF0FBECDBF36
:1027F000DF91CF911F910F910895803111F08032B8
:1028000089F70E94F20E0E94E50E0E94462508C03C
:102810000E94C74A019711F40E94564B0E94C74A72
:10282000E2960FB6F894DEBF0FBECDBFDF91CF9119
:102830001F910F910C946F120E94C74A029729F4BE
:102840000E94564B0E946F12CDCF0E94C74A892B1F
:10285000C9F708EC12E02CEC32E042ED52E062E302
:1028600070E0CE0101960E94B60CCE0101960E9446
:10287000124BE8CFCF93803259F030F4883009F111
:10288000803111F1CF9108958039F1F0803AD1F77C
:102890000E94780F811113C00E946D0FC82F811103
:1028A00004C00E94720FC82F07C00E94740FC81B7B
:1028B0000E94700FC817A8F38C2F0E94840F0E94EB
:1028C0001D13CF910C946F120E94780F8111F7CFD6
:1028D0000E946D0FC82F0E94740FC80F0E94720FC4
:1028E0008C1750F70E94700FDECF0E94170F0C94C8
:1028F00046250E94701090E00C940E250E949210C4
:1029000090E00C940E250E94B51090E00C940E25DA
:102910000E94D81090E00C940E25883011F40C948D
:10292000E80D0895CF93803941F130F4803129F1D9
:10293000803221F0CF910895803AE1F70E9426116C
:10294000811113C00E941B11C82F811104C00E9465
:102950002011C82F07C00E942211C81B0E941E11FF
:10296000C817A8F38C2F0E9433110E941B1190E00E
:102970000E940E25CF910C946F120E942611811196
:10298000F4CF0E941B11C82F0E942211C80F0E9471
:1029900020118C1738F70E941E11DBCF0E941B11EB
:1029A00090E00E940E250C942E490E94FA1090E0AF
:1029B0000E940E250C942E490E940D1090E00E945A
:1029C0000E250C942E490C942E49CF93803941F159
:1029D00030F4803129F1803221F0CF910895803A8E
:1029E000E1F70E940511811113C00E94FA10C82F4F
:1029F000811104C00E94FF10C82F07C00E9401115E
:102A0000C81B0E94FD10C817A8F38C2F0E9412113A
:102A10000E94FA1090E00E940E25CF910C946F1244
:102A20000E9405118111F4CF0E94FA10C82F0E9454
:102A30000111C80F0E94FF108C1738F70E94FD107B
:102A4000DBCFCF93803109F1803281F50E94E31012
:102A5000811113C00E94D810C82F811104C00E9498
:102A6000DD10C82F07C00E94DF10C81B0E94DB10BA
:102A7000C817A8F38C2F0E94EF100E94D81090E086
:102A80000E940E25CF910C946F120E94E3108111C9
:102A9000F4CF0E94D810C82F0E94DF10C80F0E94E8
:102AA000DD108C1738F70E94DB10DBCFCF91089533
:102AB000CF93803109F1803281F50E94C0108111DD
:102AC00013C00E94B510C82F811104C00E94BA1013
:102AD000C82F07C00E94BC10C81B0E94B810C8179E
:102AE000A8F38C2F0E94CD100E94B51090E00E9498
:102AF0000E25CF910C946F120E94C0108111F4CF5B
:102B00000E94B510C82F0E94BC10C80F0E94BA10B6
:102B10008C1738F70E94B810DBCFCF910895CF9370
:102B2000803109F1803281F50E949D10811113C01E
:102B30000E949210C82F811104C00E949710C82FC4
:102B400007C00E949910C81B0E949510C817A8F3CF
:102B50008C2F0E94AA100E94921090E00E940E25D5
:102B6000CF910C946F120E949D108111F4CF0E949E
:102B70009210C82F0E949910C80F0E9497108C17AE
:102B800038F70E949510DBCFCF910895CF93803115
:102B900009F1803281F50E947B10811113C00E94DF
:102BA0007010C82F811104C00E947510C82F07C073
:102BB0000E947710C81B0E947310C817A8F38C2FAF
:102BC0000E9487100E94701090E00E940E25CF9105
:102BD0000C946F120E947B108111F4CF0E94701030
:102BE000C82F0E947710C80F0E9475108C1738F7F5
:102BF0000E947310DBCFCF910895CF93803941F1BC
:102C000030F4803129F1803221F0CF910895803A5B
:102C1000E1F70E941810811113C00E940D10C82FF7
:102C2000811104C00E941210C82F07C00E94141006
:102C3000C81B0E941010C817A8F38C2F0E942510E3
:102C40000E940D1090E00E940E25CF910C946F12FF
:102C50000E9418108111F4CF0E940D10C82F0E94FD
:102C60001410C80F0E9412108C1738F70E94101011
:102C7000DBCF0E943C1190E00C940E250E94512560
:102C80000C942E49CF93DF93803261F038F4883072
:102C9000D1F08031C1F1DF91CF910895803999F160
:102CA000803AC9F70E94640F811117C00E94400F3B
:102CB000811113C00E942F0FEC01892BB9F40E94DF
:102CC000370FEC011CC00E94400F811106C00E940A
:102CD000640F882341F00E94550F0E945125DF9117
:102CE000CF910C946F120E945C0FF7CF0E943A0FA5
:102CF000C81BD90B0E94340FC817D90700F3CE01A7
:102D00000E944B0FEACF0E94640F8111E6CF0E9410
:102D1000400F8111E2CF0E942F0FEC010E943A0F69
:102D2000C80FD91F0E94370F8C179D0740F70E94CC
:102D3000340FC7CF0C94264990E080E00E94F3192D
:102D40000E94491A0C94264981E090E00E94F319F0
:102D50000E943E1A0C942A49803111F0803289F485
:102D60000E940B0F0E94FE0E0E9446250E94FE0E3E
:102D7000882321F00E94214C0C946F120E94294C50
:102D8000FBCF0895883069F461E070E085EE92E051
:102D90000E94BE240E946F128091A50382608093DE
:102DA000A5030895803111F0803241F40E94D90EBC
:102DB0000E94CD0E0E9446250C946F12089580311A
:102DC00011F0803241F40E94C10E0E94B60E0E94A2
:102DD00046250C946F120895803111F0803241F431
:102DE0000E94230F0E94170F0E9446250C946F1219
:102DF00008950E946A10882331F061E070E08EEB44
:102E000092E00C94BE240E94501090E00C940E2589
:102E10000C94F916CF93803171F18032A1F0883093
:102E2000D9F50E945B10811106C00E946A108823A8
:102E300039F00E94560E0E94F916CF910C946F1231
:102E40000E94AF0EF8CF0E945B108111F4CF0E9458
:102E50005010C82F811104C00E945510C82F07C000
:102E60000E945710C81B0E945310C817A8F38C2F3C
:102E70000E944F0EE0CF0E945B108111DCCF0E94B8
:102E80005010C82F0E945710C80F0E9455108C1761
:102E900070F70E945310E2CFCF9108950E944A101C
:102EA000882331F061E070E08EEB92E00C94BE2458
:102EB0000E94301090E00C940E250C944E17CF9386
:102EC000803199F18032A9F0883009F043C00E9426
:102ED0003B10811106C00E944A10882339F00E94DD
:102EE000490E0E944E17CF910C946F120E944C0E07
:102EF000F8CF0E944A108111F4CF0E943B1081113B
:102F0000F0CF0E943010C82F811104C00E943510EC
:102F1000C82F07C00E943710C81B0E943310C81763
:102F2000A8F38C2F0E94420EDCCF0E944A10811120
:102F3000D8CF0E943B108111D4CF0E943010C82FEF
:102F40000E943710C80F0E9435108C1750F70E944E
:102F50003310DECFCF9108958032C1F028F488304D
:102F600041F08031C1F008958039A9F0803A71F0C4
:102F700008950E94FE19019731F482E090E00E94CA
:102F8000F3190C946F1281E090E0F9CF8FEF9FEF6F
:102F90000E946F1CF6CF81E090E0FACF089508956B
:102FA000883049F40E94F00D0E946F128091A503B1
:102FB00082608093A5030895EF92FF920F931F9371
:102FC000CF93DF93CDB7DEB72F970FB6F894DEBF60
:102FD0000FBECDBF0E9475120B96092E000CAA0BD6
:102FE000BB0BABBFFC0187918E010F5F1F4F882386
:102FF00009F43EC00E9475124296092E000CAA0BDD
:10300000BB0BABBFFC0187919691F12CE12C009793
:1030100021F0FC010995E82EF12C0E947512BC01EB
:10302000C8010E947659FF92EF921F930F931F924F
:1030300085E08F938E01055F1F4F1F930F930E94B2
:10304000C6590FB6F894DEBF0FBECDBFC80161E010
:1030500070E00E94BE242F960FB6F894DEBF0FBE1C
:10306000CDBFDF91CF911F910F91FF90EF90089509
:103070000E947512BC01C8010E947659E7CFE0EAB0
:10308000F3E086E0DF011D928A95E9F78FEF8483F4
:1030900080818F7180668083E1EAF3E080818C7F9C
:1030A000826080830895E0EAF3E014828081807E6C
:1030B00080830C94DC178091A4038095881F882757
:1030C000881F0895CF93DF93D82FC091A40390E079
:1030D00080E0C7FD24C08091A503807F8093A50375
:1030E000EC2FEE0FFF0BD43849F5EF55FC4F8081E4
:1030F00082FF06C00E94A012FC01892B09F00995ED
:103100008091A40381110EC08FEF8093A40380915E
:10311000A503807F85608093A50385E090E0DF9123
:10312000CF91089581508093A40387FDEDCF0E9435
:10313000DC170E946F1281E090E0F1CFDF01AF5504
:10314000BC4F8C9182FD6BC0D43039F0D83001F186
:103150008091A5038F7090E0E2CFE056FC4F208174
:10316000822F8F7190E00196322F3295369537700D
:1031700061816370660F660F660F632B70E00E94BB
:10318000A0558F71207E282B20830E94DC1744C01D
:103190000E9475124696092E000CAA0BBB0BABBF02
:1031A000FC018791882301F10E9475124696092E31
:1031B000000CAA0BBB0BABBFFC018791E1E0EC0F4D
:1031C000E093A403EE0FFF0BE056FC4F982F92956F
:1031D000990F907E908386958695869583709181D0
:1031E0009C7F892B8183D1CF0E9475120C96092E6A
:1031F000000CAA0BBB0BABBFFC018791969100970B
:1032000011F0FC010995E091A403EE0FFF0BE056CD
:10321000FC4F8181846081830E946F1299CFD430EA
:1032200079F40E94A012FC01892B09F00995E09124
:10323000A403EE0FFF0BE056FC4F81818B7FD2CFB2
:103240000E947512AC01405F5F4F052E000C660BAB
:10325000770B6BBFFA01479156914115510509F45F
:1032600077CF8D2FFA0109958091A50381FF70CF4B
:10327000E091A403EE0FFF0BE056FC4F81818B7FA2
:1032800081830E94DC1764CFFF920F931F93CF932B
:10329000DF93182F092FD62FF72EC42F0E944A2410
:1032A000882309F45AC0C0FF4BC00F931F9388E2D4
:1032B00093E09F938F931F9283E08F9386EA93E02E
:1032C0009F938F930E94C6598DB79EB708960FB6ED
:1032D000F8949EBF0FBE8DBF08EA13E0C2FF08C07E
:1032E00066E173E088EA93E00E949A5909EA13E0E4
:1032F000C1FF2DC0FF92DF9388E293E09F938F93ED
:103300001F9283E08F931F930F930E94C6598DB72E
:103310009EB708960FB6F8949EBF0FBE8DBFC3FF31
:1033200006C066E173E0C80102960E949A5986EAD7
:1033300093E0DF91CF911F910F91FF900C94742433
:103340006EE473E086EA93E00E94B059C5CF6EE464
:1033500073E0C8010E949A59E2CFDF91CF911F918B
:103360000F91FF9008959C0190917000987F909329
:10337000700080E28093B6001092B20082E08093E9
:10338000B00021303105A9F486E08093B10080E8D7
:103390008093B3008091B4038C7F81608093B403E9
:1033A0008091B6008A71E1F717BA82E080937000CD
:1033B000089581E08093B10081E28093B300809111
:1033C000B4038C7FEBCF08958091B303881F8827C7
:1033D000881F08959091B40396959695937081E017
:1033E00009F480E00895982F9370E3EBF3E0990FD0
:1033F000990F8181837F892B818308958091B40304
:1034000086958695837090E00895EDEAF3E09681C5
:10341000982B96830895EDEAF3E016828081807EF2
:103420008C60808380818F718083AEEAB3E08C9161
:10343000887F8C938C9187708C93AFEAB3E08C91EA
:103440008E7F8C93148213821582E3EBF3E08181EB
:10345000837F818381818F70818382818C7F82834E
:1034600083E090E00E94051A2FEF81EE94E0215056
:1034700080409040E1F700C00000089580E890E0AF
:103480000C94051AEDEAF3E09681809589238683F2
:10349000089580E890E00C94421ACF93CFB7F89447
:1034A00080E490E00E94421ACFBF8091B30386FF70
:1034B00002C0CF9108950000F8CFEDEAF3E09681C5
:1034C0009827968308951F920F920FB60F9211249A
:1034D0000BB60F922F933F934F935F936F937F930E
:1034E0008F939F93AF93BF93EF93FF938091B40318
:1034F0008370813009F08FC09091AE0396959695B8
:1035000096958091AF0381708295880F807E892B7C
:1035100090E001962CE330E0B9010E94A055482FBD
:10352000440F440F440F9091AE039770942B9093E7
:10353000AE0385FB992790F98091AF038E7F892B8D
:103540008093AF039091AE03969596959695809152
:10355000AF0381708295880F807E892B09F044C06B
:103560009091AD039295969597708091AE03877078
:10357000880F880F880F892B90E00196B9010E946F
:10358000A055282F2F73982F9295990F907E809198
:10359000AD038F71892B8093AD03269526952695D3
:1035A0008091AE03887F822B8093AE039091AD0310
:1035B0009295969597708091AE038770880F880FCB
:1035C000880F892B89F48091AD038F7190E001966B
:1035D00068E170E00E94A055982F9F718091AD0323
:1035E000807E892B8093AD0380E490E00E94051AD1
:1035F000FF91EF91BF91AF919F918F917F916F91CB
:103600005F914F913F912F910F900BBE0F900FBE86
:103610000F901F9018950E944A49882361F00E94DC
:1036200038248091B4038F708093B4038091B503E4
:103630008C7F8093B5030E941E1D0E9410240E945F
:10364000731D0E949F1F8091B0039091B10301965A
:1036500068EE73E00E948C559093B1038093B003A1
:103660008091B0039091B103892B09F0E4C090914F
:10367000B40392959F708091B50383708295807F8B
:10368000892B8E31A8F59091B40392959F7080910B
:10369000B50383708295807F892B8F5F8F73282F6E
:1036A0002295207F9091B4039F70922B9093B40346
:1036B00082958F709091B5039C7F892B8093B50381
:1036C0009091B40392959F708091B5038370829519
:1036D000807F892B8E3160F08091B30387FF08C013
:1036E0008091B40386958695837011F40E945924C5
:1036F0009091AE039695969596958091AF038170C3
:103700008295880F807E892B90E001962CE330E033
:10371000B9010E94A055482F440F440F440F9091C7
:10372000AE039770942B9093AE0385FB992790F985
:103730008091AF038E7F892B8093AF039091AE036E
:103740009695969596958091AF0381708295880F96
:10375000807E892B09F048C09091AD039295969593
:1037600097708091AE038770880F880F880F892B20
:1037700090E00196B9010E94A055282F2F73982F31
:103780009295990F907E8091AD038F71892B8093D4
:10379000AD032695269526958091AE03887F822BD2
:1037A0008093AE039091AD0392959695977080911A
:1037B000AE038770880F880F880F892B89F480915A
:1037C000AD038F7190E0019668E170E00E94A05512
:1037D000982F9F718091AD03807E892B8093AD03DC
:1037E0008091B3030E94910D84E090E00E945D1AE5
:1037F0008091B403869586958370E9F483E090E028
:103800000E94051A8091B30387FF15C04091B3034E
:103810008091AD038295869587706091AE03677045
:10382000660F660F660F682B8091AD038F7170E095
:1038300090E00E9444198091B20390E0019668ECF8
:1038400070E00E94A0558093B2038091B4038695E6
:103850008695837009F4CCCE8091B2038111C8CED5
:103860008091B403869586958370813029F18230EA
:1038700041F481E090E00E94051A82E090E00E940D
:103880005D1A8091B30387FFB3CE4091B30380915B
:10389000AD038295869587706091AE036770660F61
:1038A000660F660F682B8091AD038F71477F70E0C4
:1038B00090E00E9444199CCE82E090E00E94051A9C
:1038C00081E090E0DCCFAC012091B30330E028230D
:1038D000352381E02417350709F080E00895AC0115
:1038E0008091B403869586958370813009F452C027
:1038F000823009F04CC02FB7F8949091AD039295A7
:10390000969597708091AE038770880F880F880F07
:10391000892B57FF3DC0815C8F73382F3295330F51
:10392000307E9091AD039F71932B9093AD0386955C
:10393000869586959091AE03987F892B8093AE03F0
:103940009091AD039295969597708091AE03877094
:10395000880F880F880F892B90E06CE370E00E943D
:10396000A055382F3F73982F9295990F907E809194
:10397000AD038F71892B8093AD03369536953695BF
:103980008091AE03887F832B8093AE032FBF089571
:103990008F5FC2CF2FB7F8949091AD0357FF19C036
:1039A000915E9F718091AD03807E892B8093AD03E2
:1039B0008091AD038F7190E068E170E00E94A055A6
:1039C000982F9F718091AD03807E892B8093AD03EA
:1039D000DDCF9F5FE6CFE6EBF3E08EE0DF011D92E7
:1039E0008A95E9F7089547E0489FF001499FF00D57
:1039F0001124EA54FC4F80819181892B49F4718311
:103A000060831282138214821582168281E00895E7
:103A100080E0089547E0489F9001499F300D1124B0
:103A20002A543C4FF9012081318181E0232B09F494
:103A300080E00895FC011182108208958091B60300
:103A40009091B703892BD1F08091B8039091B9037D
:103A5000A091BA03B091BB030196A11DB11D809343
:103A6000B8039093B903A093BA03B093BB03E0915A
:103A7000B603F091B70386EB93E009958091BD03FF
:103A80009091BE03892BD1F08091BF039091C00328
:103A9000A091C103B091C2030196A11DB11D8093F5
:103AA000BF039093C003A093C103B093C203E091FE
:103AB000BD03F091BE038DEB93E009940895F0E00F
:103AC000E0E08330910540F42BE0289FF001299F2E
:103AD000F00D1124EC53FC4F0184F285E02D30975A
:103AE00009F0099408954F925F926F927F92AF927E
:103AF000BF92CF92DF92EF92FF920F931F93CF93DB
:103B0000DF9300D000D000D0CDB7DEB784EC93E0D7
:103B10009E838D8310E000E084E6C82ED12CE12C3A
:103B2000F12CED81FE8180819181A281B38100978A
:103B3000A105B105A1F00197A109B1098083918385
:103B4000A283B383892B8A2B8B2B49F41582148291
:103B50001782168261E070E0C8010E945F1DED814E
:103B6000FE81A680B780A114B10441F1208530E028
:103B7000D5010E94DF5569837A838B839C83A701DB
:103B800096010E94B45529013A01ED81FE8184819C
:103B900095810196B5010E948C5595838483AC0173
:103BA00070E060E0441555056605770511F0892B36
:103BB00029F462E070E0C8010E945F1D0F5F1F4F93
:103BC0008D819E810B969E838D830330110509F0B4
:103BD000A8CF26960FB6F894DEBF0FBECDBFDF91FB
:103BE000CF911F910F91FF90EF90DF90CF90BF90FA
:103BF000AF907F906F905F904F900895E4ECF3E06A
:103C000081E2DF011D928A95E9F708959C010397EF
:103C100008F008959FB7F8948BE0829FF001839F8E
:103C2000F00D1124EC53FC4F40815181628173816E
:103C300081E0452B462B472B29F426813781232B06
:103C400009F480E09FBF81700895CF92DF92EF92D8
:103C5000FF920F931F93CF93DF9300D000D000D03B
:103C6000CDB7DEB78D839E838B016A01F22E8D81E5
:103C70009E810E94061E81115AC02D813E812330F3
:103C8000310508F054C0EFB6F894C801009711F45C
:103C900081E090E09C0150E040E0CA01B9010E943F
:103CA000E3198B019C018BE04D815E81849FF001C3
:103CB000859FF00D1124EC53FC4F00831183228368
:103CC0003383C601009711F481E090E09C0150E03D
:103CD00040E029833A834B835C83CA01B9010E9487
:103CE000E319462F572F8BE02D813E81829FF001F3
:103CF000839FF00D1124EC53FC4F57834683F086CD
:103D000015821482EFBE70E060E08D819E81269660
:103D10000FB6F894DEBF0FBECDBFDF91CF911F91DC
:103D20000F91FF90EF90DF90CF900C945F1D26963F
:103D30000FB6F894DEBF0FBECDBFDF91CF911F91BC
:103D40000F91FF90EF90DF90CF9008958330910511
:103D5000A8F42FB7F8943BE0389FF001399FF00D9D
:103D60001124EC53FC4F10821182128213821782AD
:103D700016822FBF61E070E00C945F1D08959C01D6
:103D80002330310550F44BE0429FF001439FF00D8A
:103D90001124EC53FC4F728761870895CF93DF9312
:103DA000EC018A819B81AC81BD81843F9140A1055A
:103DB000B10549F48AEE92E00E94E94ACE01DF9112
:103DC000CF910C941A1DDF91CF910895CF92DF927D
:103DD000EF92FF92CF93DF9300D000D000D0CDB709
:103DE000DEB78D839E83AD81BE811296CD90DD902E
:103DF000ED90FC901597B1E0CB16D104E104F104ED
:103E0000A1F40E945C0F0E94491A89EF92E0269665
:103E10000FB6F894DEBF0FBECDBFDF91CF91FF90FC
:103E2000EF90DF90CF900C94B62464EF71E080E0C7
:103E300090E00E94E31969837A838B839C83C61682
:103E4000D706E806F90671F426960FB6F894DEBF99
:103E50000FBECDBFDF91CF91FF90EF90DF90CF905D
:103E60000C945125ED81FE81C280D380E480F580E1
:103E700068EE73E080E090E00E94E31969837A8342
:103E80008B839C83C616D706E806F90691F48D81CC
:103E90009E810E941A1D26960FB6F894DEBF0FBEB3
:103EA000CDBFDF91CF91FF90EF90DF90CF900C943A
:103EB0003E1A26960FB6F894DEBF0FBECDBFDF9137
:103EC000CF91FF90EF90DF90CF900895CF93DF9345
:103ED00000D0CDB7DEB79A83898362E0CE01019628
:103EE0000E94A0230F900F90DF91CF910895389AF0
:103EF000409A81E00895389888B1817088B9089512
:103F00008091E50381110CC046E65FE170E060E05E
:103F10000E947121882321F0409891E09093E5035D
:103F200008958091E503882331F0409A80E00E9453
:103F3000D1211092E50308958091E5030895CF9370
:103F4000DF9300D000D00F92CDB7DEB78091E603AB
:103F50008F5F8D838093E6036AE070E080E090E0FD
:103F60000E94E31969837A838B839C832D81822F3E
:103F700090E0B0E0A0E029813A814B815C8182171A
:103F80009307A407B50759F41092E6030F900F901A
:103F90000F900F900F90DF91CF910C94CB250F9045
:103FA0000F900F900F900F90DF91CF910895289868
:103FB0000895289A0895209A0C94D91F0E94FF21F1
:103FC00041E06DE173E087EE93E00E94FD329C01D9
:103FD00081E0232B09F080E0089540E06DE173E07B
:103FE00090E080E00C94FD32029781F4613071051D
:103FF00039F06230710531F0672B41F4419A089530
:104000004198089588B192E0892788B908951F934F
:10401000CF93DF93182FD92FC62F82E090E00E9414
:10402000061E81111BC0CC23C9F0CA30A8F424E1BC
:10403000C13039F0C93081F02C2F220F220F220F0E
:10404000245F4AE050E0612F7D2F82E090E0DF9115
:10405000CF911F910C94251E2AE5F3CFDF91CF91CC
:104060001F9108950895399A419864EF7FE182E0A5
:1040700090E00C94BF1E2091390630913A062F71C2
:10408000821751F020913F06309140062F71821720
:1040900031F08FEF9FEF089590E080E0089581E088
:1040A00090E008959C0186E0829FF001839FF00DCF
:1040B0001124E75CF94F8081918190FF2AC080EC48
:1040C00080937C0086E0829FF001839FF00D112495
:1040D000E75CF94F8081918187FF05C080917C006A
:1040E000806280937C0086E0829FF001839FF00DC8
:1040F0001124E75CF94F8081918190917C008F7150
:10410000892B80937C0080917A00806480937A0070
:10411000089580E4D5CF1F920F920FB60F9211240D
:104120000BB60F922F933F934F935F936F937F93B1
:104130008F939F93AF93BF93CF93DF93EF93FF93AF
:1041400080917C008F710E943B20EC0186E08C9F67
:10415000F0018D9FF00D1124E75CF94F8081918172
:1041600087FF67C0809178009091790026E096954E
:1041700087952A95E1F726E02C9FF0012D9FF00D01
:104180001124E75CF94F2081318126FF22C0248170
:104190003581232B29F00480F581E02D937009955A
:1041A00086E08C9FF0018D9FF00D1124E75CF94FA4
:1041B000828193811816190664F482819381019794
:1041C00093838283892B29F4808191818F7B9183D2
:1041D0008083C230D10510F0D0E0C0E0CE0126E0EF
:1041E00001968230910511F490E080E0289FF00163
:1041F000299FF00D1124E75CF94F4081518146FD64
:104200001DC08C179D0761F7FF91EF91DF91CF9152
:10421000BF91AF919F918F917F916F915F914F91DE
:104220003F912F910F900BBE0F900FBE0F901F90DC
:10423000189580917800909179009DCF97FDE4CFFB
:104240000E945220E1CFEAE7F0E080E8808380819D
:1042500087608083A9E3B6E080E290E011969C93AA
:104260008E9382E290E017969C938E93169780B37C
:104270008A7F80BB80818860808381E0089564E2CA
:1042800074EF80E090E00895CF93C62F0E943B200A
:104290009C0180E037FD1FC086E0829FF001839F74
:1042A000F00D1124E75CF94F80819181C1FF15C0A9
:1042B00080689183808386E0829FF001839FF00D68
:1042C0001124E75CF94F80819181C0FF08C09160A3
:1042D0009183808381E0CF9108958F77EACF9E7F8D
:1042E000F7CF0F931F93CF93DF93EB018A010E94C7
:1042F0003B2097FD2EC026E0289FF001299FF00D5E
:104300001124E75CF94F2081318125FF22C02081F3
:10431000318126FD1EC01C161D0614F0CFEFDFEF05
:1043200026E0289FF001299FF00D1124E75CF94F4A
:10433000D383C28315830483208131812064318338
:1043400020830E94522081E0DF91CF911F910F9135
:10435000089580E0F9CF50E040E06AE070E082E04C
:104360000E9471218FE19EE40197F1F700C00000E7
:1043700008950E943B209C0197FD11C086E0829F1A
:10438000F001839FF00D1124E75CF94F808191814A
:1043900026E0969587952A95E1F78170089580E04B
:1043A00008950E943B209C0197FD0DC086E0829FEE
:1043B000F001839FF00D1124E75CF94F808191811A
:1043C0008F7B91838083089580E00E94D12182E0D9
:1043D0000E94D121E9E3F6E0808191818F7D918374
:1043E0008083868197818F7D97838683EAE7F0E0DB
:1043F0008081877F808380818F77808308950CB44C
:1044000006FC0FC084B1866084B923982A98299845
:104410002B9A80E58CBD8FE19EE40197F1F700C0F7
:10442000000081E008951CBC84B1897F84B985B106
:10443000817F85B908959C018CB583709DB5492F06
:10444000417050E08230D1F08330D9F0813099F062
:1044500082E090E0841B950B2730310520F5253054
:10446000310568F52330310578F42115310521F542
:104470008FEF9FEF089584E090E0ECCF86E090E02E
:10448000E9CF87E090E0E6CF4CB54C7F41604CBD72
:1044900034ED01C036952A95EAF730FD0AC02DB5F6
:1044A00021602DBD08952730310511F72CB523600B
:1044B0002CBD2DB52E7FF5CF4CB54C7FE8CF4CB53C
:1044C0004C7F4260E4CF8EBD0DB407FEFDCF8EB5AC
:1044D00008950F931F938A019B01FC018FEF8EBDFE
:1044E0000DB407FEFDCF9EB590838EBD0DB407FEC3
:1044F000FDCF9EB5918302501109210931093296F1
:10450000011511052105310551F71F910F910895EE
:104510000F931F93FC018A019B01011511052105D1
:104520003105F1F08081013011052105310521F4BB
:104530001F910F910C94632280818EBD0DB407FEF4
:10454000FDCF81818EBD0DB407FEFDCF0250110954
:10455000210931093296011511052105310561F74F
:104560001F910F9108951F921FB61F9211242F9330
:104570002BB72F933F934F938F939F93EF93FF937B
:104580002091C0003091C60080914D0690E00196C8
:104590008770992740914E0648171906B1F0287187
:1045A00080934D068B5B994FFC01308320934F061F
:1045B000FF91EF919F918F914F913F912F912BBF41
:1045C0002F911F901FBE1F90189522E0EFCF8F9361
:1045D0008FB78F938BB78F939F93EF93FF939091A8
:1045E0005806809159069817B9F08091590690E0C5
:1045F000019687709927809359068B5B994FFC0130
:1046000083858093C600FF91EF919F918F918BBF1F
:104610008F918FBF8F9118958091C1008F7D80936E
:10462000C100F1CF0F931F938B019C011092C0002A
:104630001092C10040FF05C08091C100806180934D
:10464000C10041FF05C08091C10088608093C10016
:10465000011584E8180783E02807310509F44EC0E6
:1046600020F5011586E918072105310509F44CC02C
:10467000011582EC180781E02807310509F442C0D2
:10468000003815422105310509F440C086E08093C9
:10469000C20010924D0610924E06109258061092CB
:1046A000590681E01F910F910895003281EA1807A1
:1046B00087E028073105D1F0003482E418078FE045
:1046C0002807310549F00039104D23403105F1F636
:1046D00081E08093C4000CC01092C4001092C50009
:1046E0008091C00082608093C000D0CF1092C4003F
:1046F0001092C5008091C0008D7FF5CF83E080933C
:10470000C400ECCF88E0FBCF8CE0E3CF83E3E1CFC4
:104710002091580630E02F5F3F4F2770332790914C
:10472000590692171306D9F3F901EB5BF94F83870A
:10473000209358068091C10080628093C100089543
:104740000F931F93CF93DF93EC018C01060F111D84
:10475000C017D10729F4DF91CF911F910F910895D0
:1047600089910E948823F4CF8FB7F89420914D0649
:1047700090914E068FBF291303C080E091E0089509
:1047800080914E0690E001968770992780934E069F
:104790008B5B994FFC01808190914F0608959FB7E4
:1047A000F894E5E4F6E0808521859FBF90E00896C7
:1047B000821B910968E070E00E94A05508958FB7B0
:1047C000F894E5E4F6E0918590878FBF0895809195
:1047D000C100877E8093C1008091C00087FF08954B
:1047E0008091C600F9CF87B18F7087B911B888B1B1
:1047F000806F88B912B8089587B1806F87B99FEF2D
:1048000091B988B1806F88B982B192B908950E9438
:10481000FC2388B18F7088B912B808950C94F323E3
:1048200080915A06882309F128B180915F0690E0B3
:104830008B589C4F092E000CAA0BBB0BABBFFC0185
:1048400087918095206F822388B9E0915F06F0E020
:10485000E55AF94F8081809582B980915F0690E09A
:1048600001968370992780935F0608950C94F32333
:1048700080915A06811105C00E94FC2381E080933B
:104880005A060895CF93CFB7F8940E943824CFBF2B
:10489000CF91089580915A06089568EE73E080E004
:1048A00090E00895EBE5F6E0108211821282138207
:1048B000089580915A06882331F00E94F3230E94C4
:1048C000522410925A060895CF93CFB7F8940E94BD
:1048D0005924CFBFCF910895CF93CFB7F8940E94BA
:1048E0005224CFBFCF9108951F93CF93DF93EC0154
:1048F000FC0101900020E9F731971E2F181BE817E3
:10490000D1F00E9452245C2F2C2F3D2F40E0F90162
:1049100081919F014423A9F08E3289F4842F815024
:10492000990BFC01E55AF94F808180688083822FC2
:10493000851B811760F3DF91CF911F91089544305B
:10494000D0F7642F70E0F9013197808190E08758AB
:104950009C4F092E000CAA0BBB0BABBFFC0187912F
:10496000655A794FFB0180834F5FE1CFCF93CFB77B
:10497000F8940E947424CFBFCF910895CF93DF9312
:10498000D62FC72F0E94B6248D2F9C2F009711F48D
:1049900081E090E0EFECF7E03197F1F700C0000024
:1049A0000197C1F7DF91CF910895EF92FF920F9396
:1049B0001F93CF93DF9300D000D000D0CDB7DEB7E8
:1049C0009B018A01AB0155275F934F931F923F9341
:1049D0001F928F9382E293E09F938F931F9286E0C2
:1049E0008F93CE0101967C019F938F930E94C659AD
:1049F000B801C7010E94BE240FB6F894DEBF0FBEF7
:104A0000CDBF26960FB6F894DEBF0FBECDBFDF91A7
:104A1000CF911F910F91FF90EF9008950F931F93E7
:104A2000CF93DF9300D000D00F92CDB7DEB79C01BB
:104A30008E010F5F1F4F203187E23807A0F06DE233
:104A400073E0C8010E94B05961E070E0C8010E94A3
:104A5000BE240F900F900F900F900F90DF91CF9189
:104A60001F910F9108953F932F9382E393E09F93BB
:104A70008F931F9285E08F931F930F930E94C659C7
:104A80000FB6F894DEBF0FBECDBFDECF61E070E0A1
:104A9000882321F086E393E00C94BE248EEB92E011
:104AA000FBCF0F931F93CF93DF9300D000D000D0A4
:104AB000CDB7DEB70E94640F8E010F5F1F4F8823B2
:104AC000A9F06EEB72E0C8010E94B05961E070E09D
:104AD000C8010E94BE2426960FB6F894DEBF0FBE12
:104AE000CDBFDF91CF911F910F9108950E942F0F9D
:104AF0006CE370E00E948C559F938F937F936F932C
:104B00008BE393E09F938F931F9286E08F931F9385
:104B10000F930E94C6590FB6F894DEBF0FBECDBFEB
:104B2000D5CF811102C00C94C04481E00895811159
:104B300002C00C94014481E008950F931F93E82F65
:104B4000CB01BA01A9019801E11104C01F910F9195
:104B50000C94C34484E090E01F910F9108950F934B
:104B60001F93E82FCB01BA01A9019801E11104C0FC
:104B70001F910F910C942B4584E090E01F910F91B1
:104B80000895982F862FBA01911102C00C949D456B
:104B900084E090E008950C941E48CF93DF9300D0FA
:104BA00000D0CDB7DEB7FC01208131814281538135
:104BB000CA01B9010F900F900F900F90DF91CF9124
:104BC0000895CF93DF9300D000D0CDB7DEB7FC01BE
:104BD0009A01AB0122503109410951098489958913
:104BE000A689B7890297A109B109281739074A0789
:104BF0005B0718F5A285B3850E94EE5569837A8319
:104C00008B839C8380A591A5A2A5B3A529813A8118
:104C10004B815C81280F391F4A1F5B1F29833A8310
:104C20004B835C8369817A818B819C810F900F908B
:104C30000F900F90DF91CF91089519821A821B82F5
:104C40001C82F0CF0F931F93FB01022F132F9A01A9
:104C5000138F028FDC018C91833029F48901222784
:104C60003327048B158B1F910F910895CF93DF93FA
:104C7000DC01ED91FC9111973097E9F1CF01EC0146
:104C8000288101962132D0F02A33C9F79F012E5F87
:104C90003F4F8217930779F52081203361F58D937B
:104CA0009C9390E080E0DF91CF9108958F3211F0D6
:104CB000813208F54C9311965C93F3CF80818F324B
:104CC00081F7818131968F32E1F325E433E0E90108
:104CD00098812F5F3F4FAF0181916FE9690F6A3172
:104CE00008F490526FE9680F6A3108F480529923F2
:104CF000E9F2891761F38FEF9FEFD5CF0F931F93E1
:104D0000CF93DF93EC018B01892B61F489E090E074
:104D100030E020E0F80131832083DF91CF911F91B3
:104D20000F910895E881F981309781F3808188237C
:104D300069F32A813B81868197812817390731F7EA
:104D400081810E94912580FDE1CF2881398190E009
:104D500080E0E0CF8F929F92AF92BF92CF92DF928E
:104D6000EF92FF920F931F93CF93DF93EC018C810F
:104D7000811110C0F12CE12CC701DF91CF911F915F
:104D80000F91FF90EF90DF90CF90BF90AF909F90EA
:104D90008F9008956E0140E3C40ED11C2CA53DA553
:104DA0004EA55FA501E010E0B60189810E94AF2504
:104DB0007C01892B51F51C820CA51DA52EA53FA5B4
:104DC000888D998DAA8DBB8D88A099A0AAA0BBA023
:104DD000B901A801481959096A097B094A015B010F
:104DE00088169906AA06BB0628F66B81623011F672
:104DF000A9019801280F391F4A1F5B1F01E010E02D
:104E0000B60189810E94AF25B7CFEE24E394F12C3F
:104E1000B3CFCF92DF92EF92FF920F931F93CF9376
:104E2000DF93EC016A017B018CA59DA5AEA5BFA512
:104E300030E020E08C159D05AE05BF05E9F0CE0100
:104E40000E94AA269C01892BB9F401E010E0A70179
:104E50009601BE01605D7F4F89810E949D259C0166
:104E6000892B31F021E030E0CC24CA94DC2C76018F
:104E7000CCA6DDA6EEA6FFA6C901DF91CF911F91BA
:104E80000F91FF90EF90DF90CF900895EF92FF92F7
:104E90000F931F93CF93DF9300D000D000D0CDB7F6
:104EA000DEB78D839E83AD81BE8114961C928FEFF9
:104EB0009FEFDC01ED81FE8184A795A7A6A7B7A788
:104EC000CF010E9409278C01892B09F071C0ED8167
:104ED000FE81E25DFD4FE080F180AD81BE81D09624
:104EE0008C918B3E21F0885E823008F057C0B5E58A
:104EF000EB16BAEAFB0669F448E050E068E473E0B8
:104F00008D819E818E579F4F0E947D59892B09F478
:104F100051C0ED81FE8183AD94AD81159240F1F5D4
:104F2000AD81BE81DD968C91DD978823B9F190E04B
:104F30009C012150310982239323892B79F5DE9638
:104F40008D919C91DF97892B49F1FD01E05CFF4F2A
:104F500080818150990B029708F53196808191816B
:104F6000892BE1F03296808191818038910570F42F
:104F7000CD01805B9F4F0E94CD2569837A838B830F
:104F80009C83611571058140910540F0ED81FE81A2
:104F9000EA5BFF4F80819181892B61F403E010E08F
:104FA000F5E5EF16FAEAFF0629F402E010E002C088
:104FB00004E010E0C80126960FB6F894DEBF0FBEDD
:104FC000CDBFDF91CF911F910F91FF90EF9008958A
:104FD0002F923F924F925F926F927F928F929F9209
:104FE000AF92BF92CF92DF92EF92FF920F931F93F7
:104FF000CF93DF9300D000D000D0CDB7DEB75C01F7
:105000006A017B012801390122E0C216D104E104C2
:10501000F10408F403C1FC0184899589A689B78944
:10502000C816D906EA06FB0608F0FDC0808182306A
:1050300009F49AC0833009F4B6C0813009F0F8C091
:105040008A0116950795040F151FC801892F992706
:10505000869540A151A162A173A1480F591F611DFE
:10506000711DC5010E9409278D839E832D813E817C
:10507000232B09F058C0150130E3230E311C4801E1
:105080004FEF841A940A1170F101E00FF11F842D83
:10509000A7019601217033274427552729833A8396
:1050A0004B835C83C0FE07C080818F7040E1449ECB
:1050B00090011124822B808381E0D50114968C937A
:1050C000149790964D915D916D917C919397C40149
:1050D000892F99278695480F591F611D711DC5019C
:1050E0000E9409278D839E83ED81FE81EF2BD9F4E9
:1050F000F1E09F22F101E80DF91D29813A814B81F0
:105100005C81232B242B252B49F1D301C20154E0D0
:10511000B695A795979587955A95D1F7808381E0A5
:10512000D50114968C938D819E8126960FB6F894A6
:10513000DEBF0FBECDBFDF91CF911F910F91FF90CA
:10514000EF90DF90CF90BF90AF909F908F907F9027
:105150006F905F904F903F902F9008958081807F57
:10516000952D9F70892BDACF77276F2D5E2D4D2DD2
:1051700080A191A1A2A1B3A1480F591F6A1F7B1F53
:10518000C5010E9409278D839E832D813E81232B9B
:1051900051F6F601EE0FFF1FEE7FF170EA0DFB1DD9
:1051A00011AB00ABBCCF80A191A1A2A1B3A127E01C
:1051B00076956795579547952A95D1F7480F591FCA
:1051C0006A1F7B1FC5010E9409278D839E832D8145
:1051D0003E81232B09F0A7CF8501005D1F4FCC0C2A
:1051E000DD1CCC0CDD1C3CEFC32231E0D3220C0DC6
:1051F0001D1DC8010E94CD254FE07422DC01CB01AA
:1052000088279927AA27B07F84299529A629B72915
:10521000F80180839183A283B38381CFE2E0F0E041
:10522000FE83ED8380CF22E030E03E832D837BCF71
:1052300042E050E05E834D8376CF8F929F92AF9293
:10524000BF92CF92DF92EF92FF920F931F93CF9373
:10525000DF93EC015A016B010E94AA267C0181E0D8
:10526000E114F10419F5A501B601CE010E94E12572
:105270004B015C018CA69DA6AEA6BFA66E0120E3E5
:10528000C20ED11C80E092E0F6019C0111922150E7
:105290003040E1F78A859B85E816F906A8F081E0A1
:1052A0002A853B852E153F0509F480E090E0DF91CB
:1052B000CF911F910F91FF90EF90DF90CF90BF9013
:1052C000AF909F908F90089501E010E0A5019401A8
:1052D0002E0D3F1D411D511DB60189810E94AF2534
:1052E000892BE9F63FEFE31AF30AD4CF2F923F92CE
:1052F0004F925F926F927F928F929F92AF92BF92E6
:10530000CF92DF92EF92FF920F931F93CF93DF9391
:10531000CDB7DEB7A8970FB6F894DEBF0FBECDBFEE
:105320007B01D42EDB011D921C920E9436269C012B
:105330004BE0A42EB12C97FD25C0220F331FF9019D
:10534000EE59F94F008111813CE0A32EB12C0115DB
:105350001105C1F0F70111830083E894D0F8D8015A
:1053600011968C9111979C91992331F10E9491256E
:1053700080FD22C0DD2009F470C282FF6EC20AE007
:10538000A02EB12CC501A8960FB6F894DEBF0FBEB3
:10539000CDBFDF91CF911F910F91FF90EF90DF90E4
:1053A000CF90BF90AF909F908F907F906F905F90C5
:1053B0004F903F902F900895F801108281810E94B4
:1053C000972523E0A22EB12C80FDDCCFDD2011F04B
:1053D00082FDD5CF40E050E0BA01C8010E944627C7
:1053E0008230910509F000C26801FAE0CF1AFEEFA1
:1053F000DF0A9E012F5F3F4F790148013AEC831A83
:105400003DEF930A5701C6010E94CD25698B7A8B27
:105410008B8B9C8BD5016D937D938D939D935D01BB
:10542000B0E1CB0ED11CC814D90469F76701E0E1E3
:10543000CE0ED11CD7014D915D916D917D917D0175
:1054400023E030E0411551056105710509F4C1C142
:10545000C8010E9446279C01029708F0BAC1D801F2
:105460009C962D913D914D915C919F97298F3A8FFC
:105470004B8F5C8FDB968D919C918115924009F04A
:10548000B9C1F801EA5BFF4F808191819C0150E036
:1054900040E0298B3A8B4B8B5C8B892B49F4C801FC
:1054A0008C5A9F4F0E94CD25698B7A8B8B8B9C8B5E
:1054B00089899A89AB89BC89F801808F918FA28FE5
:1054C000B38FE05CFF4F8080D80113968C921397C6
:1054D0008FEF880D823008F08DC1DD964C90DD97FE
:1054E000842D90E01B969C938E931A97009709F455
:1054F00081C19C012150310982239323892B09F01A
:1055000079C1319620803180F801318620865101A1
:10551000FFE0AF22BB24A114B10409F06BC1F80174
:10552000ED5BFF4F808191816C01F12CE12C892B87
:1055300039F4C801805B9F4F0E94CD256B017C012F
:10554000D801DE96ED91FC91309709F453C1A82D56
:10555000B0E029893A894B895C890E94EE556DA398
:105560007EA38FA398A79F0150E040E02D8F3E8F30
:105570004F8F58A3C101B4E096958795BA95E1F78E
:10558000280F391F411D511DDA01C9012DA13EA16E
:105590004FA158A5280F391F4A1F5B1F2D8B3E8B2B
:1055A0004F8B588FC216D306E406F50608F422C1C5
:1055B000D701C601821B930BA40BB50B89A39AA339
:1055C000ABA3BCA3512C712C612CBC01CD01A30158
:1055D00092010E94B45589A19AA1ABA1BCA18415E6
:1055E0009505A605B70508F405C1263F9FEF3907C5
:1055F00049079FE0590708F0FDC0A3E08A2E912CCF
:10560000263FAFEF3A074105510560F488248394A3
:10561000912C263FBFE03B074105510518F0F2E011
:105620008F2E912C69017A01B2E0CB0ED11CE11CC6
:10563000F11CF801C48AD58AE68AF78A298D3A8D49
:105640004B8D5C8D248F358F468F578F4D8C5E8CA4
:105650006F8C78A0420E531E641E751E40A251A28C
:1056600062A273A2DA01C9012D893E894F89588D42
:10567000820F931FA41FB51F80A791A7A2A7B3A74E
:10568000F3E08F16910409F0B9C0F801E65AFF4F14
:105690008081918182299329892B09F0ABC0C801AF
:1056A000845A9F4F0E94CD252B013C01D701C60192
:1056B000E2E0880F991FAA1FBB1FEA95D1F7F801F6
:1056C00044A255A266A277A26C017D01FFEFCF0E26
:1056D000F1E0DF1EE11CF11C59E0F694E794D79449
:1056E000C7945A95D1F729893A894B895C892C1539
:1056F0003D054E055F0508F47DC08FEF9FEFDC018F
:10570000F801808B918BA28BB38B84879587A687BA
:10571000B78780E88583F3E08F16910409F049C0CC
:10572000F801E05AFF4F80819181019709F041C053
:10573000498D5A8D6B8D7C8D4F5F5F4F6F4F7F4FC3
:10574000C8010E940927892BA1F5D80115961C9242
:10575000F801E25DFD4F8081918185359A4A49F5D6
:10576000C801C0960E94CD2562357245814691449C
:1057700001F5C8018C5E9D4F0E94CD2562377247AE
:1057800081449146B1F4C801885E9D4F0E94CD25A9
:10579000D80150966D937D938D939C935397C80138
:1057A000845E9D4F0E94CD25F801648775878687AA
:1057B0009787D8018C92809160069091610601963E
:1057C000909361068093600617969C938E9316972C
:1057D000D9CDCE14DF0409F02DCE2430310551F49B
:1057E000AA24A394B12CCECD84309105C9F302979D
:1057F00008F435CE1DE0A12EB12CC4CD2328D1F361
:105800002DA13EA14FA158A5420E531E641E751E28
:1058100032E08316910439F4D701C601880F991F2D
:10582000AA1FBB1F4CCFA3E0B0E0A70196010E94C6
:10583000EE556D8B7E8B8F8B988FDC01CB01B695EF
:10584000A7959795879541E0C422DD24EE24FF2497
:105850008C0D9D1DAE1DBF1D32CFB12CA12C92CD44
:105860000F931F93CF93DF938C01EB01FC0190E02A
:1058700080E030E020E05EE22F5F3F4F4191403218
:1058800091F0453009F445EE2930310531F4DE015F
:10589000A80FB91F19965C930196DE01A80FB91FD6
:1058A00019964C9301962B30310531F78C0F9D1FC3
:1058B000DC0119961C92F80183858F738887C801D3
:1058C0004C960E94CD25688379838A839B83D80177
:1058D00056968D919C9157979F838E8358968D9164
:1058E0009C919D838C83DF91CF911F910F9108959F
:1058F0000F931F93282FFB01628D738D90E080E042
:10590000233059F40489158930E020E098011127EB
:105910000027602B712B822B932B1F910F910895E1
:10592000AF92BF92CF92DF92EF92FF920F931F93AD
:10593000CF93DF9300D000D0CDB7DEB78C016A01E2
:105940007B0182E0C816D104E104F10408F4B1C07F
:10595000F80184899589A689B789C816D906EA0607
:10596000FB0608F0A6C08081823009F462C0833053
:1059700009F47BC0813009F09CC0CA0196958795D7
:10598000840F951F9A838983892F9927869540A133
:1059900051A162A173A1480F591F611D711DC8015A
:1059A0000E940927892B91F06FEF7FEFCB010F90B9
:1059B0000F900F900F90DF91CF911F910F91FF905B
:1059C000EF90DF90CF90BF90AF900895A980BA80FC
:1059D0009FEFA91AB90AE981FA81F170E00FF11F6E
:1059E000F0A9F983C501892F99278695F80140A16F
:1059F00051A162A173A1480F591F611D711DC801FA
:105A00000E940927892B81F6F1E0BF22F801EA0DF7
:105A1000FB1D80A99981782F692FC0FE08C0E4E0A2
:105A200076956795EA95E1F790E080E0C0CF7F70CA
:105A3000FBCF77276F2D5E2D4D2D80A191A1A2A1C7
:105A4000B3A1480F591F6A1F7B1FC8010E94092775
:105A5000892B09F0A9CFF601EE0FFF1FEE7FF17041
:105A6000E00FF11F60A971A9DFCF80A191A1A2A1D0
:105A7000B3A137E076956795579547953A95D1F755
:105A8000480F591F6A1F7B1FC8010E940927892BD5
:105A900009F08ACF005D1F4FC601880F991F880F3C
:105AA000991F8C7F9170800F911F0E94CD259F7050
:105AB0007ECF61E070E080E090E079CF8F929F929E
:105AC000AF92BF92CF92DF92EF92FF920F931F930C
:105AD000CF93DF93EC016A017B01A801B90182E059
