:100000000C94CC0B0C94B7480C94C3480C94F40B90
:100010000C94F40B0C94F40B0C94F40B0C94F40B64
:100020000C94F40B0C949A4D0C94F40B0C94F40B6C
:100030000C94F40B0C94F40B0C94F40B0C943E1AEB
:100040000C94F40B0C94F40B0C9492220C94C42298
:100050000C94F40B0C945A200C94F40B0C94F40BA9
:100060000C94F40B0C94F40B0C94F40B0C94F40B14
:100070000C94F40B0C94F40B0C94F40B0C94F40B04
:100080000C94F40B0C94F40B0C94F40B6364696EF5
:100090006F70737578585B000201434C5345000044
:1000A00000000000000087167F168F170000000078
:1000B0000055745345000000000000000021167D2B
:1000C0001625160000000000456E53450000000094
:1000D0000000000000000000000000004F020A4382
:1000E0004F747200000000000000001C16000000A9
:1000F0000000000000004849747200000000000089
:100100000000C6147D168F120000000000642D252B
:100110002E3269000000000002BF147D16E015F0C9
:100120000F00000064752D2569000000000000012B
:10013000401700004217131000000055502D25698C
:1001400000000000000001EB160000ED1633100067
:100150000000414C2D2569000000000000015814EA
:100160000000CF16FA0E00000046722D256900002F
:1001700000000000015C140000A9155310000000ED
:100180004F642D256900000000000001611400008B
:100190007215751000000062722D256900000000C4
:1001A000000001661400003B1598100000004C454B
:1001B0002D2569000000000000016B1400000415EB
:1001C000BB10000000462D252E3269000000000003
:1001D00002B8147D16C814DD10000000532D252E22
:1001E0003269000000000002B1147D167514FE1083
:1001F00000000043485550000000000000000000CF
:10020000000000B2170000000000434864740000C2
:1002100000000000000000000000B1170000000016
:10022000005345647400000000000000000D13003E
:10023000007014000000000053415545000000000C
:10024000000000000F130000B31700000000006260
:10025000452D2569000000000000019C120000C22D
:1002600016990E00000041462D256900000000008F
:10027000000198120000B516B00E00000053632D67
:10028000256900000000000001051300001D145046
:100290000F00000072642D256900000000000001BD
:1002A00094120000C413C80E00000072472D256987
:1002B00000000000000001FB1200008813D10F00B5
:1002C00000004C452D256900000000000001F612D9
:1002D00000004C13AE0F00000074752D256900005E
:1002E0000000000001F412000011136F0F00000065
:1002F00064454C720000000000000000071300007D
:10030000A5160000000000464C2D256900000000E5
:10031000000001EA120000A0128F0F0000005350ED
:100320002D256900000000000001901200008F16CA
:10033000E10E0000001020408000000000000000DE
:1003400000000000000000000000000000000000AD
:10035000000000000000000000000000000000009D
:100360000000000000004080003F065B4F666D7D8E
:10037000077F6F00000000000000770039007971EE
:100380003D76060E003800003F7300006D003E0011
:1003900000000000000000000800007C585E000023
:1003A0006F740000000000545C73675000781C00FC
:1003B00000006E00FEB4825A3C24140A0400643D1E
:1003C00031362C6F3D342C623D39303A65352C6422
:1003D00023352C65352C6423352C65352C622C6433
:1003E000352C63352C38612C702C632C652C612CDA
:1003F00038622C702C652C47232C422C3863352C0A
:10040000702C652C652C6423352C65352C642335C4
:100410002C65352C622C64352C63352C38612C709E
:100420002C632C652C612C38622C702C652C633568
:100430002C622C38612C387000643D342C6F3D35B3
:100440002C623D37303A386723342C3863232C38FC
:10045000652C386723342C3863232C38652C386797
:1004600023342C3863232C38652C386723342C38FC
:1004700063232C38652C3861342C3863232C386581
:100480002C3861342C3863232C38652C3861342C9B
:1004900038642C3866232C3861342C38642C386648
:1004A000232C386723342C38632C3866232C386788
:1004B00023342C3863232C38652C386723342C38AC
:1004C00063232C3864232C386623342C38632C386F
:1004D00064232C632300643D31362C6F3D362C623F
:1004E0003D39303A3332642C333264232C33326456
:1004F0002C333264232C3332642C333264232C3378
:1005000032642C333264232C3332642C3332642C27
:10051000333264232C3332652C3332662C3332660B
:10052000232C3332672C672C38702C672C38702CB6
:1005300061232C702C63372C702C672C38702C673F
:100540002C38702C662C702C66232C702C672C3861
:10055000702C672C38702C61232C702C63372C7016
:100560002C672C38702C672C38702C662C702C66FD
:10057000232C702C61232C672C32642C3332702C8A
:1005800061232C672C3263232C3332702C61232C93
:10059000672C32632C6123352C38632C32702C335A
:1005A00032702C6123352C67352C3266232C333284
:1005B000702C6123352C67352C32662C3332702C2D
:1005C0006123352C67352C32652C64232C3864006C
:1005D000643D342C6F3D352C623D3235303A452C2C
:1005E00038702C38462C38472C38702C3143362C38
:1005F00038702E2C442C38702C38452C31462C70F9
:100600002E2C472C38702C38412C38422C38702C2A
:100610003146362C702C412C38702C38422C324309
:10062000362C3244362C3245362C452C38702C383A
:10063000462C38472C38702C3143362C702C4436DD
:100640002C38702C3845362C31462E362C472C3819
:10065000702C38472C452E362C38702C44362C38CC
:10066000702C38472C452E362C38702C44362C38BC
:10067000702C38472C462E362C38702C45362C38AA
:10068000702C3844362C324336000000E1EE78E11D
:10069000D1D4E3C89ABDF6B2EBA8709F7D960C8EBC
:1006A00013868D7E7377BE706A6A7264CE5E7C59E3
:1006B0007654B84F3F4B06470A43463FB93B5F3835
:1006C00035353832672FBE2C3B2ADC27A025832303
:1006D0008521A31FDD1D2F1C9B1A1C19B3175F1644
:1006E0001E15EE13D012C211C210D20FEE0E180E4C
:1006F0004D0D8E0CDA0B300B8F0AF7096809E108F3
:100700006108E90777070C07A7064706ED05980576
:100710004705FC04B40470043104F403818801002B
:100720003505073080063F00068FFF06000006D71C
:100730003B0600F406C05506000006D7080600F484
:1007400006C05706000006240006002806C07306EF
:10075000000006560007388006123E0601B8060063
:1007600000060A800692680602380602FE0643B8B2
:1007700006BB4806E5E40622FE064C1806FA720699
:100780004E3806E6F006474106B248060F38060026
:100790000006C4030646AD060DB806000006CE04EA
:1007A00006002406CE12068ABE06240006CA6E067D
:1007B000C34006000006240006002806C11206D623
:1007C0008D06240006CA4E068A4206EA8E062400DA
:1007D00006000006010206166206804006F3360691
:1007E0000DD8060028068814068E4706CE1B060084
:1007F0000006C00106F13606051806002806981501
:1008000006F0360603980610C006240006002006EF
:10081000000006F23606019807588006123E0613BD
:10082000B806123E06153806053E0614B8062536EB
:10083000062400060000060A8006103E0603B806DD
:100840001030060CD3060034062400060663064268
:10085000100636F10624000600000601020610A06C
:100860000604380636FE0645B806BF4806E7E60623
:10087000000006034006A6FF06240006B64806242C
:10088000000634C00600080610A00642A4069A68B6
:100890000600A4060028064022069A6506001106F6
:1008A0000032064C980622410647380600F40655E9
:1008B0004006003506240006003C06240006B1343C
:1008C0000624C006503406248006002906000E06C1
:1008D00000300624000649B506C067060000068001
:1008E000000600640693440609300600100600283E
:1008F00006D51F0648440624000682B1064C84062D
:1009000009300601240642440604900610A00601A0
:10091000840600C106C2120600290680250600349E
:10092000060024069A65064100060261064030066C
:1009300012F10624000612FE06240006BE4F060031
:10094000110602650624000617000641420600282B
:1009500006891B06000006C40006824F06CC9306DB
:10096000F13606079806F13606051806F036060336
:100970009806053406149006F33606240006F2366F
:1009800006151806002006000006F2360613980722
:10099000968006123E0603B8060000060A8006008E
:1009A0000006C3010636B40605B806000006C500F9
:1009B0000652630601380600330624400600280666
:1009C0005929065A630624000692410624000600AF
:1009D0000006050106002806582B0682B106012CE8
:1009E00006002806402B06003B062440065A450612
:1009F0002400061245062400060000060516065AC5
:100A00006106012C06000006011606002806492B87
:100A100006000006050106003B0624400652B40607
:100A2000059806000006810006002806852C06862B
:100A3000B80624000626430624000612B406240045
:100A400006000006410006002806C52D0624F10612
:100A500024000626430624000612B40624000600DD
:100A60000006010206002806052F0624F1062400D0
:100A70000626430624000624F10624000626430623
:100A800024000612B406240006F0360624400600B0
:100A900028060531060100060A80060028064031B6
:100AA00006306006240006304006240006002006BA
:100AB000000006F23606039807C78006113E0607B7
:100AC000B806143E06113806143E0613B806133E47
:100AD000060EF806133E060A78060100060A00060E
:100AE000080006D31F0604000617B50604370606DD
:100AF0008006813A0624800601000695C806043F58
:100B0000060694068C4606174406000006510006A9
:100B10000028069536068CB8060138069C6806C182
:100B20001B06002806403A0680B00606B4063000D0
:100B30000610000600300606340608000606000609
:100B400060B00624000611000610EB06002806859A
:100B500038060000068E0F0611000610FB068FBF38
:100B6000060928060024064E390611FE0609280645
:100B70001F5006092806BE4F06240006FEF706C1D0
:100B80001B0690680607BC06F336060A5806F336BD
:100B9000060ED806F43606139806F4360611180623
:100BA000002006000006F13606079806002A060E09
:100BB0003C06093006573806143E0612F806113E68
:100BC0000611B806023E062480060100060A000649
:100BD000000006172606200006D2FF06300006D1C8
:100BE0000706013106139C06813B06248006093066
:100BF00006133C06F23606248006F13606119806E6
:100C0000F4360612D8063000061707060021060043
:100C10000006053F06D7DB070181061336062400D0
:100C200006123E0617B806123E06153806053E06A1
:100C300014B8063536062400060000060A800610A1
:100C40003E06013806000006014006103E0604B8C4
:100C500006000006020206113E06077806043E065C
:100C600013B80613340600000682FF06240006B2FD
:100C7000480624000680410641800622A106240081
:100C80000610400624000600000601400609300652
:100C900040300609300640000682FF06240006B2F6
:100CA0004806240006804106C133060000060116EE
:100CB0000612600600930600F40612450600280698
:100CC000C94806000006240006000006000006537E
:100CD0003406240006F03C06240006093006001302
:100CE0000600F406124506103906240006303406C4
:100CF000240006904006240006002806C050068006
:100D0000B806002906133406050006003406240040
:100D10000690600624000690600624000610B006C7
:100D200024000600400624000600400624000600B9
:100D300068062400060AA50640100610B006240026
:100D400006146006011006000006C003060028060F
:100D5000D54D060000062400060034064C40060A65
:100D6000B5064C980617000640420610400613458B
:100D700006884506154006013506CCD3060029062F
:100D8000802506844706C093061334062400060017
:100D9000F406124506103906003006F03406240029
:100DA00006906006240006003A064C1006C0340681
:100DB0002400063034062440061460062400060091
:100DC0000006C10006002806084A060000062400A6
:100DD00006F43606139806F13606075806F036066E
:100DE000049806F03606011806053406149006F33A
:100DF0003606240006F23606151806002006000006
:100E000006F236061798075381061C0006000006F6
:100E1000223E0615B806053E0614B8061536062409
:100E200000060000060A8006103E06027806003E14
:100E3000060CD30682B80642100630340624C006DB
:100E4000C26D06240006240006000006002806895C
:100E50005806924806240006002806C059061C00C1
:100E600006000006C26D06240006000006240006E7
:100E7000002806D85906824D0624000624000600E4
:100E80000006F0360624C006F03606025806053481
:100E900006149006E336062400060020060000062D
:100EA000F236061598076D8106123E0617B806122F
:100EB0003E06153806053E0614B8062536062400FB
:100EC000060000060A8006103E06013806103E069F
:100ED00003B806113E06053806143E0611380630E2
:100EE0000006500306133E060EF806033E064C505D
:100EF0000600300624000680400600330600000687
:100F0000040006002806056006000006240006010D
:100F1000000611E00688B80600A406303406240056
:100F200006026406240006000006240006002806C7
:100F3000186B0600000624000690400624000600F8
:100F40002406C06A060000062400063F000681FD54
:100F50000601000610E00600320602C006A6FE06E4
:100F60004C1806B6480624000616AD0624000610E6
:100F70003E06248006002906C05406103E0624C002
:100F8000068A40064C9006103A068C1B06F0340682
:100F900024000680400624000609000600C406005E
:100FA0002806D56A0600000624000600650624000F
:100FB000063F0006C1FF06002806D868060930066D
:100FC00000000612600600800600000624000600ED
:100FD0002806C1680600000624000690600624006A
:100FE00006002806C06A060930060020061300061F
:100FF0000088065260062400063D000600860600B2
:101000002806C16A0609300601000682FF06240090
:1010100006B2480624000609300601200698640638
:10102000240006F33606244006F336060ED806F4EE
:101030003606111806F13606051806F0360603982E
:1010400006F03606011806053406149006F3360637
:10105000240006F23606151806002006000006F2E7
:101060003606179807B78106223E0615B806053ED4
:101070000614B8061536062400060000060A800687
:10108000103E06043806143E0611380601000651CB
:10109000C80601000610C806043E06048006093092
:1010A0000600040608640624000688440624000698
:1010B000300006520206002806D87106010006001C
:1010C0000006084406240006013A06240006F43609
:1010D00006248006F43606111806F03606041806B3
:1010E000053406149006E3360624000600200600A8
:1010F0000006F23606159807CF81060400060100A7
:1011000006300006920206010006914606300006EF
:10111000100306300006130706053E0614B8064500
:1011200036062400060000060A80060030064C1031
:101130000604000610B50690680600300680B80662
:1011400000B00600390624000601000651C806005A
:101150003A0624000630000612000600320624007B
:101160000612C0062400069068060128069068064C
:10117000002C06003B0624000601000600000604C1
:10118000000613C00604380624C00601000610E05D
:101190000680B80600A00601000690C806093006C1
:1011A000002006000006502A060930061024060119
:1011B000000611C806002906C06D06093006102475
:1011C00006F034062400068040062400062E0006A1
:1011D00004E006002806157E06000006902806009A
:1011E0000006000306133406240006F03C06240023
:1011F000068AB8064C1806003E0600780606000669
:10120000000006093006020006D4FF06854006B637
:101210004806240006CAFF06240006B6420624003B
:101220000600290640AC0682B806240006864C0655
:10123000C09B0600290640AC0682B10624000604C5
:10124000000610E0063000069107060038064C182C
:101250000692680640380610290640F006103E0641
:10126000244006F336064C1006F03406240006C06F
:101270003906240006000006400806300006D207A2
:101280000618290640C90600390624000601000692
:1012900051E00618290640C9061336062400060048
:1012A0000006CEF90682BC06240006300006D303F1
:1012B00006003206402406003B06C1270630000621
:1012C000930606000006C00E060024068E8906005E
:1012D0003B0624000680B8068C100600F406104574
:1012E00006002906C03106133606803306906806CC
:1012F0008C100600F406104506132906803806E314
:1013000034064C18060000062400060000061136BC
:101310000601000650E006000006410006233406E0
:1013200024000609300600100602FE06240006B25C
:10133000480624000600F4060140060000060000EE
:1013400006E03C06402006003906C1230688B806A0
:101350002400060000060101061929068004061370
:10136000360624000612600624000601000652E03C
:1013700006002806C88C06000006240006906806B1
:101380008C100600F406104506132906803806E383
:1013900034064C180601000690E006233406C1030B
:1013A00006804106114506133606811306006106C4
:1013B00050440600000641000602FE0600A406098D
:1013C0003006460806093006C70B06B24F06240051
:1013D00006093006402806002906C03106093006F5
:1013E000C12B06804006240006010006C146060007
:1013F000280645A106000006240006000006103657
:1014000006424106008406926806554006003D06E5
:101410004C1806010006C046064040064138060149
:101420000006C14606002906405B0600F40612408D
:101430000642410602000694620655400600000678
:10144000012606986406001406944206022006222D
:101450004106CC9B0600F406554006000006010834
:1014600006003D0624000600300624000612600631
:1014700024000600000601F80600280648A1060020
:101480000006240006192906C001061336062400AA
:101490000612600624000604000612E00600280674
:1014A000C99C0600000601E8060032064C180690AA
:1014B0006006240006926806403806103E06244066
:1014C0000610290640F00600000648A006000006A7
:1014D00001E806192906C001061336062400061283
:1014E00060064C980604000612E006002806989F45
:1014F00006926806000806904006240006103E0684
:10150000240006103E0624400610290640F006007E
:10151000000648A006103E0624000610290640F0EA
:1015200006103E06244006132906006506F336061B
:10153000240006000006000006003806240006000D
:101540000006407E06006406240006000006240013
:1015500006002806C88C06000006240006010006C6
:10156000D04606000006437E06010006D34606006C
:1015700033064C980601000613C806103E06118C6F
:1015800006103E068CD00600F40612450600290619
:10159000001606E33406240006000006CE1F0600EF
:1015A00024064EA906E3360624000601000651C8AB
:1015B0000601000610C806093006000006093006BC
:1015C000010406146006240006000006240006003C
:1015D0002806D5A8060000062400063000061302DF
:1015E00006093006120006093006000806003B0610
:1015F0002400060930060000069060062400060953
:101600003006002006010006412A0601000610C827
:1016100006133606000006146006240006000006C5
:10162000240006002806D1AB0600000624000600B0
:101630000006512A06093006112006002906C06D51
:1016400006000006888C07B18206133606240006C1
:10165000000006200006013E06447806033E064DC3
:10166000F8068ABE06C34006D64D060E38060000B0
:1016700006CE0706002406CEAF06EA8E0624000634
:10168000CA6E06C34006000006240006002806C1F4
:10169000AF06D68D06240006CA4E068A4206EA8E9A
:1016A00006240006F33606248006824D060F18062F
:1016B000E6F206CD9B06002006000006F136060481
:1016C000588188000081880100440007508006008E
:1016D000000690170600F406005406000006100AE3
:1016E0000600F40600560680B00624000607000631
:1016F000579206003F0624000630000697020600B7
:101700003F062400060000064D00061400068F95D3
:10171000060000064E1B060F280600E1060600061E
:10172000162006002A06CE1706123E0617B8061423
:101730003E0612F806013E0611B806070006179786
:1017400006200006D2FF06300006D1110611310630
:1017500024800604370624C006813B062480060147
:101760003106248006813B06248006043F0624C0FF
:1017700006082806004806F13606119806142806C1
:10178000919C060000064D00061428064099063F6D
:10179000000613000A50000011241FBECFEFD0E155
:1017A000DEBFCDBF14BE0FB6F894A89581B5886191
:1017B00081BD11BC0FBE12E0A0E0B1E0EAE3F0ECA5
:1017C00000E00BBF02C007900D92A638B107D9F711
:1017D00026E0A6E8B2E001C01D92A53BB207E1F702
:1017E0000E9470540C9414600C9400000000FECF12
:1017F00088E198E00FB6F894A89581BD0FBE91BD21
:10180000FFCF4F925F926F927F92AF92BF92CF9233
:10181000DF92EF92FF920F931F93CF93DF93CDB799
:10182000DEB72A970FB6F894DEBF0FBECDBF2B01EF
:101830003C018A0169011A821982FE01339688E00F
:10184000DF011D928A95E9F7CE0101965C01FC014A
:10185000F12CE12C4114510461047104C1F53601ED
:101860006E187F08A301CE14DF0414F440E050E0AA
:1018700060E370E0C8010E944959C5018E0D9F1DAB
:10188000CE14DF0414F4712C612CF801E60DF71D61
:101890008A159B0589F50E0D1F1DF801E60DF71D34
:1018A000108281E02A960FB6F894DEBF0FBECDBF3E
:1018B000DF91CF911F910F91FF90EF90DF90CF902C
:1018C000BF90AF907F906F905F904F900895C2014E
:1018D0008F709927AFEFEA1AFA0A8A30910554F40B
:1018E000805D819384E076946794579447948A95B9
:1018F000D1F7B0CF895CF5CFDC012E91CD012193DA
:10190000C7CF9C0181E090E0662351F06150AC01AB
:10191000429FC001439F900D529F900D1124F4CF20
:1019200008955F926F927F928F929F92AF92BF9233
:10193000CF92DF92EF92FF920F931F93CF93DF939B
:10194000CDB7DEB7C754D1090FB6F894DEBF0FBECE
:10195000CDBFC82EB92EA62E772EE42ED52EB901D6
:10196000602E512E4E018FE3880E911C46E050E010
:10197000C4010E946D5926961FAE26976E2D7D2DAF
:101980008E010F5F1F4FC8010E948C3AF12C892BEA
:1019900001F5BE01675D7F4FC8010E94093B892B9D
:1019A000A9F48AA9882391F06EE270E0CE01C29674
:1019B0000E945B594AE050E0BE016A5B7F4F02978C
:1019C0000E94B857F61628F7F62EE3CFC8010E94FA
:1019D000F03A5F926F92F3941F92FF929F928F92D0
:1019E000DF92EF928CEA91E09F938F937F92AF9278
:1019F000BF92CF920E947C590FB6F894DEBF0FBE03
:101A0000CDBFC95BDF4F0FB6F894DEBF0FBECDBFB1
:101A1000DF91CF911F910F91FF90EF90DF90CF90CA
:101A2000BF90AF909F908F907F906F905F90089540
:101A30009C018091860290918702892B29F4309332
:101A40008702209386020895409186025091870272
:101A5000C901B0E0A0E0840F951FA11DB11DB6958E
:101A6000A79597958795909387028093860208950E
:101A7000E4E6F0E080818E7F8083E5E6F0E080811F
:101A80008160808361E070E082E00E940921109211
:101A900089020895E6E8F2E011821082128281E064
:101AA0008383089510928902089580918902089590
:101AB000CF93DF9300D000D0CDB7DEB72091860260
:101AC00030918702A4E6B0E00E9495552CEC31E0FD
:101AD00040E050E00E946A55822F0F900F900F90C7
:101AE0000F90DF91CF910895CF9380918902882341
:101AF00059F18091880290E0019663E070E00E94C5
:101B00005655809388028091880281111DC0809172
:101B1000860290918702892B61F4109287021092BD
:101B2000860248E15DE060E270E082E0CF910C94D3
:101B300036210E94580DC82F853578F789EB91E042
:101B40000E946D24C63448F7CF910895823049F041
:101B500043E032E0833039F449E03AE022E09AE0B1
:101B600004C046E036E023E090E080939602409384
:101B70009A0230939C0220939B0290939D0284E0F2
:101B80008093990282E08093980280919F028E67F1
:101B900080939F02089570E060E080E090E00E94F2
:101BA000FE5F0C94F80B82E090E890938C02809397
:101BB0008B0245E150E060E070E08BE892E00C942D
:101BC000DD5F0E94241A64EF71E08EEB91E00E94C9
:101BD00075240E94194B0E941B240E94520D0E94E2
:101BE000A92181E090E00E94961985B7837E8861E3
:101BF00085BF81E00E94EC4885B7806285BF8895EB
:101C000085B78F7D85BF81E00E94F9480E94E94831
:101C1000813079F70E94281A90E080E00E9496199E
:101C20000E94F9230E94ED200E944A0D0E94191A79
:101C30000C940B4988E990E0092E000CAA0BBB0B11
:101C4000ABBFFC018791969108959FEF980F933059
:101C500010F48093950208951092950208951092C1
:101C6000950208959FEF980F933010F40C94A60DF1
:101C7000089582E00C94A60DCF93DF9345E150E0E8
:101C800060E070E08BE892E00E94CD5F80918B0273
:101C900090918C028230904809F441C080918D026D
:101CA000807E886080938D02109290021092910243
:101CB000D5E0D093920210929302C4E0C0939402B4
:101CC000109295020E94390ED093970282E0809381
:101CD0009802C093990283E080939A0280939B02BA
:101CE00087E080939C0280939D0280919E02877E74
:101CF00080939E0280919F028E7F80939F0282E05C
:101D000090E890938C0280938B0245E150E060E074
:101D100070E08BE892E0DF91CF910C94DD5FDF9172
:101D2000CF910895EBE8F2E0138684898178848B63
:101D3000089580918D0281700895EDE8F2E0908120
:101D400080FB90F99083089580918D028095817039
:101D50000C949D0EEDE8F2E080818E7F80830895E3
:101D600080918D02869581700895EDE8F2E0908172
:101D700080FB91F9908308950E94B00E91E089272D
:101D80000C94B50EEDE8F2E080818D7F808308959C
:101D900080918D0282FB882780F90895EDE8F2E0BA
:101DA000908180FB92F9908308950E94C80E91E083
:101DB00089270C94CE0EEDE8F2E080818B7F808342
:101DC000089580918D0283FB882780F90895EDE8BE
:101DD000F2E0908180FB93F9908308950E94E10ED8
:101DE00091E089270C94E70EEDE8F2E080818860AD
:101DF0008083089580918D02829581700895EDE829
:101E0000F2E0908180FB94F9908308950E94FA0E8D
:101E100091E089270C94FF0EEDE8F2E080818F7E3F
:101E20008083089580918E0290918F02089583E0BF
:101E300090E0089580EF90E0089581E090E00895AB
:101E400082ED90E0089580919E0281700895EEE900
:101E5000F2E0908180FB90F9908308959C010397B4
:101E60008E3E910520F430938F0220938E020895C8
:101E700082ED90E090938F0280938E0208951092ED
:101E80008F0210928E02089590E080E0089581E024
:101E900020918E0230918F02232B09F080E008956B
:101EA00080919002089580E0089589E0089581E08E
:101EB000089580E0089580919E028695817008952E
:101EC000EEE9F2E0908180FB91F9908308958A30E9
:101ED00010F48093900208951092900208958091DA
:101EE0009102089580E0089589E0089581E00895C1
:101EF00080E0089580919E0282FB882780F90895F2
:101F0000EEE9F2E0908180FB92F9908308958A30A7
:101F100010F4809391020895109291020895809197
:101F20009702089580E0089589E0089581E008957A
:101F300085E0089580919F0281700895EEE9F2E0B6
:101F4000918180FB90F9918308958A3010F48093F9
:101F50009702089585E080939702089580919202F8
:101F6000089581E0089589E0089581E0089585E06D
:101F7000089580919E0283FB882780F90895EEE9F9
:101F8000F2E0908180FB93F9908308959FEF980F82
:101F9000993010F480939202089585E08093920224
:101FA000089580919302089580E0089580E4089553
:101FB00081E0089580E0089580919E02829581706D
:101FC0000895EEE9F2E0908180FB94F99083089502
:101FD000813410F48093930208951092930208952F
:101FE00080919402089582E0089587E0089581E049
:101FF000089584E0089580919E0285FB882780F9EA
:102000000895EEE9F2E0908180FB95F990830895C0
:102010009EEF980F963010F480939402089584E018
:1020200080939402089580919502089581E0089527
:1020300083E0089581E0089580E0089580919E02F4
:1020400086FB882780F90895EEE9F2E0908180FB15
:1020500096F99083089580E0089581E0909195022B
:10206000911180E0089580919602089581E008958D
:1020700083E0089581E0089582E0089580919E02B2
:10208000881F8827881F0895EEE9F2E0908180FB81
:1020900097F99083089580E0089581E090919602E9
:1020A000911180E0089580919802089581E008954B
:1020B00089E0089581E0089582E0089580919F026B
:1020C000869581700895EEE9F2E0918180FB91F9A7
:1020D000918308959FEF980F993010F480939802A0
:1020E000089582E08093980208958091990208955E
:1020F00081E0089589E0089581E0089584E00895DD
:1021000080919F0282FB882780F90895EEE9F2E032
:10211000918180FB92F9918308959FEF980F9930F8
:1021200010F480939902089584E0809399020895B1
:1021300080919A02089581E0089589E0089581E0F0
:10214000089583E0089580919F0283FB882780F99A
:102150000895EEE9F2E0918180FB93F9918308956F
:102160009FEF980F993010F480939A02089583E0BE
:1021700080939A02089580919B02089581E00895CA
:1021800089E0089581E0089583E0089580919F0299
:10219000829581700895EEE9F2E0918180FB94F9D7
:1021A000918308959FEF980F993010F480939B02CC
:1021B000089583E080939B02089580919C02089586
:1021C00080E0089583E6089581E0089587E008950A
:1021D00080919F0285FB882780F90895EEE9F2E05F
:1021E000918180FB95F991830895843610F4809352
:1021F0009C02089587E080939C02089580919D023F
:10220000089580E0089583E6089581E0089587E0C9
:10221000089580919F0286FB882780F90895EEE952
:10222000F2E0918180FB96F991830895843610F451
:1022300080939D02089587E080939D020895809188
:102240008A02089580918A028F5F80938A0208959E
:1022500010928A020895AC01CB014115510581F01D
:102260004130510509F420E18130910559F0823067
:10227000910569F0892B19F482B1822B82B90895F6
:1022800028E0F2CF82B12095282322B9089582B1A7
:102290008227F4CF8F929F92AF92BF92CF92DF921C
:1022A000EF92FF920F931F93CF93DF9300D000D054
:1022B0000F92CDB7DEB77C016983142F5D8369016E
:1022C00082E0E816F10408F0ACC0C7010E94E11DED
:1022D0008111A7C0003608F494C00FE580918A00F0
:1022E000887F80938A009981953608F48FC0A4E690
:1022F000A9839981892F90E0B0E0A0E089839A8337
:10230000AB83BC83BC01CD010E94BD569B01AC01D7
:1023100069837A838B839C8369817A818B819C8199
:102320000E944B5720E030E048EC52E469837A8306
:102330008B839C8369817A818B819C810E941C564E
:102340009B01AC0160E070E088EC92E40E94AF5524
:1023500020E030E84FEF53E469837A838B839C83DA
:1023600069817A818B819C810E944B5720E030E00B
:1023700048EC52E469837A838B839C8369817A81F8
:102380008B819C810E941C5620E030E84FEF53E483
:1023900069837A838B839C8369817A818B819C8119
:1023A0000E94B05569837A838B839C8369817A818B
:1023B0008B819C810E948E56A1E0EA16F10461F1A6
:1023C000709387006093860080918A00887F809355
:1023D0008A00202FA601612F7D81C7010F900F90E9
:1023E0000F900F900F90DF91CF911F910F91FF9061
:1023F000EF90DF90CF90BF90AF909F908F900C9414
:10240000001E053008F06ACF05E068CFB981B11130
:1024100070CF81E089836DCF7093850060938400D5
:10242000D3CF0F900F900F900F900F90DF91CF911F
:102430001F910F91FF90EF90DF90CF90BF90AF90E2
:102440009F908F9008950F9300E030E020E00E946D
:102450004A110F91089582B1877E82B983B1877E38
:1024600083B9EDE7F0E08081837C808383EA809309
:102470008B0088E080938A008FEF93E09093870031
:102480008093860090938500809384006BE271E1D5
:1024900090E080E00E949A1E6BE271E181E090E0A2
:1024A0000C949A1EE5EAF2E08081816080830895B1
:1024B000CF932091A402022E000C330B40E08AE956
:1024C00090E0C7E1642F042E000C770BE42FEE0F91
:1024D000FF0BE056FD4F50815F715C9F800D911D99
:1024E0001124621773074CF44496092E000CAA0BB2
:1024F000BB0BABBFFC01879196914F5F62177307CF
:102500000CF3CF9108950E9458120E96092E000CDC
:10251000AA0BBB0BABBFFC01879196910895089560
:102520000E94E10E0C94FD240E94C80E0C94FD2420
:102530000E94B00E0C94FD240E94990E0C94FD2470
:10254000CF93803259F030F48830A9F0803189F18E
:10255000CF910895803969F1803AD1F70E949A0F9E
:10256000811121C00E948F0FC82F811112C00E94BB
:10257000940FC82F15C00E948F0F882339F00E9436
:102580008F0F682F80ED97E00E94E21FCF910C948F
:1025900052120E94960FC81B0E94920FC81738F360
:1025A0008C2F0E94A50F0E948F0F90E00E94C524DF
:1025B000EDCF0E949A0F8111F6CF0E948F0FC82F86
:1025C0000E94960FC80F0E94940F8C1748F70E9424
:1025D000920FCFCF0E948F0F90E00C94C5240E94E1
:1025E0006F0F90E00C94C5240C94EF120E94AE0F74
:1025F00090E00C94C5240E94D10F90E00C94C52467
:102600000E94500F90E00C94C5240C94001361E0DC
:1026100070E083EC91E00C9475240C9407130C94F7
:102620000713CF93803259F030F4883009F18031AC
:1026300011F1CF9108958039F1F0803AD1F70E94DD
:102640007A0F811113C00E946F0FC82F811104C02F
:102650000E94740FC82F07C00E94760FC81B0E94EB
:10266000720FC817A8F38C2F0E94870F0E94EF12D9
:10267000CF910C9452120E947A0F8111F7CF0E94D1
:102680006F0FC82F0E94760FC80F0E94740F8C170F
:1026900050F70E94720FDECFCF93803941F130F4B2
:1026A000803129F1803221F0CF910895803AE1F70D
:1026B0000E94B90F811113C00E94AE0FC82F811163
:1026C00004C00E94B30FC82F07C00E94B50FC81BDB
:1026D0000E94B10FC817A8F38C2F0E94C60F0E944A
:1026E000AE0F90E00E94C524CF910C9452120E942C
:1026F000B90F8111F4CF0E94AE0FC82F0E94B50F01
:10270000C80F0E94B30F8C1738F70E94B10FDBCFB0
:10271000CF93803941F130F4803129F1803221F0BA
:10272000CF910895803AE1F70E94DC0F811113C028
:102730000E94D10FC82F811104C00E94D60FC82F4C
:1027400007C00E94D80FC81B0E94D40FC817A8F357
:102750008C2F0E94E80F0E94D10F90E00E94C524A8
:10276000CF910C9452120E94DC0F8111F4CF0E9481
:10277000D10FC82F0E94D80FC80F0E94D60F8C17F8
:1027800038F70E94D40FDBCF0F931F93CF93DF93C3
:10279000CDB7DEB7E2970FB6F894DEBF0FBECDBF60
:1027A0008830C9F068F4823051F1E2960FB6F8949F
:1027B000DEBF0FBECDBFDF91CF911F910F91089566
:1027C000803111F0803289F70E94D50E0E94C80E28
:1027D0000E94FD2408C00E948A4A019711F40E94B9
:1027E000194B0E948A4AE2960FB6F894DEBF0FBEDC
:1027F000CDBFDF91CF911F910F910C9452120E9487
:102800008A4A029729F40E94194B0E945212CDCF96
:102810000E948A4A892BC9F708EC11E02CEC31E0C0
:1028200042ED51E062E370E0CE0101960E94910C0E
:10283000CE0101960E94D54AE8CFCF93803259F05D
:1028400030F4883009F1803111F1CF910895803949
:10285000F1F0803AD1F70E945B0F811113C00E9402
:10286000500FC82F811104C00E94550FC82F07C0F8
:102870000E94570FC81B0E94530FC817A8F38C2F34
:102880000E94670F0E940013CF910C9452120E9475
:102890005B0F8111F7CF0E94500FC82F0E94570F76
:1028A000C80F0E94550F8C1750F70E94530FDECFB0
:1028B0000E94FA0E0C94FD240E94531090E00C9498
:1028C000C5240E94751090E00C94C5240E949810B5
:1028D00090E00C94C5240E94BB1090E00C94C52499
:1028E000883011F40C94CB0D0895CF93803941F1C9
:1028F00030F4803129F1803221F0CF910895803A6F
:10290000E1F70E940911811113C00E94FE10C82F27
:10291000811104C00E940311C82F07C00E94051135
:10292000C81B0E940111C817A8F38C2F0E94161112
:102930000E94FE1090E00E94C524CF910C94521288
:102940000E9409118111F4CF0E94FE10C82F0E942D
:102950000511C80F0E9403118C1738F70E9401114E
:10296000DBCF0E94FE1090E00E94C5240C94E54845
:102970000E94DD1090E00E94C5240C94E5480E945E
:10298000F00F90E00E94C5240C94E5480C94E548B3
:10299000CF93803941F130F4803129F1803221F038
:1029A000CF910895803AE1F70E94E810811113C099
:1029B0000E94DD10C82F811104C00E94E210C82FB0
:1029C00007C00E94E410C81B0E94E010C817A8F3BB
:1029D0008C2F0E94F5100E94DD1090E00E94C5240B
:1029E000CF910C9452120E94E8108111F4CF0E94F2
:1029F000DD10C82F0E94E410C80F0E94E2108C174F
:102A000038F70E94E010DBCFCF93803109F180329C
:102A100081F50E94C610811113C00E94BB10C82FFF
:102A2000811104C00E94C010C82F07C00E94C210AC
:102A3000C81B0E94BE10C817A8F38C2F0E94D2108A
:102A40000E94BB1090E00E94C524CF910C945212BA
:102A50000E94C6108111F4CF0E94BB10C82F0E94A3
:102A6000C210C80F0E94C0108C1738F70E94BE1009
:102A7000DBCFCF910895CF93803109F1803281F57A
:102A80000E94A310811113C00E949810C82F8111B9
:102A900004C00E949D10C82F07C00E949F10C81B31
:102AA0000E949B10C817A8F38C2F0E94B0100E94A0
:102AB000981090E00E94C524CF910C9452120E946D
:102AC000A3108111F4CF0E949810C82F0E949F106C
:102AD000C80F0E949D108C1738F70E949B10DBCF07
:102AE000CF910895CF93803109F1803281F50E9412
:102AF0008010811113C00E947510C82F811104C06D
:102B00000E947A10C82F07C00E947C10C81B0E9428
:102B10007810C817A8F38C2F0E948D100E94751092
:102B200090E00E94C524CF910C9452120E94801014
:102B30008111F4CF0E947510C82F0E947C10C80F1D
:102B40000E947A108C1738F70E947810DBCFCF9153
:102B50000895CF93803109F1803281F50E945E1093
:102B6000811113C00E945310C82F811104C00E940C
:102B70005810C82F07C00E945A10C81B0E94561038
:102B8000C817A8F38C2F0E946A100E94531090E07F
:102B90000E94C524CF910C9452120E945E108111A4
:102BA000F4CF0E945310C82F0E945A10C80F0E94E1
:102BB00058108C1738F70E945610DBCFCF9108952C
:102BC000CF93803941F130F4803129F1803221F006
:102BD000CF910895803AE1F70E94FB0F811113C055
:102BE0000E94F00FC82F811104C00E94F50FC82F5A
:102BF00007C00E94F70FC81B0E94F30FC817A8F365
:102C00008C2F0E9408100E94F00F90E00E94C524B3
:102C1000CF910C9452120E94FB0F8111F4CF0E94AD
:102C2000F00FC82F0E94F70FC80F0E94F50F8C17E6
:102C300038F70E94F30FDBCF0E941F1190E00C9435
:102C4000C5240E9408250C94E548CF93DF93803279
:102C500061F038F48830D1F08031C1F1DF91CF914B
:102C60000895803999F1803AC9F70E94470F811180
:102C700017C00E94230F811113C00E94120FEC0194
:102C8000892BB9F40E941A0FEC011CC00E94230F7B
:102C9000811106C00E94470F882341F00E94380F1F
:102CA0000E940825DF91CF910C9452120E943F0F91
:102CB000F7CF0E941D0FC81BD90B0E94170FC81712
:102CC000D90700F3CE010E942E0FEACF0E94470FD2
:102CD0008111E6CF0E94230F8111E2CF0E94120FD3
:102CE000EC010E941D0FC80FD91F0E941A0F8C17EC
:102CF0009D0740F70E94170FC7CF0C94DD4890E066
:102D000080E00E94CE190E94241A0C94DD4881E0D4
:102D100090E00E94CE190E94191A0C94E14880316B
:102D200011F0803289F40E94EE0E0E94E10E0E94A2
:102D3000FD240E94E10E882321F00E94E44B0C94B4
:102D400052120E94EC4BFBCF0895883069F461E089
:102D500070E085EE91E00E9475240E9452128091ED
:102D6000A50282608093A5020895803111F080321F
:102D700041F40E94BC0E0E94B00E0E94FD240C94EF
:102D800052120895803111F0803241F40E94A40E55
:102D90000E94990E0E94FD240C94521208958031D5
:102DA00011F0803241F40E94060F0E94FA0E0E9438
:102DB000FD240C94521208950E944D10882331F086
:102DC00061E070E08EEB91E00C9475240E9433106A
:102DD00090E00C94C5240C94DC16CF93803171F1F3
:102DE0008032A1F08830D9F50E943E10811106C0D2
:102DF0000E944D10882339F00E94390E0E94DC1683
:102E0000CF910C9452120E94920EF8CF0E943E1065
:102E10008111F4CF0E943310C82F811104C00E9489
:102E20003810C82F07C00E943A10C81B0E943610E5
:102E3000C817A8F38C2F0E94320EE0CF0E943E10DC
:102E40008111DCCF0E943310C82F0E943A10C80FA6
:102E50000E9438108C1770F70E943610E2CFCF9185
:102E600008950E942D10882331F061E070E08EEB10
:102E700091E00C9475240E94131090E00C94C524EA
:102E80000C943117CF93803199F18032A9F08830BA
:102E900009F043C00E941E10811106C00E942D102F
:102EA000882339F00E942C0E0E943117CF910C9488
:102EB00052120E942F0EF8CF0E942D108111F4CFD4
:102EC0000E941E108111F0CF0E941310C82F811193
:102ED00004C00E941810C82F07C00E941A10C81BF7
:102EE0000E941610C817A8F38C2F0E94250EDCCF65
:102EF0000E942D108111D8CF0E941E108111D4CFB5
:102F00000E941310C82F0E941A10C80F0E94181098
:102F10008C1750F70E941610DECFCF9108958032A3
:102F2000C1F028F4883041F08031C1F00895803933
:102F3000A9F0803A71F008950E94D919019731F4EF
:102F400082E090E00E94CE190C94521281E090E051
:102F5000F9CF8FEF9FEF0E944A1CF6CF81E090E0FF
:102F6000FACF08950895883049F40E94D30D0E9445
:102F700052128091A50282608093A5020895EF927B
:102F8000FF920F931F93CF93DF93CDB7DEB72F97A9
:102F90000FB6F894DEBF0FBECDBF0E9458120B963D
:102FA000092E000CAA0BBB0BABBFFC0187918E0155
:102FB0000F5F1F4F882309F43EC00E9458124296AB
:102FC000092E000CAA0BBB0BABBFFC01879196919D
:102FD000F12CE12C009721F0FC010995E82EF12C51
:102FE0000E945812BC01C8010E942C59FF92EF9216
:102FF0001F930F931F9285E08F938E01055F1F4FE4
:103000001F930F930E947C590FB6F894DEBF0FBE3A
:10301000CDBFC80161E070E00E9475242F960FB605
:10302000F894DEBF0FBECDBFDF91CF911F910F91FE
:10303000FF90EF9008950E945812BC01C8010E94B1
:103040002C59E7CFE0EAF2E086E0DF011D928A9595
:10305000E9F78FEF848380818F7180668083E1EA56
:10306000F2E080818C7F826080830895E0EAF2E064
:1030700014828081807E80830C94BF178091A4028B
:103080008095881F8827881F0895CF93DF93D82FB6
:10309000C091A40290E080E0C7FD24C08091A50209
:1030A000807F8093A502EC2FEE0FFF0BD43849F5FB
:1030B000EF55FD4F808182FF06C00E948312FC0104
:1030C000892B09F009958091A40281110EC08FEF20
:1030D0008093A4028091A502807F85608093A502E1
:1030E00085E090E0DF91CF91089581508093A40214
:1030F00087FDEDCF0E94BF170E94521281E090E041
:10310000F1CFDF01AF55BD4F8C9182FD6BC0D43044
:1031100039F0D83001F18091A5028F7090E0E2CFB4
:10312000E056FD4F2081822F8F7190E00196322F63
:1031300032953695377061816370660F660F660F42
:10314000632B70E00E9456558F71207E282B2083C0
:103150000E94BF1744C00E9458124696092E000CC8
:10316000AA0BBB0BABBFFC018791882301F10E9426
:1031700058124696092E000CAA0BBB0BABBFFC01E4
:103180008791E1E0EC0FE093A402EE0FFF0BE05615
:10319000FD4F982F9295990F907E908386958695F6
:1031A0008695837091819C7F892B8183D1CF0E94EA
:1031B00058120C96092E000CAA0BBB0BABBFFC01DE
:1031C00087919691009711F0FC010995E091A40276
:1031D000EE0FFF0BE056FD4F8181846081830E94DA
:1031E000521299CFD43079F40E948312FC01892BBA
:1031F00009F00995E091A402EE0FFF0BE056FD4F98
:1032000081818B7FD2CF0E945812AC01405F5F4F0B
:10321000052E000C660B770B6BBFFA014791569198
:103220004115510509F477CF8D2FFA010995809149
:10323000A50281FF70CFE091A402EE0FFF0BE056D4
:10324000FD4F81818B7F81830E94BF1764CFFF92E6
:103250000F931F93CF93DF93182F092FD62FF72E9D
:10326000C42F0E940124882309F45AC0C0FF4BC018
:103270000F931F9388E292E09F938F931F9283E0B6
:103280008F9386EA92E09F938F930E947C598DB72B
:103290009EB708960FB6F8949EBF0FBE8DBF08EA82
:1032A00012E0C2FF08C066E172E088EA92E00E9484
:1032B000505909EA12E0C1FF2DC0FF92DF9388E266
:1032C00092E09F938F931F9283E08F931F930F93AE
:1032D0000E947C598DB79EB708960FB6F8949EBF92
:1032E0000FBE8DBFC3FF06C066E172E0C801029643
:1032F0000E94505986EA92E0DF91CF911F910F9181
:10330000FF900C942B246EE472E086EA92E00E9417
:103310006659C5CF6EE472E0C8010E945059E2CFF1
:10332000DF91CF911F910F91FF9008959C0197B766
:103330009C7F97BF98E090BF93BF12BE83B72130A8
:103340003105A1F4866083BF80E881BF8091B4021B
:103350008C7F81608093B40280B78770E9F786B76D
:103360008C7F86BF87B7826087BF0895816083BFE7
:1033700081E281BF8091B4028C7FECCF089580916F
:10338000B302881F8827881F08959091B4029695EC
:103390009695937081E009F480E00895982F9370DA
:1033A000E3EBF2E0990F990F8181837F892B818371
:1033B00008958091B40286958695837090E0089573
:1033C000EDEAF2E09681982B96830895EDEAF2E01B
:1033D00016828081807E8C60808380818F71808363
:1033E000AEEAB2E08C91887F8C938C9187708C933D
:1033F000AFEAB2E08C918E7F8C9314821382158297
:10340000E3EBF2E08181837F818381818F7081830F
:1034100082818C7F828383E090E00E94E0192FEF0D
:1034200081EE94E0215080409040E1F700C0000020
:10343000089580E890E00C94E019EDEAF2E09681BE
:10344000809589238683089580E890E00C941D1A66
:10345000CF93CFB7F89480E490E00E941D1ACFBFBD
:103460008091B30286FF02C0CF9108950000F8CF8B
:10347000EDEAF2E096819827968308951F920F92C5
:103480000FB60F9211240BB60F922F933F934F93C9
:103490005F936F937F938F939F93AF93BF93EF93BC
:1034A000FF938091B4028370813009F08FC09091B6
:1034B000AE029695969596958091AF028170829511
:1034C000880F807E892B90E001962CE330E0B901D3
:1034D0000E945655482F440F440F440F9091AE025E
:1034E0009770942B9093AE0285FB992790F9809169
:1034F000AF028E7F892B8093AF029091AE0296959A
:10350000969596958091AF0281708295880F807E06
:10351000892B09F044C09091AD02929596959770D1
:103520008091AE028770880F880F880F892B90E0FA
:103530000196B9010E945655282F2F73982F929506
:10354000990F907E8091AD028F71892B8093AD028F
:103550002695269526958091AE02887F822B8093B2
:10356000AE029091AD029295969597708091AE02C1
:103570008770880F880F880F892B89F48091AD029E
:103580008F7190E0019668E170E00E945655982F87
:103590009F718091AD02807E892B8093AD0280E483
:1035A00090E00E94E019FF91EF91BF91AF919F9140
:1035B0008F917F916F915F914F913F912F910F90DC
:1035C0000BBE0F900FBE0F901F9018950E940D49D3
:1035D000882361F00E94EF238091B4028F70809362
:1035E000B4028091B5028C7F8093B5020E94F91CD1
:1035F0000E94C7230E944E1D0E947A1F8091B00234
:103600009091B102019668EE73E00E94425590934A
:10361000B1028093B0028091B0029091B102892BE7
:1036200009F0E4C09091B40292959F708091B50228
:1036300083708295807F892B8E31A8F59091B4029A
:1036400092959F708091B50283708295807F892BBF
:103650008F5F8F73282F2295207F9091B4029F70E7
:10366000922B9093B40282958F709091B5029C7FBB
:10367000892B8093B5029091B40292959F708091AE
:10368000B50283708295807F892B8E3160F08091A6
:10369000B30287FF08C08091B40286958695837037
:1036A00011F40E9410249091AE02969596959695ED
:1036B0008091AF0281708295880F807E892B90E087
:1036C00001962CE330E0B9010E945655482F440F73
:1036D000440F440F9091AE029770942B9093AE02DA
:1036E00085FB992790F98091AF028E7F892B80937B
:1036F000AF029091AE029695969596958091AF0205
:1037000081708295880F807E892B09F048C0909146
:10371000AD029295969597708091AE028770880F52
:10372000880F880F892B90E00196B9010E945655A9
:10373000282F2F73982F9295990F907E8091AD022C
:103740008F71892B8093AD022695269526958091C1
:10375000AE02887F822B8093AE029091AD0292954B
:10376000969597708091AE028770880F880F880FAA
:10377000892B89F48091AD028F7190E0019668E108
:1037800070E00E945655982F9F718091AD02807E07
:10379000892B8093AD028091B3020E94740D84E066
:1037A00090E00E94381A8091B402869586958370C5
:1037B000E9F483E090E00E94E0198091B30287FF72
:1037C00015C04091B3028091AD02829586958770B5
:1037D0006091AE026770660F660F660F682B80916E
:1037E000AD028F7170E090E00E9427198091B202C3
:1037F00090E0019668EC70E00E9456558093B2020A
:103800008091B40286958695837009F4CCCE809120
:10381000B2028111C8CE8091B402869586958370DC
:10382000813029F1823041F481E090E00E94E0197A
:1038300082E090E00E94381A8091B30287FFB3CEF5
:103840004091B3028091AD02829586958770609118
:10385000AE026770660F660F660F682B8091AD022F
:103860008F71477F70E090E00E9427199CCE82E024
:1038700090E00E94E01981E090E0DCCFAC01209163
:10388000B30230E02823352381E02417350709F0FF
:1038900080E00895AC018091B4028695869583708E
:1038A000813009F452C0823009F04CC02FB7F8942F
:1038B0009091AD029295969597708091AE02877027
:1038C000880F880F880F892B57FF3DC0815C8F734D
:1038D000382F3295330F307E9091AD029F71932B2C
:1038E0009093AD028695869586959091AE02987FCD
:1038F000892B8093AE029091AD0292959695977028
:103900008091AE028770880F880F880F892B90E016
:103910006CE370E00E945655382F3F73982F9295B4
:10392000990F907E8091AD028F71892B8093AD02AB
:103930003695369536958091AE02887F832B80939D
:10394000AE022FBF08958F5FC2CF2FB7F89490912A
:10395000AD0257FF19C0915E9F718091AD02807ECC
:10396000892B8093AD028091AD028F7190E068E168
:1039700070E00E945655982F9F718091AD02807E15
:10398000892B8093AD02DDCF9F5FE6CFE6EBF2E0BF
:103990008EE0DF011D928A95E9F7089547E0489F80
:1039A000F001499FF00D1124EA54FD4F808191816F
:1039B000892B49F4718360831282138214821582E9
:1039C000168281E0089580E0089547E0489F9001C5
:1039D000499F300D11242A543D4FF9012081318136
:1039E00081E0232B09F480E00895FC01118210820C
:1039F00008958091B6029091B702892BD1F0809101
:103A0000B8029091B902A091BA02B091BB0201969E
:103A1000A11DB11D8093B8029093B902A093BA0280
:103A2000B093BB02E091B602F091B70286EB92E050
:103A300009958091BD029091BE02892BD1F08091B1
:103A4000BF029091C002A091C102B091C202019642
:103A5000A11DB11D8093BF029093C002A093C1022B
:103A6000B093C202E091BD02F091BE028DEB92E0F4
:103A700009940895F0E0E0E08330910540F42BE0F4
:103A8000289FF001299FF00D1124EC53FD4F018474
:103A9000F285E02D309709F0099408954F925F92D6
:103AA0006F927F92AF92BF92CF92DF92EF92FF928E
:103AB0000F931F93CF93DF9300D000D000D0CDB7EA
:103AC000DEB784EC92E09E838D8310E000E084E614
:103AD000C82ED12CE12CF12CED81FE8180819181C9
:103AE000A281B3810097A105B105A1F00197A109B9
:103AF000B10980839183A283B383892B8A2B8B2B7B
:103B000049F4158214821782168261E070E0C801C0
:103B10000E943A1DED81FE81A680B780A114B104F8
:103B200041F1208530E0D5010E94955569837A8363
:103B30008B839C83A70196010E946A5529013A0153
:103B4000ED81FE81848195810196B5010E944255E7
:103B500095838483AC0170E060E0441555056605EB
:103B6000770511F0892B29F462E070E0C8010E940A
:103B70003A1D0F5F1F4F8D819E810B969E838D8313
:103B80000330110509F0A8CF26960FB6F894DEBFD2
:103B90000FBECDBFDF91CF911F910F91FF90EF909E
:103BA000DF90CF90BF90AF907F906F905F904F90DD
:103BB0000895E4ECF2E081E2DF011D928A95E9F7D5
:103BC00008959C01039708F008959FB7F8948BE03F
:103BD000829FF001839FF00D1124EC53FD4F408133
:103BE00051816281738181E0452B462B472B29F45B
:103BF00026813781232B09F480E09FBF81700895CF
:103C0000CF92DF92EF92FF920F931F93CF93DF93A8
:103C100000D000D000D0CDB7DEB78D839E838B015E
:103C20006A01F22E8D819E810E94E11D81115AC090
:103C30002D813E812330310508F054C0EFB6F89451
:103C4000C801009711F481E090E09C0150E040E051
:103C5000CA01B9010E94BE198B019C018BE04D8104
:103C60005E81849FF001859FF00D1124EC53FD4F80
:103C70000083118322833383C601009711F481E00E
:103C800090E09C0150E040E029833A834B835C83C1
:103C9000CA01B9010E94BE19462F572F8BE02D8112
:103CA0003E81829FF001839FF00D1124EC53FD4F64
:103CB00057834683F08615821482EFBE70E060E081
:103CC0008D819E8126960FB6F894DEBF0FBECDBFC4
:103CD000DF91CF911F910F91FF90EF90DF90CF90E8
:103CE0000C943A1D26960FB6F894DEBF0FBECDBFDA
:103CF000DF91CF911F910F91FF90EF90DF90CF90C8
:103D0000089583309105A8F42FB7F8943BE0389FCD
:103D1000F001399FF00D1124EC53FD4F10821182F8
:103D200012821382178216822FBF61E070E00C941A
:103D30003A1D08959C012330310550F44BE0429F19
:103D4000F001439FF00D1124EC53FD4F7287618702
:103D50000895CF93DF93EC018A819B81AC81BD8173
:103D6000843F9140A105B10549F48AEE91E00E949B
:103D7000AC4ACE01DF91CF910C94F51CDF91CF912D
:103D80000895CF92DF92EF92FF92CF93DF9300D00E
:103D900000D000D0CDB7DEB78D839E83AD81BE81CC
:103DA0001296CD90DD90ED90FC901597B1E0CB167A
:103DB000D104E104F104A1F40E943F0F0E94241AEF
:103DC00089EF91E026960FB6F894DEBF0FBECDBF07
:103DD000DF91CF91FF90EF90DF90CF900C946D2406
:103DE00064EF71E080E090E00E94BE1969837A83FD
:103DF0008B839C83C616D706E806F90671F42696CF
:103E00000FB6F894DEBF0FBECDBFDF91CF91FF900C
:103E1000EF90DF90CF900C940825ED81FE81C28059
:103E2000D380E480F58068EE73E080E090E00E944B
:103E3000BE1969837A838B839C83C616D706E806EE
:103E4000F90691F48D819E810E94F51C26960FB68D
:103E5000F894DEBF0FBECDBFDF91CF91FF90EF9002
:103E6000DF90CF900C94191A26960FB6F894DEBF07
:103E70000FBECDBFDF91CF91FF90EF90DF90CF903D
:103E80000895CF93DF9300D0CDB7DEB79A838983AF
:103E900062E0CE0101960E945C230F900F90DF91AB
:103EA000CF910895A09AA89A81E00895A09885B32B
:103EB000817085BB08958091E50281110CC041E4B9
:103EC0005FE170E060E00E943621882321F0A8982D
:103ED00091E09093E50208958091E502882331F006
:103EE000A89A80E00E9496211092E50208958091A0
:103EF000E5020895CF93DF9300D000D00F92CDB7A5
:103F0000DEB78091E6028F5F8D838093E6026AE0E0
:103F100070E080E090E00E94BE1969837A838B8311
:103F20009C832D81822F90E0B0E0A0E029813A812E
:103F30004B815C8182179307A407B50759F410924F
:103F4000E6020F900F900F900F900F90DF91CF919E
:103F50000C9482250F900F900F900F900F90DF918F
:103F6000CF910895C0980895C09A0895B89A0C9476
:103F7000B41F0E94BE2141E06DE172E087EE92E045
:103F80000E94B4329C0181E0232B09F080E0089567
:103F900040E06DE172E090E080E00C94B432029772
:103FA00081F46130710539F06230710531F0672BB1
:103FB00041F4A99A0895A998089585B392E08927B4
:103FC00085BB08951F93CF93DF93182FD92FC62F4A
:103FD00082E090E00E94E11D81111BC0CC23C9F05A
:103FE000CA30A8F424E1C13039F0C93081F02C2F57
:103FF000220F220F220F245F4AE050E0612F7D2F15
:1040000082E090E0DF91CF911F910C94001E2AE591
:10401000F3CFDF91CF911F9108950895A19AA998A8
:104020006FEC7FE182E090E00C949A1E20913905BC
:1040300030913A052F71821751F020913F05309150
:1040400040052F71821731F08FEF9FEF089590E0B8
:1040500080E0089581E090E008959C0186E0829FD1
:10406000F001839FF00D1124E75CFA4F808191816C
:1040700090FF1EC080EC87B986E0829FF001839F8D
:10408000F00D1124E75CFA4F8081918187FD3D9A04
:1040900086E0829FF001839FF00D1124E75CFA4FC8
:1040A0008081918197B18F71892B87B9369A089554
:1040B00080E4E1CF1F920F920FB60F9211240BB63E
:1040C0000F922F933F934F935F936F937F938F93B1
:1040D0009F93AF93BF93CF93DF93EF93FF9387B1FA
:1040E0008F710E941620EC0186E08C9FF0018D9F5D
:1040F000F00D1124E75CFA4F8081918187FF65C044
:1041000084B195B126E0969587952A95E1F726E04A
:104110002C9FF0012D9FF00D1124E75CFA4F2081B8
:10412000318126FF22C024813581232B29F0048090
:10413000F581E02D9370099586E08C9FF0018D9FAD
:10414000F00D1124E75CFA4F82819381181619064D
:1041500064F482819381019793838283892B29F46C
:10416000808191818F7B91838083C230D10510F053
:10417000D0E0C0E0CE0126E001968230910511F436
:1041800090E080E0289FF001299FF00D1124E75C6A
:10419000FA4F4081518146FD1BC08C179D0761F786
:1041A000FF91EF91DF91CF91BF91AF919F918F914F
:1041B0007F916F915F914F913F912F910F900BBE27
:1041C0000F900FBE0F901F90189584B195B19FCF9F
:1041D00097FDE6CF0E942D20E3CF80E886B986B117
:1041E000876086B9E9E3F5E080E290E0918380831F
:1041F00082E290E097838683E1E6F0E080818A7F27
:104200008083339A81E0089564E274EF80E090E067
:104210000895CF93C62F0E9416209C0180E037FDA1
:104220001FC086E0829FF001839FF00D1124E75CA0
:10423000FA4F80819181C1FF15C08068918380838E
:1042400086E0829FF001839FF00D1124E75CFA4F16
:1042500080819181C0FF08C091609183808381E05B
:10426000CF9108958F77EACF9E7FF7CF0F931F935B
:10427000CF93DF93EB018A010E94162097FD2EC099
:1042800026E0289FF001299FF00D1124E75CFA4FEA
:104290002081318125FF22C02081318126FD1EC071
:1042A0001C161D0614F0CFEFDFEF26E0289FF0016B
:1042B000299FF00D1124E75CFA4FD383C283158345
:1042C0000483208131812064318320830E942D204A
:1042D00081E0DF91CF911F910F91089580E0F9CF98
:1042E00050E040E06AE070E082E00E9436218FE119
:1042F0009EE40197F1F700C0000008950E94162087
:104300009C0197FD11C086E0829FF001839FF00D14
:104310001124E75CFA4F8081918126E0969587957C
:104320002A95E1F78170089580E008950E94162093
:104330009C0197FD0DC086E0829FF001839FF00DE8
:104340001124E75CFA4F808191818F7B9183808378
:10435000089580E00E94962182E00E949621E9E380
:10436000F5E0808191818F7D918380838681978123
:104370008F7D978386833398379808956E990FC001
:1043800087B3866087BBBB98C298C198C39A80E503
:104390008DB98FE19EE40197F1F700C0000081E044
:1043A00008951DB887B3897F87BB88B3817F88BB99
:1043B00008959C019DB193708EB181709230F9F097
:1043C000933011F19130B1F0811123C084E090E07D
:1043D0002032310509F44EC0C0F52830310529F1ED
:1043E00008F522303105E1F124303105C9F18FEFB4
:1043F0009FEF0895811110C080E190E0E9CF8823FC
:1044000071F080E290E0E4CF811109C080E890E093
:10441000DFCF82E090E0DCCF88E090E0D9CF80E48D
:1044200090E0D6CF2031310511F74DB14C7F41607E
:104430004DB92830310549F1B0F02032310529F16C
:10444000E8F420313105A9F409C02034310591F098
:104450002038310561F62DB123602DB9709809C05F
:104460004DB14C7F4DB92230310579F02430310502
:10447000A9F308954DB14C7F4260DACF2034310565
:1044800069F320383105A9F7E9CF709A08958FB9FB
:10449000779BFECF8FB108950F931F938A019B01E5
:1044A000FC018FEF8FB9779BFECF9FB190838FB9BF
:1044B000779BFECF9FB191830250110921093109E9
:1044C0003296011511052105310561F71F910F91F4
:1044D00008950F931F93FC018A019B01011511059B
:1044E00021053105E1F080810130110521053105FB
:1044F00021F41F910F910C94472280818FB9779BF3
:10450000FECF81818FB9779BFECF0250110921091F
:1045100031093296011511052105310571F71F91F9
:104520000F9108951F921FB61F9211242F932BB73E
:104530002F933F934F938F939F93EF93FF932BB1C1
:104540003CB180914D0590E001968770992740918C
:104550004E0548171906B1F0287180934D058B5B05
:104560009A4FFC01308320934F05FF91EF919F916B
:104570008F914F913F912F912BBF2F911F901FBE75
:104580001F90189522E0EFCF8F938FB78F938BB743
:104590008F939F93EF93FF939091580580915905C6
:1045A0009817B1F08091590590E00196877099278E
:1045B000809359058B5B9A4FFC0183858CB9FF91E1
:1045C000EF919F918F918BBF8F918FBF8F91189596
:1045D0005598F5CF0F931F938B019C011BB81AB808
:1045E00040FD549A41FD539A011584E8180783E071
:1045F0002807310509F443C010F5011586E91807AD
:104600002105310509F440C0011582EC180781E04D
:1046100028073105B9F10038154221053105B1F1FE
:1046200086E08093950010924D0510924E051092F1
:1046300058051092590581E01F910F91089500329D
:1046400081EA180787E028073105A1F0003482E4E9
:1046500018078FE02807310541F00039104D23403D
:104660003105F1F681E089B906C019B810929000C1
:10467000599AD6CF19B8109290005998D1CF83E0AB
:1046800089B9F4CF88E0FCCF8CE0EDCF83E3EBCFAA
:104690002091580530E02F5F3F4F277033279091CE
:1046A000590592171306D9F3F901EB5BFA4F83878B
:1046B00020935805559A08950F931F93CF93DF9336
:1046C000EC018C01060F111DC017D10729F4DF91F1
:1046D000CF911F910F91089589910E944823F4CFA3
:1046E0008FB7F89420914D0590914E058FBF2913F7
:1046F00003C080E091E0089580914E0590E001961E
:104700008770992780934E058B5B9A4FFC018081BF
:1047100090914F0508959FB7F894E5E4F5E0808502
:1047200021859FBF90E00896821B910968E070E0A8
:104730000E94565508958FB7F894E5E4F5E0918509
:1047400090878FBF08958AB1877E8AB95F9B08954D
:104750008CB1FCCF84B38F7084BB1ABA85B3806FE1
:1047600085BB1BBA089584B3806F84BB9FEF9ABB4F
:1047700085B3806F85BB8BB39BBB08950E94B32329
:1047800085B38F7085BB1BBA08950C94AA238091C2
:104790005A05882309F125B380915F0590E08B5C71
:1047A0009C4F092E000CAA0BBB0BABBFFC018791E1
:1047B0008095206F822385BBE0915F05F0E0E55A8C
:1047C000FA4F808180958BBB80915F0590E00196C8
:1047D0008370992780935F0508950C94AA23809194
:1047E0005A05811105C00E94B32381E080935A05C8
:1047F0000895CF93CFB7F8940E94EF23CFBFCF9106
:10480000089580915A05089568EE73E080E090E085
:104810000895EBE5F5E0108211821282138208956B
:1048200080915A05882331F00E94AA230E9409240E
:1048300010925A050895CF93CFB7F8940E94102490
:10484000CFBFCF910895CF93CFB7F8940E9409249A
:10485000CFBFCF9108951F93CF93DF93EC01FC015D
:1048600001900020E9F731971E2F181BE817D1F0AF
:104870000E9409245C2F2C2F3D2F40E0F9018191EB
:104880009F014423A9F08E3289F4842F8150990B23
:10489000FC01E55AFA4F808180688083822F851B56
:1048A000811760F3DF91CF911F9108954430D0F7C5
:1048B000642F70E0F9013197808190E0875C9C4F14
:1048C000092E000CAA0BBB0BABBFFC018791655AEC
:1048D0007A4FFB0180834F5FE1CFCF93CFB7F8943E
:1048E0000E942B24CFBFCF910895CF93DF93D62F73
:1048F000C72F0E946D248D2F9C2F009711F481E00B
:1049000090E0EFECF7E03197F1F700C0000001977D
:10491000C1F7DF91CF910895EF92FF920F931F930C
:10492000CF93DF9300D000D000D0CDB7DEB79B018E
:104930008A01AB0155275F934F931F923F931F92BC
:104940008F9382E292E09F938F931F9286E08F93E2
:10495000CE0101967C019F938F930E947C59B801F0
:10496000C7010E9475240FB6F894DEBF0FBECDBFFD
:1049700026960FB6F894DEBF0FBECDBFDF91CF9164
:104980001F910F91FF90EF9008950F931F93CF9376
:10499000DF9300D000D00F92CDB7DEB79C018E011F
:1049A0000F5F1F4F203187E23807A0F06DE272E001
:1049B000C8010E94665961E070E0C8010E94752438
:1049C0000F900F900F900F900F90DF91CF911F914C
:1049D0000F9108953F932F9382E392E09F938F93DB
:1049E0001F9285E08F931F930F930E947C590FB6FF
:1049F000F894DEBF0FBECDBFDECF61E070E088234C
:104A000021F086E392E00C9475248EEB91E0FBCFCD
:104A10000F931F93CF93DF9300D000D000D0CDB77A
:104A2000DEB70E94470F8E010F5F1F4F8823A9F04A
:104A30006EEB71E0C8010E94665961E070E0C80148
:104A40000E94752426960FB6F894DEBF0FBECDBF28
:104A5000DF91CF911F910F9108950E94120F6CE387
:104A600070E00E9442559F938F937F936F938BE3E7
:104A700092E09F938F931F9286E08F931F930F93E3
:104A80000E947C590FB6F894DEBF0FBECDBFD5CFC4
:104A9000811102C00C94774481E00895811102C015
:104AA0000C94B84381E008950F931F93E82FCB0136
:104AB000BA01A9019801E11104C01F910F910C9452
:104AC0007A4484E090E01F910F9108950F931F9313
:104AD000E82FCB01BA01A9019801E11104C01F918F
:104AE0000F910C94E24484E090E01F910F9108959F
:104AF000982F862FBA01911102C00C94544584E07E
:104B000090E008950C94D547CF93DF9300D000D068
:104B1000CDB7DEB7FC012081318142815381CA01CA
:104B2000B9010F900F900F900F90DF91CF910895E2
:104B3000CF93DF9300D000D0CDB7DEB7FC019A0150
:104B4000AB01225031094109510984899589A6890F
:104B5000B7890297A109B109281739074A075B07E6
:104B600018F5A285B3850E94A45569837A838B8347
:104B70009C8380A591A5A2A5B3A529813A814B81EB
:104B80005C81280F391F4A1F5B1F29833A834B839F
:104B90005C8369817A818B819C810F900F900F904B
:104BA0000F90DF91CF91089519821A821B821C8287
:104BB000F0CF0F931F93FB01022F132F9A01138F36
:104BC000028FDC018C91833029F48901222733275D
:104BD000048B158B1F910F910895CF93DF93DC0108
:104BE000ED91FC9111973097E9F1CF01EC0128810B
:104BF00001962132D0F02A33C9F79F012E5F3F4F33
:104C00008217930779F52081203361F58D939C936A
:104C100090E080E0DF91CF9108958F3211F08132E2
:104C200008F54C9311965C93F3CF80818F3281F716
:104C3000818131968F32E1F325E432E0E9019881F8
:104C40002F5F3F4FAF0181916FE9690F6A3108F41F
:104C500090526FE9680F6A3108F480529923E9F2A3
:104C6000891761F38FEF9FEFD5CF0F931F93CF93EA
:104C7000DF93EC018B01892B61F489E090E030E057
:104C800020E0F80131832083DF91CF911F910F91B4
:104C90000895E881F981309781F38081882369F351
:104CA0002A813B81868197812817390731F78181D5
:104CB0000E94482580FDE1CF2881398190E080E085
:104CC000E0CF8F929F92AF92BF92CF92DF92EF92FE
:104CD000FF920F931F93CF93DF93EC018C8181118F
:104CE00010C0F12CE12CC701DF91CF911F910F91E2
:104CF000FF90EF90DF90CF90BF90AF909F908F90FC
:104D000008956E0140E3C40ED11C2CA53DA54EA50F
:104D10005FA501E010E0B60189810E9466257C0153
:104D2000892B51F51C820CA51DA52EA53FA5888DAC
:104D3000998DAA8DBB8D88A099A0AAA0BBA0B9010E
:104D4000A801481959096A097B094A015B018816BB
:104D50009906AA06BB0628F66B81623011F6A901F6
:104D60009801280F391F4A1F5B1F01E010E0B601B0
:104D700089810E946625B7CFEE24E394F12CB3CF4E
:104D8000CF92DF92EF92FF920F931F93CF93DF9317
:104D9000EC016A017B018CA59DA5AEA5BFA530E005
:104DA00020E08C159D05AE05BF05E9F0CE010E94FF
:104DB00061269C01892BB9F401E010E0A70196015E
:104DC000BE01605D7F4F89810E9454259C01892B23
:104DD00031F021E030E0CC24CA94DC2C7601CCA662
:104DE000DDA6EEA6FFA6C901DF91CF911F910F911D
:104DF000FF90EF90DF90CF900895EF92FF920F9386
:104E00001F93CF93DF9300D000D000D0CDB7DEB793
:104E10008D839E83AD81BE8114961C928FEF9FEF90
:104E2000DC01ED81FE8184A795A7A6A7B7A7CF01D6
:104E30000E94C0268C01892B09F071C0ED81FE8192
:104E4000E25DFD4FE080F180AD81BE81D0968C9116
:104E50008B3E21F0885E823008F057C0B5E5EB1636
:104E6000BAEAFB0669F448E050E068E472E08D813C
:104E70009E818E579F4F0E943359892B09F451C050
:104E8000ED81FE8183AD94AD81159240F1F5AD8148
:104E9000BE81DD968C91DD978823B9F190E09C016D
:104EA0002150310982239323892B79F5DE968D9148
:104EB0009C91DF97892B49F1FD01E05CFF4F8081D8
:104EC0008150990B029708F5319680819181892B49
:104ED000E1F03296808191818038910570F4CD01A6
:104EE000805B9F4F0E94842569837A838B839C8398
:104EF000611571058140910540F0ED81FE81EA5B0D
:104F0000FF4F80819181892B61F403E010E0F5E58A
:104F1000EF16FAEAFF0629F402E010E002C004E00E
:104F200010E0C80126960FB6F894DEBF0FBECDBFC5
:104F3000DF91CF911F910F91FF90EF9008952F92E5
:104F40003F924F925F926F927F928F929F92AF9219
:104F5000BF92CF92DF92EF92FF920F931F93CF9366
:104F6000DF9300D000D000D0CDB7DEB75C016A017E
:104F70007B012801390122E0C216D104E104F104C9
:104F800008F403C1FC0184899589A689B789C816EC
:104F9000D906EA06FB0608F0FDC08081823009F4DC
:104FA0009AC0833009F4B6C0813009F0F8C08A0194
:104FB00016950795040F151FC801892F9927869507
:104FC00040A151A162A173A1480F591F611D711D1C
:104FD000C5010E94C0268D839E832D813E81232B97
:104FE00009F058C0150130E3230E311C48014FEF82
:104FF000841A940A1170F101E00FF11F842DA701AA
:105000009601217033274427552729833A834B8300
:105010005C83C0FE07C080818F7040E1449E900198
:105020001124822B808381E0D50114968C931497F0
:1050300090964D915D916D917C919397C401892FCC
:1050400099278695480F591F611D711DC5010E9442
:10505000C0268D839E83ED81FE81EF2BD9F4F1E094
:105060009F22F101E80DF91D29813A814B815C8174
:10507000232B242B252B49F1D301C20154E0B695F3
:10508000A795979587955A95D1F7808381E0D501AB
:1050900014968C938D819E8126960FB6F894DEBF70
:1050A0000FBECDBFDF91CF911F910F91FF90EF9079
:1050B000DF90CF90BF90AF909F908F907F906F9038
:1050C0005F904F903F902F9008958081807F952D25
:1050D0009F70892BDACF77276F2D5E2D4D2D80A104
:1050E00091A1A2A1B3A1480F591F6A1F7B1FC5013F
:1050F0000E94C0268D839E832D813E81232B51F6F5
:10510000F601EE0FFF1FEE7FF170EA0DFB1D11ABF4
:1051100000ABBCCF80A191A1A2A1B3A127E076955D
:105120006795579547952A95D1F7480F591F6A1FDC
:105130007B1FC5010E94C0268D839E832D813E81E9
:10514000232B09F0A7CF8501005D1F4FCC0CDD1C80
:10515000CC0CDD1C3CEFC32231E0D3220C0D1D1D15
:10516000C8010E9484254FE07422DC01CB0188270E
:105170009927AA27B07F84299529A629B729F8015C
:1051800080839183A283B38381CFE2E0F0E0FE834A
:10519000ED8380CF22E030E03E832D837BCF42E061
:1051A00050E05E834D8376CF8F929F92AF92BF92F5
:1051B000CF92DF92EF92FF920F931F93CF93DF93E3
:1051C000EC015A016B010E9461267C0181E0E1142F
:1051D000F10419F5A501B601CE010E9498254B01F5
:1051E0005C018CA69DA6AEA6BFA66E0120E3C20EF2
:1051F000D11C80E092E0F6019C01119221503040D8
:10520000E1F78A859B85E816F906A8F081E02A85F2
:105210003B852E153F0509F480E090E0DF91CF91AA
:105220001F910F91FF90EF90DF90CF90BF90AF90C4
:105230009F908F90089501E010E0A50194012E0D3C
:105240003F1D411D511DB60189810E946625892B94
:10525000E9F63FEFE31AF30AD4CF2F923F924F9231
:105260005F926F927F928F929F92AF92BF92CF92F6
:10527000DF92EF92FF920F931F93CF93DF93CDB7FF
:10528000DEB7A8970FB6F894DEBF0FBECDBF7B0187
:10529000D42EDB011D921C920E94ED259C014BE057
:1052A000A42EB12C97FD25C0220F331FF901EE5912
:1052B000FA4F008111813CE0A32EB12C011511059C
:1052C000C1F0F70111830083E894D0F8D80111965A
:1052D0008C9111979C91992331F10E94482580FD72
:1052E00022C0DD2009F470C282FF6EC20AE0A02E47
:1052F000B12CC501A8960FB6F894DEBF0FBECDBF86
:10530000DF91CF911F910F91FF90EF90DF90CF90A1
:10531000BF90AF909F908F907F906F905F904F90D5
:105320003F902F900895F801108281810E944E25B0
:1053300023E0A22EB12C80FDDCCFDD2011F082FD18
:10534000D5CF40E050E0BA01C8010E94FD2682306E
:10535000910509F000C26801FAE0CF1AFEEFDF0AFA
:105360009E012F5F3F4F790148013AEC831A3DEFD0
:10537000930A5701C6010E948425698B7A8B8B8B17
:105380009C8BD5016D937D938D939D935D01B0E1D1
:10539000CB0ED11CC814D90469F76701E0E1CE0E29
:1053A000D11CD7014D915D916D917D917D0123E0DF
:1053B00030E0411551056105710509F4C1C1C8010D
:1053C0000E94FD269C01029708F0BAC1D8019C9664
:1053D0002D913D914D915C919F97298F3A8F4B8FE5
:1053E0005C8FDB968D919C918115924009F0B9C13B
:1053F000F801EA5BFF4F808191819C0150E040E021
:10540000298B3A8B4B8B5C8B892B49F4C8018C5AC6
:105410009F4F0E948425698B7A8B8B8B9C8B89890B
:105420009A89AB89BC89F801808F918FA28FB38F45
:10543000E05CFF4F8080D80113968C9213978FEF1A
:10544000880D823008F08DC1DD964C90DD97842D5B
:1054500090E01B969C938E931A97009709F481C154
:105460009C012150310982239323892B09F079C1B2
:10547000319620803180F801318620865101FFE08D
:10548000AF22BB24A114B10409F06BC1F801ED5B9C
:10549000FF4F808191816C01F12CE12C892B39F433
:1054A000C801805B9F4F0E9484256B017C01D8015D
:1054B000DE96ED91FC91309709F453C1A82DB0E030
:1054C00029893A894B895C890E94A4556DA37EA3E2
:1054D0008FA398A79F0150E040E02D8F3E8F4F8F04
:1054E00058A3C101B4E096958795BA95E1F7280FC6
:1054F000391F411D511DDA01C9012DA13EA14FA146
:1055000058A5280F391F4A1F5B1F2D8B3E8B4F8BD1
:10551000588FC216D306E406F50608F422C1D70157
:10552000C601821B930BA40BB50B89A39AA3ABA353
:10553000BCA3512C712C612CBC01CD01A3019201A3
:105540000E946A5589A19AA1ABA1BCA184159505B9
:10555000A605B70508F405C1263F9FEF390749079F
:105560009FE0590708F0FDC0A3E08A2E912C263F4A
:10557000AFEF3A074105510560F488248394912CDC
:10558000263FBFE03B074105510518F0F2E08F2EA2
:10559000912C69017A01B2E0CB0ED11CE11CF11C07
:1055A000F801C48AD58AE68AF78A298D3A8D4B8D0F
:1055B0005C8D248F358F468F578F4D8C5E8C6F8C12
:1055C00078A0420E531E641E751E40A251A262A214
:1055D00073A2DA01C9012D893E894F89588D820F46
:1055E000931FA41FB51F80A791A7A2A7B3A7F3E09D
:1055F0008F16910409F0B9C0F801E65AFF4F808177
:10560000918182299329892B09F0ABC0C801845A62
:105610009F4F0E9484252B013C01D701C601E2E087
:10562000880F991FAA1FBB1FEA95D1F7F80144A262
:1056300055A266A277A26C017D01FFEFCF0EF1E0CB
:10564000DF1EE11CF11C59E0F694E794D794C7944F
:105650005A95D1F729893A894B895C892C153D05E2
:105660004E055F0508F47DC08FEF9FEFDC01F80168
:10567000808B918BA28BB38B84879587A687B78706
:1056800080E88583F3E08F16910409F049C0F801A2
:10569000E05AFF4F80819181019709F041C0498D07
:1056A0005A8D6B8D7C8D4F5F5F4F6F4F7F4FC80161
:1056B0000E94C026892BA1F5D80115961C92F801ED
:1056C000E25DFD4F8081918185359A4A49F5C80197
:1056D000C0960E948425623572458146914401F549
:1056E000C8018C5E9D4F0E948425623772478144B9
:1056F0009146B1F4C801885E9D4F0E948425D8016F
:1057000050966D937D938D939C935397C801845EBF
:105710009D4F0E948425F801648775878687978747
:10572000D8018C92809160059091610501969093CB
:1057300061058093600517969C938E931697D9CD3B
:10574000CE14DF0409F02DCE2430310551F4AA2403
:10575000A394B12CCECD84309105C9F3029708F4FF
:1057600035CE1DE0A12EB12CC4CD2328D1F32DA11F
:105770003EA14FA158A5420E531E641E751E32E075
:105780008316910439F4D701C601880F991FAA1F07
:10579000BB1F4CCFA3E0B0E0A70196010E94A45527
:1057A0006D8B7E8B8F8B988FDC01CB01B695A79587
:1057B0009795879541E0C422DD24EE24FF248C0DCB
:1057C0009D1DAE1DBF1D32CFB12CA12C92CD0F93CC
:1057D0001F93CF93DF938C01EB01FC0190E080E0FD
:1057E00030E020E05EE22F5F3F4F4191403291F088
:1057F000453009F445EE2930310531F4DE01A80FBA
:10580000B91F19965C930196DE01A80FB91F19966E
:105810004C9301962B30310531F78C0F9D1FDC0125
:1058200019961C92F80183858F738887C8014C965E
:105830000E948425688379838A839B83D801569646
:105840008D919C9157979F838E8358968D919C91B3
:105850009D838C83DF91CF911F910F9108950F93BA
:105860001F93282FFB01628D738D90E080E0233021
:1058700059F40489158930E020E0980111270027A8
:10588000602B712B822B932B1F910F910895AF9258
:10589000BF92CF92DF92EF92FF920F931F93CF931D
:1058A000DF9300D000D0CDB7DEB78C016A017B0159
:1058B00082E0C816D104E104F10408F4B1C0F80193
:1058C00084899589A689B789C816D906EA06FB0690
:1058D00008F0A6C08081823009F462C0833009F4E8
:1058E0007BC0813009F09CC0CA0196958795840FD2
:1058F000951F9A838983892F9927869540A151A165
:1059000062A173A1480F591F611D711DC8010E943A
:10591000C026892B91F06FEF7FEFCB010F900F9096
:105920000F900F90DF91CF911F910F91FF90EF900B
:10593000DF90CF90BF90AF900895A980BA809FEF7D
:10594000A91AB90AE981FA81F170E00FF11FF0A9F3
:10595000F983C501892F99278695F80140A151A1A6
:1059600062A173A1480F591F611D711DC8010E94DA
:10597000C026892B81F6F1E0BF22F801EA0DFB1D5C
:1059800080A99981782F692FC0FE08C0E4E0769540
:105990006795EA95E1F790E080E0C0CF7F70FBCF9C
:1059A00077276F2D5E2D4D2D80A191A1A2A1B3A1CE
:1059B000480F591F6A1F7B1FC8010E94C026892BF0
:1059C00009F0A9CFF601EE0FFF1FEE7FF170E00F97
:1059D000F11F60A971A9DFCF80A191A1A2A1B3A1FC
:1059E00037E076956795579547953A95D1F7480FE3
:1059F000591F6A1F7B1FC8010E94C026892B09F00E
:105A00008ACF005D1F4FC601880F991F880F991F0D
:105A10008C7F9170800F911F0E9484259F707ECF94
:105A200061E070E080E090E079CF8F929F92AF923A
:105A3000BF92CF92DF92EF92FF920F931F93CF937B
:105A4000DF93EC016A017B01A801B90182E0C8166D
:105A5000D104E104F10408F471C08C899D89AE89F8
:105A6000BF89C816D906EA06FB0608F067C04115CB
:105A700051056105710549F00FEF1FEF9801CE0147
:105A80000E949F279C01892B81F446015701B70191
:105A9000A601CE010E94472C6B017C01C114D104E8
:105AA000E104F10481F430E020E0C901DF91CF91FD
:105AB0001F910F91FF90EF90DF90CF90BF90AF902C
:105AC0009F908F90089581E0C816D104E104F104FD
:105AD000A9F18FEFC816D806E806F80691F100E0A4
